{
  "contractName": "pausable",
  "abi": [
    {
      "constant": true,
      "inputs": [],
      "name": "paused",
      "outputs": [
        {
          "name": "",
          "type": "bool"
        }
      ],
      "payable": false,
      "stateMutability": "view",
      "type": "function"
    },
    {
      "constant": true,
      "inputs": [],
      "name": "owner",
      "outputs": [
        {
          "name": "",
          "type": "address"
        }
      ],
      "payable": false,
      "stateMutability": "view",
      "type": "function"
    },
    {
      "constant": false,
      "inputs": [
        {
          "name": "newOwner",
          "type": "address"
        }
      ],
      "name": "transferOwnership",
      "outputs": [],
      "payable": false,
      "stateMutability": "nonpayable",
      "type": "function"
    },
    {
      "anonymous": false,
      "inputs": [],
      "name": "Pause",
      "type": "event"
    },
    {
      "anonymous": false,
      "inputs": [],
      "name": "Unpause",
      "type": "event"
    },
    {
      "constant": false,
      "inputs": [],
      "name": "pauseTransaction",
      "outputs": [
        {
          "name": "",
          "type": "bool"
        }
      ],
      "payable": false,
      "stateMutability": "nonpayable",
      "type": "function"
    },
    {
      "constant": false,
      "inputs": [],
      "name": "unpauseTransaction",
      "outputs": [
        {
          "name": "",
          "type": "bool"
        }
      ],
      "payable": false,
      "stateMutability": "nonpayable",
      "type": "function"
    }
  ],
  "bytecode": "0x608060405260008054600160a860020a03191633179055610382806100256000396000f3fe60806040526004361061006c5763ffffffff7c0100000000000000000000000000000000000000000000000000000000600035041663385fa14781146100715780635c975abb1461009a5780638da5cb5b146100af57806393faa450146100ed578063f2fde38b14610102575b600080fd5b34801561007d57600080fd5b50610086610144565b604080519115158252519081900360200190f35b3480156100a657600080fd5b506100866101f3565b3480156100bb57600080fd5b506100c4610214565b6040805173ffffffffffffffffffffffffffffffffffffffff9092168252519081900360200190f35b3480156100f957600080fd5b50610086610230565b34801561010e57600080fd5b506101426004803603602081101561012557600080fd5b503573ffffffffffffffffffffffffffffffffffffffff166102c9565b005b6000805473ffffffffffffffffffffffffffffffffffffffff16331461016957600080fd5b60005474010000000000000000000000000000000000000000900460ff161561019157600080fd5b6000805474ff00000000000000000000000000000000000000001916740100000000000000000000000000000000000000001781556040517f6985a02210a168e66602d3235cb6db0e70f92b3ba4d376a33c0f3d9434bff6259190a150600190565b60005474010000000000000000000000000000000000000000900460ff1681565b60005473ffffffffffffffffffffffffffffffffffffffff1681565b6000805473ffffffffffffffffffffffffffffffffffffffff16331461025557600080fd5b60005474010000000000000000000000000000000000000000900460ff16151561027e57600080fd5b6000805474ff0000000000000000000000000000000000000000191681556040517f7805862f689e2f13df9f062ff482ad3ad112aca9e0847911ed832e158c525b339190a150600190565b60005473ffffffffffffffffffffffffffffffffffffffff1633146102ed57600080fd5b73ffffffffffffffffffffffffffffffffffffffff8116151561030f57600080fd5b600080547fffffffffffffffffffffffff00000000000000000000000000000000000000001673ffffffffffffffffffffffffffffffffffffffff9290921691909117905556fea165627a7a7230582088c0fa87d99c2b2a679cf9b86e422d7803ff97d88f830589f692ea3619a6c8e80029",
  "source": "pragma solidity ^0.5.0;\n\nimport \"./owned.sol\";\n\ncontract pausable is owned {\n    \n    bool public paused = false;\n    \n    event Pause();\n    event Unpause();\n   \n    modifier whenNotPaused() {\n        require(!paused);\n        _;\n    }\n    \n    modifier whenPaused {\n        require(paused);\n        _;\n    } \n\n    function pauseTransaction() external onlyOwner whenNotPaused returns (bool){\n        paused = true;\n        emit Pause();\n        return true;\n    }\n\n    function unpauseTransaction() public onlyOwner whenPaused returns (bool){\n        paused = false;\n        emit Unpause();\n        return true;\n    }\n}\n",
  "sourcePath": "G:\\my_wallet\\contracts\\pausable.sol",
  "compiler": {
    "name": "solc",
    "version": "0.5.0+commit.1d4f565a.Emscripten.clang"
  },
  "schemaVersion": "3.0.5",
  "updatedAt": "2019-05-07T01:31:36.753Z",
  "devdoc": {
    "methods": {}
  },
  "userdoc": {
    "methods": {}
  }
}