{
  "contractName": "token",
  "abi": [
    {
      "constant": true,
      "inputs": [],
      "name": "rechargePrice",
      "outputs": [
        {
          "name": "",
          "type": "uint256"
        }
      ],
      "payable": false,
      "stateMutability": "view",
      "type": "function"
    },
    {
      "constant": true,
      "inputs": [],
      "name": "name",
      "outputs": [
        {
          "name": "",
          "type": "string"
        }
      ],
      "payable": false,
      "stateMutability": "view",
      "type": "function"
    },
    {
      "constant": true,
      "inputs": [],
      "name": "decimals",
      "outputs": [
        {
          "name": "",
          "type": "uint8"
        }
      ],
      "payable": false,
      "stateMutability": "view",
      "type": "function"
    },
    {
      "constant": true,
      "inputs": [],
      "name": "initialSupply",
      "outputs": [
        {
          "name": "",
          "type": "uint256"
        }
      ],
      "payable": false,
      "stateMutability": "view",
      "type": "function"
    },
    {
      "constant": false,
      "inputs": [],
      "name": "pauseTransaction",
      "outputs": [
        {
          "name": "",
          "type": "bool"
        }
      ],
      "payable": false,
      "stateMutability": "nonpayable",
      "type": "function"
    },
    {
      "constant": true,
      "inputs": [],
      "name": "_totalSupply",
      "outputs": [
        {
          "name": "",
          "type": "uint256"
        }
      ],
      "payable": false,
      "stateMutability": "view",
      "type": "function"
    },
    {
      "constant": true,
      "inputs": [],
      "name": "paused",
      "outputs": [
        {
          "name": "",
          "type": "bool"
        }
      ],
      "payable": false,
      "stateMutability": "view",
      "type": "function"
    },
    {
      "constant": true,
      "inputs": [],
      "name": "tokenName",
      "outputs": [
        {
          "name": "",
          "type": "string"
        }
      ],
      "payable": false,
      "stateMutability": "view",
      "type": "function"
    },
    {
      "constant": true,
      "inputs": [
        {
          "name": "",
          "type": "address"
        }
      ],
      "name": "_balances",
      "outputs": [
        {
          "name": "",
          "type": "uint256"
        }
      ],
      "payable": false,
      "stateMutability": "view",
      "type": "function"
    },
    {
      "constant": true,
      "inputs": [],
      "name": "withdrawPrice",
      "outputs": [
        {
          "name": "",
          "type": "uint256"
        }
      ],
      "payable": false,
      "stateMutability": "view",
      "type": "function"
    },
    {
      "constant": true,
      "inputs": [],
      "name": "tokenSymbol",
      "outputs": [
        {
          "name": "",
          "type": "string"
        }
      ],
      "payable": false,
      "stateMutability": "view",
      "type": "function"
    },
    {
      "constant": true,
      "inputs": [],
      "name": "owner",
      "outputs": [
        {
          "name": "",
          "type": "address"
        }
      ],
      "payable": false,
      "stateMutability": "view",
      "type": "function"
    },
    {
      "constant": false,
      "inputs": [],
      "name": "unpauseTransaction",
      "outputs": [
        {
          "name": "",
          "type": "bool"
        }
      ],
      "payable": false,
      "stateMutability": "nonpayable",
      "type": "function"
    },
    {
      "constant": true,
      "inputs": [],
      "name": "symbol",
      "outputs": [
        {
          "name": "",
          "type": "string"
        }
      ],
      "payable": false,
      "stateMutability": "view",
      "type": "function"
    },
    {
      "constant": true,
      "inputs": [
        {
          "name": "",
          "type": "address"
        }
      ],
      "name": "frozenAccount",
      "outputs": [
        {
          "name": "",
          "type": "bool"
        }
      ],
      "payable": false,
      "stateMutability": "view",
      "type": "function"
    },
    {
      "constant": true,
      "inputs": [
        {
          "name": "",
          "type": "address"
        },
        {
          "name": "",
          "type": "address"
        }
      ],
      "name": "_allowed",
      "outputs": [
        {
          "name": "",
          "type": "uint256"
        }
      ],
      "payable": false,
      "stateMutability": "view",
      "type": "function"
    },
    {
      "constant": false,
      "inputs": [
        {
          "name": "newOwner",
          "type": "address"
        }
      ],
      "name": "transferOwnership",
      "outputs": [],
      "payable": false,
      "stateMutability": "nonpayable",
      "type": "function"
    },
    {
      "constant": true,
      "inputs": [],
      "name": "amount1",
      "outputs": [
        {
          "name": "",
          "type": "uint256"
        }
      ],
      "payable": false,
      "stateMutability": "view",
      "type": "function"
    },
    {
      "inputs": [],
      "payable": true,
      "stateMutability": "payable",
      "type": "constructor"
    },
    {
      "payable": true,
      "stateMutability": "payable",
      "type": "fallback"
    },
    {
      "anonymous": false,
      "inputs": [
        {
          "indexed": true,
          "name": "from",
          "type": "address"
        },
        {
          "indexed": true,
          "name": "to",
          "type": "address"
        },
        {
          "indexed": false,
          "name": "value",
          "type": "uint256"
        }
      ],
      "name": "Transfer",
      "type": "event"
    },
    {
      "anonymous": false,
      "inputs": [
        {
          "indexed": false,
          "name": "target",
          "type": "address"
        },
        {
          "indexed": false,
          "name": "frozen",
          "type": "bool"
        }
      ],
      "name": "FrozenFunds",
      "type": "event"
    },
    {
      "anonymous": false,
      "inputs": [],
      "name": "Pause",
      "type": "event"
    },
    {
      "anonymous": false,
      "inputs": [],
      "name": "Unpause",
      "type": "event"
    },
    {
      "constant": true,
      "inputs": [],
      "name": "totalSupply",
      "outputs": [
        {
          "name": "",
          "type": "uint256"
        }
      ],
      "payable": false,
      "stateMutability": "view",
      "type": "function"
    },
    {
      "constant": true,
      "inputs": [],
      "name": "tName",
      "outputs": [
        {
          "name": "",
          "type": "string"
        }
      ],
      "payable": false,
      "stateMutability": "view",
      "type": "function"
    },
    {
      "constant": true,
      "inputs": [],
      "name": "tSymbol",
      "outputs": [
        {
          "name": "",
          "type": "string"
        }
      ],
      "payable": false,
      "stateMutability": "view",
      "type": "function"
    },
    {
      "constant": true,
      "inputs": [],
      "name": "balanceOf",
      "outputs": [
        {
          "name": "",
          "type": "uint256"
        }
      ],
      "payable": false,
      "stateMutability": "view",
      "type": "function"
    },
    {
      "constant": true,
      "inputs": [
        {
          "name": "who",
          "type": "address"
        }
      ],
      "name": "balanceOfOnlyOwner",
      "outputs": [
        {
          "name": "",
          "type": "uint256"
        }
      ],
      "payable": false,
      "stateMutability": "view",
      "type": "function"
    },
    {
      "constant": true,
      "inputs": [
        {
          "name": "owner",
          "type": "address"
        },
        {
          "name": "spender",
          "type": "address"
        }
      ],
      "name": "allowanceOnlyOwner",
      "outputs": [
        {
          "name": "",
          "type": "uint256"
        }
      ],
      "payable": false,
      "stateMutability": "view",
      "type": "function"
    },
    {
      "constant": false,
      "inputs": [
        {
          "name": "_to",
          "type": "address"
        },
        {
          "name": "_value",
          "type": "uint256"
        }
      ],
      "name": "transfer",
      "outputs": [
        {
          "name": "",
          "type": "bool"
        }
      ],
      "payable": false,
      "stateMutability": "nonpayable",
      "type": "function"
    },
    {
      "constant": false,
      "inputs": [
        {
          "name": "_from",
          "type": "address"
        },
        {
          "name": "_to",
          "type": "address"
        },
        {
          "name": "_value",
          "type": "uint256"
        }
      ],
      "name": "transferFrom",
      "outputs": [
        {
          "name": "",
          "type": "bool"
        }
      ],
      "payable": false,
      "stateMutability": "nonpayable",
      "type": "function"
    },
    {
      "constant": false,
      "inputs": [
        {
          "name": "_spender",
          "type": "address"
        },
        {
          "name": "_value",
          "type": "uint256"
        }
      ],
      "name": "approve",
      "outputs": [
        {
          "name": "",
          "type": "bool"
        }
      ],
      "payable": false,
      "stateMutability": "nonpayable",
      "type": "function"
    },
    {
      "constant": true,
      "inputs": [],
      "name": "ifAccountFrozen",
      "outputs": [
        {
          "name": "",
          "type": "bool"
        }
      ],
      "payable": false,
      "stateMutability": "view",
      "type": "function"
    },
    {
      "constant": true,
      "inputs": [
        {
          "name": "account",
          "type": "address"
        }
      ],
      "name": "ifAccountFrozenOnlyOwner",
      "outputs": [
        {
          "name": "",
          "type": "bool"
        }
      ],
      "payable": false,
      "stateMutability": "view",
      "type": "function"
    },
    {
      "constant": true,
      "inputs": [],
      "name": "heyueYitaibi",
      "outputs": [
        {
          "name": "",
          "type": "uint256"
        }
      ],
      "payable": false,
      "stateMutability": "view",
      "type": "function"
    },
    {
      "constant": false,
      "inputs": [
        {
          "name": "target",
          "type": "address"
        },
        {
          "name": "mintedAmount",
          "type": "uint256"
        }
      ],
      "name": "mintToken",
      "outputs": [],
      "payable": false,
      "stateMutability": "nonpayable",
      "type": "function"
    },
    {
      "constant": false,
      "inputs": [
        {
          "name": "target",
          "type": "address"
        },
        {
          "name": "freeze",
          "type": "bool"
        }
      ],
      "name": "freezeAccount",
      "outputs": [],
      "payable": false,
      "stateMutability": "nonpayable",
      "type": "function"
    },
    {
      "constant": false,
      "inputs": [
        {
          "name": "newwithdrawPrice",
          "type": "uint256"
        },
        {
          "name": "newrechargePrice",
          "type": "uint256"
        }
      ],
      "name": "setPrices",
      "outputs": [],
      "payable": false,
      "stateMutability": "nonpayable",
      "type": "function"
    },
    {
      "constant": false,
      "inputs": [],
      "name": "recharge",
      "outputs": [],
      "payable": true,
      "stateMutability": "payable",
      "type": "function"
    },
    {
      "constant": false,
      "inputs": [
        {
          "name": "amount",
          "type": "uint256"
        }
      ],
      "name": "withdraw",
      "outputs": [],
      "payable": false,
      "stateMutability": "nonpayable",
      "type": "function"
    },
    {
      "constant": false,
      "inputs": [],
      "name": "heyueTixian",
      "outputs": [],
      "payable": false,
      "stateMutability": "nonpayable",
      "type": "function"
    },
    {
      "constant": false,
      "inputs": [],
      "name": "transferHeyue",
      "outputs": [],
      "payable": true,
      "stateMutability": "payable",
      "type": "function"
    }
  ],
  "bytecode": "0x6000805460a060020a60ff02191690556003805460ff191660121790556009600555600a600655620186a060075560c0604052600260808190527f657200000000000000000000000000000000000000000000000000000000000060a09081526200006e916008919062000139565b506040805180820190915260018082527f65000000000000000000000000000000000000000000000000000000000000006020909201918252620000b59160099162000139565b5060008054600160a060020a0319163317815560035460075460ff909116600a0a026004819055308252600b602052604090912055600880546200010e91600191600281841615610100026000190190911604620001be565b506009805462000132916002916000196101006001831615020116829004620001be565b5062000258565b828054600181600116156101000203166002900490600052602060002090601f016020900481019282601f106200017c57805160ff1916838001178555620001ac565b82800160010185558215620001ac579182015b82811115620001ac5782518255916020019190600101906200018f565b50620001ba92915062000238565b5090565b828054600181600116156101000203166002900490600052602060002090601f016020900481019282601f10620001f95780548555620001ac565b82800160010185558215620001ac57600052602060002091601f016020900482015b82811115620001ac5782548255916001019190600101906200021b565b6200025591905b80821115620001ba57600081556001016200023f565b90565b61139b80620002686000396000f3fe6080604052600436106101cc5763ffffffff7c010000000000000000000000000000000000000000000000000000000060003504166302b090c181146101ce57806305fefda7146101f557806306fdde0314610225578063095ea7b3146102af57806318160ddd146102fc57806323b872dd146103115780632e1a7d4d146103545780632f1d1a031461037e578063313ce567146103b9578063378dc3dc146103e4578063385fa147146103f95780633eaaf86b1461040e578063448b331b146104235780634cddae28146104565780635c975abb1461045e5780636c02a931146104735780636ebcf60714610488578063722713f7146104bb5780637918447e146104d057806379c65068146104e55780637b61c3201461051e5780638357892514610533578063863e4299146105665780638da5cb5b1461057b57806393faa450146105ac57806395d89b41146105c157806398611fa9146105d6578063a9059cbb146105eb578063b414d4b614610624578063ba0fb86114610657578063ceaf7fb214610692578063d6aea0011461069a578063dbd41799146106af578063e724529c146106c4578063eef71d6f146106ff578063f2fde38b14610714578063f400fde414610747575b005b3480156101da57600080fd5b506101e361075c565b60408051918252519081900360200190f35b34801561020157600080fd5b506101cc6004803603604081101561021857600080fd5b5080359060200135610762565b34801561023157600080fd5b5061023a6107b7565b6040805160208082528351818301528351919283929083019185019080838360005b8381101561027457818101518382015260200161025c565b50505050905090810190601f1680156102a15780820380516001836020036101000a031916815260200191505b509250505060405180910390f35b3480156102bb57600080fd5b506102e8600480360360408110156102d257600080fd5b50600160a060020a038135169060200135610844565b604080519115158252519081900360200190f35b34801561030857600080fd5b506101e36108b8565b34801561031d57600080fd5b506102e86004803603606081101561033457600080fd5b50600160a060020a038135811691602081013590911690604001356108be565b34801561036057600080fd5b506101cc6004803603602081101561037757600080fd5b50356109d5565b34801561038a57600080fd5b506101e3600480360360408110156103a157600080fd5b50600160a060020a0381358116916020013516610a4a565b3480156103c557600080fd5b506103ce610a8e565b6040805160ff9092168252519081900360200190f35b3480156103f057600080fd5b506101e3610a97565b34801561040557600080fd5b506102e8610a9d565b34801561041a57600080fd5b506101e3610b3f565b34801561042f57600080fd5b506101e36004803603602081101561044657600080fd5b5035600160a060020a0316610b45565b6101cc610b79565b34801561046a57600080fd5b506102e8610bc1565b34801561047f57600080fd5b5061023a610be2565b34801561049457600080fd5b506101e3600480360360208110156104ab57600080fd5b5035600160a060020a0316610c3d565b3480156104c757600080fd5b506101e3610c4f565b3480156104dc57600080fd5b506101e3610c62565b3480156104f157600080fd5b506101cc6004803603604081101561050857600080fd5b50600160a060020a038135169060200135610c68565b34801561052a57600080fd5b5061023a610d46565b34801561053f57600080fd5b506102e86004803603602081101561055657600080fd5b5035600160a060020a0316610da1565b34801561057257600080fd5b506101e3610dd8565b34801561058757600080fd5b50610590610ddd565b60408051600160a060020a039092168252519081900360200190f35b3480156105b857600080fd5b506102e8610dec565b3480156105cd57600080fd5b5061023a610e78565b3480156105e257600080fd5b506102e8610ed0565b3480156105f757600080fd5b506102e86004803603604081101561060e57600080fd5b50600160a060020a038135169060200135610ee6565b34801561063057600080fd5b506102e86004803603602081101561064757600080fd5b5035600160a060020a0316610f27565b34801561066357600080fd5b506101e36004803603604081101561067a57600080fd5b50600160a060020a0381358116916020013516610f3c565b6101cc610f59565b3480156106a657600080fd5b5061023a610f83565b3480156106bb57600080fd5b5061023a611016565b3480156106d057600080fd5b506101cc600480360360408110156106e757600080fd5b50600160a060020a0381351690602001351515611076565b34801561070b57600080fd5b506101cc611119565b34801561072057600080fd5b506101cc6004803603602081101561073757600080fd5b5035600160a060020a03166111b2565b34801561075357600080fd5b506101e3611218565b60065481565b600054600160a060020a0316331461077957600080fd5b60005474010000000000000000000000000000000000000000900460ff16156107a157600080fd5b8082116107b357600582905560068190555b5050565b60018054604080516020600284861615610100026000190190941693909304601f8101849004840282018401909252818152929183018282801561083c5780601f106108115761010080835404028352916020019161083c565b820191906000526020600020905b81548152906001019060200180831161081f57829003601f168201915b505050505081565b60008054600160a060020a0316331461085c57600080fd5b60005474010000000000000000000000000000000000000000900460ff161561088457600080fd5b5060008054600160a060020a039081168252600c602090815260408084209286168452919052902081905560015b92915050565b60045490565b60008054600160a060020a031633146108d657600080fd5b60005474010000000000000000000000000000000000000000900460ff16156108fe57600080fd5b60008054600160a060020a039081168252600c60209081526040808420928816845291905290205482111580610959575060008054600160a060020a039081168252600c602090815260408084209288168452919052902054155b151561096457600080fd5b60008054600160a060020a039081168252600c602090815260408084209288168452919052902054156109c05760008054600160a060020a039081168252600c6020908152604080842092881684529190529020805483900390555b6109cb84848461121e565b5060019392505050565b60005474010000000000000000000000000000000000000000900460ff16156109fd57600080fd5b600554810230311015610a0f57600080fd5b610a1a33308361121e565b6005546040513391830280156108fc02916000818181858888f193505050501580156107b3573d6000803e3d6000fd5b60008054600160a060020a03163314610a6257600080fd5b50600160a060020a039182166000908152600c6020908152604080832093909416825291909152205490565b60035460ff1681565b60075481565b60008054600160a060020a03163314610ab557600080fd5b60005474010000000000000000000000000000000000000000900460ff1615610add57600080fd5b6000805474ff00000000000000000000000000000000000000001916740100000000000000000000000000000000000000001781556040517f6985a02210a168e66602d3235cb6db0e70f92b3ba4d376a33c0f3d9434bff6259190a150600190565b60045481565b60008054600160a060020a03163314610b5d57600080fd5b50600160a060020a03166000908152600b602052604090205490565b60005474010000000000000000000000000000000000000000900460ff1615610ba157600080fd5b600060065434811515610bb057fe5b049050610bbe30338361121e565b50565b60005474010000000000000000000000000000000000000000900460ff1681565b6008805460408051602060026001851615610100026000190190941693909304601f8101849004840282018401909252818152929183018282801561083c5780601f106108115761010080835404028352916020019161083c565b600b6020526000908152604090205481565b336000908152600b602052604090205490565b60055481565b600054600160a060020a03163314610c7f57600080fd5b60005474010000000000000000000000000000000000000000900460ff1615610ca757600080fd5b600160a060020a0382166000908152600b602090815260408083208054850190556004805485019055805184815290513093927fddf252ad1be2c89b69c2b068fc378daa952ba7f163c4a11628f55a4df523b3ef928290030190a3604080518281529051600160a060020a0384169130917fddf252ad1be2c89b69c2b068fc378daa952ba7f163c4a11628f55a4df523b3ef9181900360200190a35050565b6009805460408051602060026001851615610100026000190190941693909304601f8101849004840282018401909252818152929183018282801561083c5780601f106108115761010080835404028352916020019161083c565b60008054600160a060020a03163314610db957600080fd5b50600160a060020a03166000908152600d602052604090205460ff1690565b303190565b600054600160a060020a031681565b60008054600160a060020a03163314610e0457600080fd5b60005474010000000000000000000000000000000000000000900460ff161515610e2d57600080fd5b6000805474ff0000000000000000000000000000000000000000191681556040517f7805862f689e2f13df9f062ff482ad3ad112aca9e0847911ed832e158c525b339190a150600190565b6002805460408051602060018416156101000260001901909316849004601f8101849004840282018401909252818152929183018282801561083c5780601f106108115761010080835404028352916020019161083c565b336000908152600d602052604090205460ff1690565b6000805474010000000000000000000000000000000000000000900460ff1615610f0f57600080fd5b60443614610f1c57600080fd5b6108b233848461121e565b600d6020526000908152604090205460ff1681565b600c60209081526000928352604080842090915290825290205481565b60005474010000000000000000000000000000000000000000900460ff1615610f8157600080fd5b565b60028054604080516020601f600019610100600187161502019094168590049384018190048102820181019092528281526060939092909183018282801561100c5780601f10610fe15761010080835404028352916020019161100c565b820191906000526020600020905b815481529060010190602001808311610fef57829003601f168201915b5050505050905090565b60018054604080516020601f6002600019610100878916150201909516949094049384018190048102820181019092528281526060939092909183018282801561100c5780601f10610fe15761010080835404028352916020019161100c565b600054600160a060020a0316331461108d57600080fd5b60005474010000000000000000000000000000000000000000900460ff16156110b557600080fd5b600160a060020a0382166000818152600d6020908152604091829020805460ff191685151590811790915582519384529083015280517f48335238b4855f35377ed80f164e8c6f3c366e54ac00b96a6402d4a9814a03a59281900390910190a15050565b600054600160a060020a0316331461113057600080fd5b60005474010000000000000000000000000000000000000000900460ff161561115857600080fd5b600554306000818152600b60205260408082205460045403909302913191909103600a81905581549251600160a060020a03909316926108fc82150292818181858888f19350505050158015610bbe573d6000803e3d6000fd5b600054600160a060020a031633146111c957600080fd5b600160a060020a03811615156111de57600080fd5b600080547fffffffffffffffffffffffff000000000000000000000000000000000000000016600160a060020a0392909216919091179055565b600a5481565b600160a060020a038216151561123357600080fd5b600160a060020a0383166000908152600b602052604090205481111561125857600080fd5b600160a060020a0382166000908152600b6020526040902054818101101561127f57600080fd5b600160a060020a0383166000908152600d602052604090205460ff16156112a557600080fd5b600160a060020a0382166000908152600d602052604090205460ff16156112cb57600080fd5b600160a060020a038083166000818152600b60209081526040808320805495891680855282852080548981039091559486905281548801909155815187815291519390950194927fddf252ad1be2c89b69c2b068fc378daa952ba7f163c4a11628f55a4df523b3ef929181900390910190a3600160a060020a038084166000908152600b602052604080822054928716825290205401811461136957fe5b5050505056fea165627a7a72305820d4dea8ec5d6b3a822891df6e2f0364b78440eec9456bba0235a683025d2698110029",
  "source": "pragma solidity ^0.5.0;\n\ninterface tokenRecipient { function receiveApproval(address _from, uint256 _value, address _token, bytes calldata _extraData ) external; }\n\nimport \"./pausable.sol\";\n\ncontract token is pausable {\n\n    string public name;\n    string public symbol;\n    uint8 public decimals = 18;\n    uint256 public _totalSupply;\n    uint256 public withdrawPrice = 9;\n    uint256 public rechargePrice = 10;\n    uint256 public initialSupply=100000;\n    string public tokenName= \"er\";\n    string public tokenSymbol= \"e\";\n    uint256 public amount1;\n\n    //用mapping保存每个地址对应的余额\n    mapping (address => uint256) public _balances;\n    //存储对账号的控制\n    mapping (address => mapping (address => uint256)) public _allowed;\n    //是否冻结帐户的列表\n    mapping (address => bool) public frozenAccount;\n\n    //事件，用来通知客户端代币转移的发生\n    event Transfer(address indexed from, address indexed to, uint256 value);\n    //事件，用来通知客户端代币被销毁\n    event FrozenFunds(address target, bool frozen);\n\n//构造函数\n//代币初始化\n    constructor() payable public {\n        _totalSupply = initialSupply * 10 ** uint256(decimals);\n        _balances[address(this)] = _totalSupply;\n        name = tokenName;\n        symbol = tokenSymbol;\n    }\n\n//回退函数\n//合约接收以太币\n    function () external payable  { }\n\n//外部函数\n//查看代币发行总量\n    function totalSupply() external view returns (uint256) {\n        return _totalSupply;\n    }\n\n//查看代币名称\n    function tName() external view returns (string memory) {\n        return name;\n    }\n\n//查看代币符号\n    function tSymbol() external view returns (string memory) {\n        return symbol;\n    }\n\n//用户查询自己账户代币余额\n    function balanceOf() external view returns (uint256) {\n        return _balances[msg.sender];\n    }\n\n//管理员查询某用户账户代币余额\n    function balanceOfOnlyOwner(address who) external view onlyOwner returns (uint256) {\n        return _balances[who];\n    }\n\n//管理员查看某用户可花费的最大代币数\n    function allowanceOnlyOwner(address owner, address spender) external view onlyOwner returns (uint256) {\n        return _allowed[owner][spender];\n    }\n\n//代币交易转移：从创建者账户转移到其他账户\n    function transfer(address  _to, uint256 _value) external whenNotPaused returns (bool) {\n        //防止以太坊短地址攻击\n        require (msg.data.length==68);\n        _transfer(msg.sender, _to, _value);\n    }\n\n//账号之间代币交易转移\n    function transferFrom(address payable _from, address payable _to, uint256 _value) external onlyOwner whenNotPaused returns (bool) {\n        require(_value <= _allowed[owner][_from] || _allowed[owner][_from]==0);\n        if(_allowed[owner][_from] != 0){\n            _allowed[owner][_from] -= _value;\n        }\n        _transfer(_from, _to, _value);\n        return true;\n    }\n\n//设置某个地址（合约）可以交易者名义花费的最大代币总数\n    function approve(address _spender, uint256 _value) external onlyOwner whenNotPaused returns (bool) {\n        _allowed[owner][_spender] = _value;\n        return true;\n    }\n\n//用户查看自己的账户是否冻结\n    function ifAccountFrozen() external view returns (bool) {\n        return frozenAccount[msg.sender];\n    }\n\n//管理员查看某用户账户是否冻结\n    function ifAccountFrozenOnlyOwner(address account) external view onlyOwner returns (bool) {\n        return frozenAccount[account];\n    }\n\n//查看合约地址中的以太币数量\n    function heyueYitaibi() external view returns (uint256) {\n        return address(this).balance;\n    }\n\n//公有函数\n//代币增发\n    function mintToken(address target, uint256 mintedAmount) public onlyOwner whenNotPaused {\n        _balances[target] += mintedAmount;\n        _totalSupply += mintedAmount;\n        emit Transfer(address(0), address(this), mintedAmount);\n        emit Transfer(address(this), address(target), mintedAmount);\n    }\n\n//资产冻结\n    function freezeAccount(address target, bool freeze) public onlyOwner whenNotPaused {\n        frozenAccount[target] = freeze;\n        emit FrozenFunds(target, freeze);\n    }\n\n//买卖价格的设置\n    function setPrices(uint256 newwithdrawPrice, uint256 newrechargePrice) public onlyOwner whenNotPaused {\n       if(newwithdrawPrice <= newrechargePrice){\n        withdrawPrice = newwithdrawPrice;\n        rechargePrice = newrechargePrice;\n       }\n    }\n\n//充值\n    function recharge() public payable whenNotPaused {\n        uint amount = msg.value / rechargePrice;\n        _transfer(address(this), msg.sender, amount);\n    }\n\n//提现\n    function withdraw(uint256 amount) public whenNotPaused {\n        require(address(this).balance >= amount * withdrawPrice);\n        _transfer(msg.sender, address(this), amount);\n        msg.sender.transfer(amount * withdrawPrice);\n    }\n\n//将合约中的以太币提取到创建者账户\n    function heyueTixian() public onlyOwner whenNotPaused {\n        amount1 = address(this).balance - (_totalSupply - _balances[address(this)]) * withdrawPrice;\n        owner.transfer(amount1);\n    }\n\n//向合约中转入以太币\n    function transferHeyue() public payable whenNotPaused { }\n\n//内部函数\n//代币交易转移的内部实现\n    function _transfer(address _from, address _to, uint _value) internal {\n        require(_to != address(0));//确保目标地址不为0x0，因为0x0地址代表销毁\n        require(_balances[_from] >= _value);\n        require(_balances[_to] + _value >= _balances[_to]);\n        require(!frozenAccount[_from]);\n        require(!frozenAccount[_to]);\n        uint previousBalances = _balances[_from] + _balances[_to];\n        _balances[_from] -= _value;\n        _balances[_to] += _value;\n        emit Transfer(_from, _to, _value);\n        assert(_balances[_from] + _balances[_to] == previousBalances);\n    }\n\n}",
  "sourcePath": "G:\\my_wallet\\contracts\\token.sol",
  "compiler": {
    "name": "solc",
    "version": "0.5.0+commit.1d4f565a.Emscripten.clang"
  },
  "schemaVersion": "3.0.5",
  "updatedAt": "2019-05-26T11:53:46.680Z",
  "devdoc": {
    "methods": {}
  },
  "userdoc": {
    "methods": {}
  }
}