{
  "contractName": "transaction",
  "abi": [
    {
      "constant": true,
      "inputs": [],
      "name": "rechargePrice",
      "outputs": [
        {
          "name": "",
          "type": "uint256"
        }
      ],
      "payable": false,
      "stateMutability": "view",
      "type": "function"
    },
    {
      "constant": false,
      "inputs": [
        {
          "name": "newwithdrawPrice",
          "type": "uint256"
        },
        {
          "name": "newrechargePrice",
          "type": "uint256"
        }
      ],
      "name": "setPrices",
      "outputs": [],
      "payable": false,
      "stateMutability": "nonpayable",
      "type": "function"
    },
    {
      "constant": true,
      "inputs": [],
      "name": "name",
      "outputs": [
        {
          "name": "",
          "type": "string"
        }
      ],
      "payable": false,
      "stateMutability": "view",
      "type": "function"
    },
    {
      "constant": false,
      "inputs": [
        {
          "name": "_spender",
          "type": "address"
        },
        {
          "name": "_value",
          "type": "uint256"
        }
      ],
      "name": "approve",
      "outputs": [
        {
          "name": "",
          "type": "bool"
        }
      ],
      "payable": false,
      "stateMutability": "nonpayable",
      "type": "function"
    },
    {
      "constant": true,
      "inputs": [],
      "name": "totalSupply",
      "outputs": [
        {
          "name": "",
          "type": "uint256"
        }
      ],
      "payable": false,
      "stateMutability": "view",
      "type": "function"
    },
    {
      "constant": false,
      "inputs": [
        {
          "name": "_from",
          "type": "address"
        },
        {
          "name": "_to",
          "type": "address"
        },
        {
          "name": "_value",
          "type": "uint256"
        }
      ],
      "name": "transferFrom",
      "outputs": [
        {
          "name": "",
          "type": "bool"
        }
      ],
      "payable": false,
      "stateMutability": "nonpayable",
      "type": "function"
    },
    {
      "constant": false,
      "inputs": [
        {
          "name": "amount",
          "type": "uint256"
        }
      ],
      "name": "withdraw",
      "outputs": [],
      "payable": false,
      "stateMutability": "nonpayable",
      "type": "function"
    },
    {
      "constant": true,
      "inputs": [
        {
          "name": "owner",
          "type": "address"
        },
        {
          "name": "spender",
          "type": "address"
        }
      ],
      "name": "allowanceOnlyOwner",
      "outputs": [
        {
          "name": "",
          "type": "uint256"
        }
      ],
      "payable": false,
      "stateMutability": "view",
      "type": "function"
    },
    {
      "constant": true,
      "inputs": [],
      "name": "decimals",
      "outputs": [
        {
          "name": "",
          "type": "uint8"
        }
      ],
      "payable": false,
      "stateMutability": "view",
      "type": "function"
    },
    {
      "constant": true,
      "inputs": [],
      "name": "initialSupply",
      "outputs": [
        {
          "name": "",
          "type": "uint256"
        }
      ],
      "payable": false,
      "stateMutability": "view",
      "type": "function"
    },
    {
      "constant": false,
      "inputs": [],
      "name": "pauseTransaction",
      "outputs": [
        {
          "name": "",
          "type": "bool"
        }
      ],
      "payable": false,
      "stateMutability": "nonpayable",
      "type": "function"
    },
    {
      "constant": true,
      "inputs": [],
      "name": "_totalSupply",
      "outputs": [
        {
          "name": "",
          "type": "uint256"
        }
      ],
      "payable": false,
      "stateMutability": "view",
      "type": "function"
    },
    {
      "constant": true,
      "inputs": [
        {
          "name": "who",
          "type": "address"
        }
      ],
      "name": "balanceOfOnlyOwner",
      "outputs": [
        {
          "name": "",
          "type": "uint256"
        }
      ],
      "payable": false,
      "stateMutability": "view",
      "type": "function"
    },
    {
      "constant": false,
      "inputs": [],
      "name": "recharge",
      "outputs": [],
      "payable": true,
      "stateMutability": "payable",
      "type": "function"
    },
    {
      "constant": true,
      "inputs": [],
      "name": "paused",
      "outputs": [
        {
          "name": "",
          "type": "bool"
        }
      ],
      "payable": false,
      "stateMutability": "view",
      "type": "function"
    },
    {
      "constant": true,
      "inputs": [],
      "name": "tokenName",
      "outputs": [
        {
          "name": "",
          "type": "string"
        }
      ],
      "payable": false,
      "stateMutability": "view",
      "type": "function"
    },
    {
      "constant": true,
      "inputs": [
        {
          "name": "",
          "type": "address"
        }
      ],
      "name": "_balances",
      "outputs": [
        {
          "name": "",
          "type": "uint256"
        }
      ],
      "payable": false,
      "stateMutability": "view",
      "type": "function"
    },
    {
      "constant": true,
      "inputs": [],
      "name": "balanceOf",
      "outputs": [
        {
          "name": "",
          "type": "uint256"
        }
      ],
      "payable": false,
      "stateMutability": "view",
      "type": "function"
    },
    {
      "constant": true,
      "inputs": [],
      "name": "withdrawPrice",
      "outputs": [
        {
          "name": "",
          "type": "uint256"
        }
      ],
      "payable": false,
      "stateMutability": "view",
      "type": "function"
    },
    {
      "constant": false,
      "inputs": [
        {
          "name": "target",
          "type": "address"
        },
        {
          "name": "mintedAmount",
          "type": "uint256"
        }
      ],
      "name": "mintToken",
      "outputs": [],
      "payable": false,
      "stateMutability": "nonpayable",
      "type": "function"
    },
    {
      "constant": true,
      "inputs": [],
      "name": "tokenSymbol",
      "outputs": [
        {
          "name": "",
          "type": "string"
        }
      ],
      "payable": false,
      "stateMutability": "view",
      "type": "function"
    },
    {
      "constant": true,
      "inputs": [
        {
          "name": "account",
          "type": "address"
        }
      ],
      "name": "ifAccountFrozenOnlyOwner",
      "outputs": [
        {
          "name": "",
          "type": "bool"
        }
      ],
      "payable": false,
      "stateMutability": "view",
      "type": "function"
    },
    {
      "constant": true,
      "inputs": [],
      "name": "heyueYitaibi",
      "outputs": [
        {
          "name": "",
          "type": "uint256"
        }
      ],
      "payable": false,
      "stateMutability": "view",
      "type": "function"
    },
    {
      "constant": true,
      "inputs": [],
      "name": "owner",
      "outputs": [
        {
          "name": "",
          "type": "address"
        }
      ],
      "payable": false,
      "stateMutability": "view",
      "type": "function"
    },
    {
      "constant": false,
      "inputs": [],
      "name": "unpauseTransaction",
      "outputs": [
        {
          "name": "",
          "type": "bool"
        }
      ],
      "payable": false,
      "stateMutability": "nonpayable",
      "type": "function"
    },
    {
      "constant": true,
      "inputs": [],
      "name": "symbol",
      "outputs": [
        {
          "name": "",
          "type": "string"
        }
      ],
      "payable": false,
      "stateMutability": "view",
      "type": "function"
    },
    {
      "constant": true,
      "inputs": [],
      "name": "ifAccountFrozen",
      "outputs": [
        {
          "name": "",
          "type": "bool"
        }
      ],
      "payable": false,
      "stateMutability": "view",
      "type": "function"
    },
    {
      "constant": false,
      "inputs": [
        {
          "name": "_to",
          "type": "address"
        },
        {
          "name": "_value",
          "type": "uint256"
        }
      ],
      "name": "transfer",
      "outputs": [
        {
          "name": "",
          "type": "bool"
        }
      ],
      "payable": false,
      "stateMutability": "nonpayable",
      "type": "function"
    },
    {
      "constant": true,
      "inputs": [
        {
          "name": "",
          "type": "address"
        }
      ],
      "name": "frozenAccount",
      "outputs": [
        {
          "name": "",
          "type": "bool"
        }
      ],
      "payable": false,
      "stateMutability": "view",
      "type": "function"
    },
    {
      "constant": true,
      "inputs": [
        {
          "name": "",
          "type": "address"
        },
        {
          "name": "",
          "type": "address"
        }
      ],
      "name": "_allowed",
      "outputs": [
        {
          "name": "",
          "type": "uint256"
        }
      ],
      "payable": false,
      "stateMutability": "view",
      "type": "function"
    },
    {
      "constant": false,
      "inputs": [],
      "name": "transferHeyue",
      "outputs": [],
      "payable": true,
      "stateMutability": "payable",
      "type": "function"
    },
    {
      "constant": true,
      "inputs": [],
      "name": "tSymbol",
      "outputs": [
        {
          "name": "",
          "type": "string"
        }
      ],
      "payable": false,
      "stateMutability": "view",
      "type": "function"
    },
    {
      "constant": true,
      "inputs": [],
      "name": "tName",
      "outputs": [
        {
          "name": "",
          "type": "string"
        }
      ],
      "payable": false,
      "stateMutability": "view",
      "type": "function"
    },
    {
      "constant": false,
      "inputs": [
        {
          "name": "target",
          "type": "address"
        },
        {
          "name": "freeze",
          "type": "bool"
        }
      ],
      "name": "freezeAccount",
      "outputs": [],
      "payable": false,
      "stateMutability": "nonpayable",
      "type": "function"
    },
    {
      "constant": false,
      "inputs": [],
      "name": "heyueTixian",
      "outputs": [],
      "payable": false,
      "stateMutability": "nonpayable",
      "type": "function"
    },
    {
      "constant": false,
      "inputs": [
        {
          "name": "newOwner",
          "type": "address"
        }
      ],
      "name": "transferOwnership",
      "outputs": [],
      "payable": false,
      "stateMutability": "nonpayable",
      "type": "function"
    },
    {
      "constant": true,
      "inputs": [],
      "name": "amount1",
      "outputs": [
        {
          "name": "",
          "type": "uint256"
        }
      ],
      "payable": false,
      "stateMutability": "view",
      "type": "function"
    },
    {
      "payable": true,
      "stateMutability": "payable",
      "type": "fallback"
    },
    {
      "anonymous": false,
      "inputs": [
        {
          "indexed": false,
          "name": "target",
          "type": "address"
        },
        {
          "indexed": false,
          "name": "success",
          "type": "bool"
        }
      ],
      "name": "SuccessFunds",
      "type": "event"
    },
    {
      "anonymous": false,
      "inputs": [
        {
          "indexed": true,
          "name": "from",
          "type": "address"
        },
        {
          "indexed": true,
          "name": "to",
          "type": "address"
        },
        {
          "indexed": false,
          "name": "value",
          "type": "uint256"
        }
      ],
      "name": "Transfer",
      "type": "event"
    },
    {
      "anonymous": false,
      "inputs": [
        {
          "indexed": false,
          "name": "target",
          "type": "address"
        },
        {
          "indexed": false,
          "name": "frozen",
          "type": "bool"
        }
      ],
      "name": "FrozenFunds",
      "type": "event"
    },
    {
      "anonymous": false,
      "inputs": [],
      "name": "Pause",
      "type": "event"
    },
    {
      "anonymous": false,
      "inputs": [],
      "name": "Unpause",
      "type": "event"
    },
    {
      "constant": true,
      "inputs": [],
      "name": "Lastbuytime",
      "outputs": [
        {
          "name": "",
          "type": "uint256"
        }
      ],
      "payable": false,
      "stateMutability": "view",
      "type": "function"
    },
    {
      "constant": true,
      "inputs": [
        {
          "name": "who",
          "type": "address"
        }
      ],
      "name": "LastbuytimeOnlyOwner",
      "outputs": [
        {
          "name": "",
          "type": "uint256"
        }
      ],
      "payable": false,
      "stateMutability": "view",
      "type": "function"
    },
    {
      "constant": true,
      "inputs": [
        {
          "name": "i",
          "type": "uint256"
        }
      ],
      "name": "contributionvalue",
      "outputs": [
        {
          "name": "",
          "type": "uint256"
        }
      ],
      "payable": false,
      "stateMutability": "view",
      "type": "function"
    },
    {
      "constant": true,
      "inputs": [
        {
          "name": "who",
          "type": "address"
        },
        {
          "name": "i",
          "type": "uint256"
        }
      ],
      "name": "contributionvalueOnlyOwner",
      "outputs": [
        {
          "name": "",
          "type": "uint256"
        }
      ],
      "payable": false,
      "stateMutability": "view",
      "type": "function"
    },
    {
      "constant": true,
      "inputs": [
        {
          "name": "i",
          "type": "uint256"
        }
      ],
      "name": "TotalbuyerpaymenORsellercollection",
      "outputs": [
        {
          "name": "",
          "type": "uint256"
        }
      ],
      "payable": false,
      "stateMutability": "view",
      "type": "function"
    },
    {
      "constant": true,
      "inputs": [
        {
          "name": "who",
          "type": "address"
        },
        {
          "name": "i",
          "type": "uint256"
        }
      ],
      "name": "TotalbuyerpaymenORsellercollectionOnlyOwner",
      "outputs": [
        {
          "name": "",
          "type": "uint256"
        }
      ],
      "payable": false,
      "stateMutability": "view",
      "type": "function"
    },
    {
      "constant": true,
      "inputs": [
        {
          "name": "i",
          "type": "uint256"
        }
      ],
      "name": "Sellercredit",
      "outputs": [
        {
          "name": "",
          "type": "uint256"
        }
      ],
      "payable": false,
      "stateMutability": "view",
      "type": "function"
    },
    {
      "constant": true,
      "inputs": [
        {
          "name": "who",
          "type": "address"
        },
        {
          "name": "i",
          "type": "uint256"
        }
      ],
      "name": "SellercreditOnlyOwner",
      "outputs": [
        {
          "name": "",
          "type": "uint256"
        }
      ],
      "payable": false,
      "stateMutability": "view",
      "type": "function"
    },
    {
      "constant": false,
      "inputs": [
        {
          "name": "newfeeProportion",
          "type": "uint256"
        },
        {
          "name": "newcommissionProportion",
          "type": "uint256"
        }
      ],
      "name": "setProportion",
      "outputs": [],
      "payable": false,
      "stateMutability": "nonpayable",
      "type": "function"
    },
    {
      "constant": false,
      "inputs": [
        {
          "name": "_to",
          "type": "address"
        },
        {
          "name": "totalprice",
          "type": "uint256"
        },
        {
          "name": "_from",
          "type": "address"
        }
      ],
      "name": "beforeDataTransaction",
      "outputs": [],
      "payable": false,
      "stateMutability": "nonpayable",
      "type": "function"
    },
    {
      "constant": false,
      "inputs": [
        {
          "name": "_from",
          "type": "address"
        },
        {
          "name": "_to",
          "type": "address"
        },
        {
          "name": "totalprice",
          "type": "uint256"
        },
        {
          "name": "buyergrade",
          "type": "uint8"
        }
      ],
      "name": "afterDataTransaction",
      "outputs": [],
      "payable": false,
      "stateMutability": "nonpayable",
      "type": "function"
    },
    {
      "constant": false,
      "inputs": [
        {
          "name": "_from",
          "type": "address"
        },
        {
          "name": "_to",
          "type": "address"
        },
        {
          "name": "totalprice",
          "type": "uint256"
        }
      ],
      "name": "dataTransactionRefund",
      "outputs": [],
      "payable": false,
      "stateMutability": "nonpayable",
      "type": "function"
    },
    {
      "constant": false,
      "inputs": [
        {
          "name": "addressNumber",
          "type": "uint256"
        },
        {
          "name": "value",
          "type": "uint256"
        },
        {
          "name": "_from",
          "type": "address"
        }
      ],
      "name": "beforeRealTimeTransaction",
      "outputs": [],
      "payable": false,
      "stateMutability": "nonpayable",
      "type": "function"
    },
    {
      "constant": false,
      "inputs": [
        {
          "name": "addressNumber",
          "type": "uint256"
        },
        {
          "name": "_from",
          "type": "address"
        },
        {
          "name": "_to",
          "type": "address[]"
        },
        {
          "name": "value",
          "type": "uint256"
        },
        {
          "name": "buyergrade",
          "type": "uint8"
        }
      ],
      "name": "afterRealTimeTransaction",
      "outputs": [],
      "payable": false,
      "stateMutability": "nonpayable",
      "type": "function"
    },
    {
      "constant": false,
      "inputs": [
        {
          "name": "_from",
          "type": "address"
        },
        {
          "name": "_to",
          "type": "address[]"
        },
        {
          "name": "value",
          "type": "uint256"
        }
      ],
      "name": "realTimeTransactionRefund",
      "outputs": [],
      "payable": false,
      "stateMutability": "nonpayable",
      "type": "function"
    }
  ],
  "bytecode": "0x6000805460a060020a60ff02191690556003805460ff191660121790556009600555600a600655620186a060075560c0604052600260808190527f657200000000000000000000000000000000000000000000000000000000000060a09081526200006e916008919062000144565b506040805180820190915260018082527f65000000000000000000000000000000000000000000000000000000000000006020909201918252620000b59160099162000144565b506103e86019556064601a5560008054600160a060020a0319163317815560035460075460ff909116600a0a026004819055308252600b602052604090912055600880546200011991600191600281841615610100026000190190911604620001c9565b50600980546200013d916002916000196101006001831615020116829004620001c9565b5062000263565b828054600181600116156101000203166002900490600052602060002090601f016020900481019282601f106200018757805160ff1916838001178555620001b7565b82800160010185558215620001b7579182015b82811115620001b75782518255916020019190600101906200019a565b50620001c592915062000243565b5090565b828054600181600116156101000203166002900490600052602060002090601f016020900481019282601f10620002045780548555620001b7565b82800160010185558215620001b757600052602060002091601f016020900482015b82811115620001b757825482559160010191906001019062000226565b6200026091905b80821115620001c557600081556001016200024a565b90565b612f3180620002736000396000f3fe6080604052600436106102715763ffffffff7c010000000000000000000000000000000000000000000000000000000060003504166302b090c1811461027357806304a85dfa1461029a57806305fefda71461035c57806306fdde031461038c578063095ea7b314610416578063156660131461046357806318160ddd146104a25780631ee71c71146104b757806323b872dd14610504578063286ad860146105475780632e1a7d4d1461057a5780632f15ce7e146105a45780632f1d1a03146105ce578063313ce56714610609578063378dc3dc14610634578063385fa147146106495780633eaaf86b1461065e578063448b331b146106735780634cddae28146106a65780635c975abb146106ae5780636c02a931146106c35780636c982561146106d85780636ebcf60714610711578063722713f7146107445780637918447e1461075957806379c650681461076e5780637b61c320146107a75780637c28248c146107bc57806383578925146107ff578063863e4299146108325780638da5cb5b1461084757806391bbf4341461087857806392fb7174146108a857806393faa450146108bd57806395d89b41146108d257806398611fa9146108e75780639bab5e49146108fc578063a9059cbb1461093f578063b414d4b614610978578063ba0fb861146109ab578063c2d6a0b3146109e6578063cea601e614610a10578063ceaf7fb214610a49578063d59f70be14610a51578063d6aea00114610a7b578063dbd4179914610a90578063e724529c14610aa5578063eef71d6f14610ae0578063f2fde38b14610af5578063f400fde414610b28578063f569c68414610b3d578063fdb38bcd14610c0a575b005b34801561027f57600080fd5b50610288610c43565b60408051918252519081900360200190f35b3480156102a657600080fd5b50610271600480360360608110156102bd57600080fd5b600160a060020a0382351691908101906040810160208201356401000000008111156102e857600080fd5b8201836020820111156102fa57600080fd5b8035906020019184602083028401116401000000008311171561031c57600080fd5b9190808060200260200160405190810160405280939291908181526020018383602002808284376000920191909152509295505091359250610c49915050565b34801561036857600080fd5b506102716004803603604081101561037f57600080fd5b5080359060200135610d01565b34801561039857600080fd5b506103a1610d45565b6040805160208082528351818301528351919283929083019185019080838360005b838110156103db5781810151838201526020016103c3565b50505050905090810190601f1680156104085780820380516001836020036101000a031916815260200191505b509250505060405180910390f35b34801561042257600080fd5b5061044f6004803603604081101561043957600080fd5b50600160a060020a038135169060200135610dd2565b604080519115158252519081900360200190f35b34801561046f57600080fd5b506102716004803603606081101561048657600080fd5b5080359060208101359060400135600160a060020a0316610e35565b3480156104ae57600080fd5b50610288610edf565b3480156104c357600080fd5b50610271600480360360808110156104da57600080fd5b508035600160a060020a03908116916020810135909116906040810135906060013560ff16610ee5565b34801561051057600080fd5b5061044f6004803603606081101561052757600080fd5b50600160a060020a03813581169160208101359091169060400135610f9e565b34801561055357600080fd5b506102886004803603602081101561056a57600080fd5b5035600160a060020a03166110a4565b34801561058657600080fd5b506102716004803603602081101561059d57600080fd5b50356110db565b3480156105b057600080fd5b50610288600480360360208110156105c757600080fd5b503561113f565b3480156105da57600080fd5b50610288600480360360408110156105f157600080fd5b50600160a060020a038135811691602001351661117f565b34801561061557600080fd5b5061061e6111c3565b6040805160ff9092168252519081900360200190f35b34801561064057600080fd5b506102886111cc565b34801561065557600080fd5b5061044f6111d2565b34801561066a57600080fd5b50610288611252565b34801561067f57600080fd5b506102886004803603602081101561069657600080fd5b5035600160a060020a0316611258565b61027161128c565b3480156106ba57600080fd5b5061044f6112c3565b3480156106cf57600080fd5b506103a16112d3565b3480156106e457600080fd5b50610288600480360360408110156106fb57600080fd5b50600160a060020a03813516906020013561132e565b34801561071d57600080fd5b506102886004803603602081101561073457600080fd5b5035600160a060020a0316611396565b34801561075057600080fd5b506102886113a8565b34801561076557600080fd5b506102886113bb565b34801561077a57600080fd5b506102716004803603604081101561079157600080fd5b50600160a060020a0381351690602001356113c1565b3480156107b357600080fd5b506103a161148e565b3480156107c857600080fd5b50610271600480360360608110156107df57600080fd5b50600160a060020a038135811691602081013590911690604001356114e9565b34801561080b57600080fd5b5061044f6004803603602081101561082257600080fd5b5035600160a060020a031661153e565b34801561083e57600080fd5b50610288611575565b34801561085357600080fd5b5061085c61157a565b60408051600160a060020a039092168252519081900360200190f35b34801561088457600080fd5b506102716004803603604081101561089b57600080fd5b5080359060200135611589565b3480156108b457600080fd5b506102886115c2565b3480156108c957600080fd5b5061044f6115d4565b3480156108de57600080fd5b506103a161164f565b3480156108f357600080fd5b5061044f6116a7565b34801561090857600080fd5b506102716004803603606081101561091f57600080fd5b50600160a060020a038135811691602081013591604090910135166116bd565b34801561094b57600080fd5b5061044f6004803603604081101561096257600080fd5b50600160a060020a038135169060200135611729565b34801561098457600080fd5b5061044f6004803603602081101561099b57600080fd5b5035600160a060020a0316611759565b3480156109b757600080fd5b50610288600480360360408110156109ce57600080fd5b50600160a060020a038135811691602001351661176e565b3480156109f257600080fd5b5061028860048036036020811015610a0957600080fd5b503561178b565b348015610a1c57600080fd5b5061028860048036036040811015610a3357600080fd5b50600160a060020a0381351690602001356117c2565b61027161181b565b348015610a5d57600080fd5b5061028860048036036020811015610a7457600080fd5b5035611834565b348015610a8757600080fd5b506103a1611874565b348015610a9c57600080fd5b506103a1611907565b348015610ab157600080fd5b5061027160048036036040811015610ac857600080fd5b50600160a060020a0381351690602001351515611967565b348015610aec57600080fd5b506102716119f9565b348015610b0157600080fd5b5061027160048036036020811015610b1857600080fd5b5035600160a060020a0316611a81565b348015610b3457600080fd5b50610288611ae7565b348015610b4957600080fd5b50610271600480360360a0811015610b6057600080fd5b813591600160a060020a0360208201351691810190606081016040820135640100000000811115610b9057600080fd5b820183602082011115610ba257600080fd5b80359060200191846020830284011164010000000083111715610bc457600080fd5b919080806020026020016040519081016040528093929190818152602001838360200280828437600092019190915250929550508235935050506020013560ff16611aed565b348015610c1657600080fd5b5061028860048036036040811015610c2d57600080fd5b50600160a060020a038135169060200135611d71565b60065481565b60005460a060020a900460ff1615610c6057600080fd5b81518102601b819055610c7290611dd9565b601681905550610c853084601654611e26565b60005b8251811015610cfb57610cb38382815181101515610ca257fe5b906020019060200201516001611f71565b610cd38382815181101515610cc457fe5b9060200190602002015161200b565b610cf38382815181101515610ce457fe5b906020019060200201516121db565b600101610c88565b50505050565b600054600160a060020a03163314610d1857600080fd5b60005460a060020a900460ff1615610d2f57600080fd5b808211610d4157600582905560068190555b5050565b60018054604080516020600284861615610100026000190190941693909304601f81018490048402820184019092528181529291830182828015610dca5780601f10610d9f57610100808354040283529160200191610dca565b820191906000526020600020905b815481529060010190602001808311610dad57829003601f168201915b505050505081565b60008054600160a060020a03163314610dea57600080fd5b60005460a060020a900460ff1615610e0157600080fd5b5060008054600160a060020a039081168252600c602090815260408084209286168452919052902081905560015b92915050565b60005460a060020a900460ff1615610e4c57600080fd5b600160a060020a0381166000908152600d602052604090205460ff1615610e7257600080fd5b828202601b819055610e8390611dd9565b601681905550610e968130601654611e26565b60408051600160a060020a03831681526001602082015281517f4656763aeb5076063b1b9201e728e03b650c4e545b46330125af5d01c01fae56929181900390910190a1505050565b60045490565b60005460a060020a900460ff1615610efc57600080fd5b610f05826123aa565b601755610f1282846123f8565b6017805490910190819055610f2a9030908590611e26565b610f35828583612729565b601381905550610f483085601354611e26565b610f5484836001612a1a565b610f6083836002612a1a565b610f6c84836001612a8e565b610f7883836002612a8e565b610f83836002611f71565b610f8c836121db565b610f958361200b565b610cfb84612af9565b60008054600160a060020a03163314610fb657600080fd5b60005460a060020a900460ff1615610fcd57600080fd5b60008054600160a060020a039081168252600c60209081526040808420928816845291905290205482111580611028575060008054600160a060020a039081168252600c602090815260408084209288168452919052902054155b151561103357600080fd5b60008054600160a060020a039081168252600c6020908152604080842092881684529190529020541561108f5760008054600160a060020a039081168252600c6020908152604080842092881684529190529020805483900390555b61109a848484611e26565b5060019392505050565b60008054600160a060020a031633146110bc57600080fd5b50600160a060020a03811660009081526020805260409020545b919050565b60005460a060020a900460ff16156110f257600080fd5b60055481023031101561110457600080fd5b61110f333083611e26565b6005546040513391830280156108fc02916000818181858888f19350505050158015610d41573d6000803e3d6000fd5b600081600114156111605750336000908152602260205260409020546110d6565b81600214156110d65750336000908152602360205260409020546110d6565b60008054600160a060020a0316331461119757600080fd5b50600160a060020a039182166000908152600c6020908152604080832093909416825291909152205490565b60035460ff1681565b60075481565b60008054600160a060020a031633146111ea57600080fd5b60005460a060020a900460ff161561120157600080fd5b6000805474ff0000000000000000000000000000000000000000191660a060020a1781556040517f6985a02210a168e66602d3235cb6db0e70f92b3ba4d376a33c0f3d9434bff6259190a150600190565b60045481565b60008054600160a060020a0316331461127057600080fd5b50600160a060020a03166000908152600b602052604090205490565b60005460a060020a900460ff16156112a357600080fd5b6000600654348115156112b257fe5b0490506112c0303383611e26565b50565b60005460a060020a900460ff1681565b6008805460408051602060026001851615610100026000190190941693909304601f81018490048402820184019092528181529291830182828015610dca5780601f10610d9f57610100808354040283529160200191610dca565b60008054600160a060020a0316331461134657600080fd5b816001141561136e5750600160a060020a0382166000908152601e6020526040902054610e2f565b8160021415610e2f5750600160a060020a0382166000908152601f6020526040902054610e2f565b600b6020526000908152604090205481565b336000908152600b602052604090205490565b60055481565b600054600160a060020a031633146113d857600080fd5b60005460a060020a900460ff16156113ef57600080fd5b600160a060020a0382166000908152600b602090815260408083208054850190556004805485019055805184815290513093927fddf252ad1be2c89b69c2b068fc378daa952ba7f163c4a11628f55a4df523b3ef928290030190a3604080518281529051600160a060020a0384169130917fddf252ad1be2c89b69c2b068fc378daa952ba7f163c4a11628f55a4df523b3ef9181900360200190a35050565b6009805460408051602060026001851615610100026000190190941693909304601f81018490048402820184019092528181529291830182828015610dca5780601f10610d9f57610100808354040283529160200191610dca565b60005460a060020a900460ff161561150057600080fd5b61150981611dd9565b60168190555061151c3084601654611e26565b611527826001611f71565b6115308261200b565b611539826121db565b505050565b60008054600160a060020a0316331461155657600080fd5b50600160a060020a03166000908152600d602052604090205460ff1690565b303190565b600054600160a060020a031681565b600054600160a060020a031633146115a057600080fd5b60005460a060020a900460ff16156115b757600080fd5b601991909155601a55565b33600090815260208052604090205490565b60008054600160a060020a031633146115ec57600080fd5b60005460a060020a900460ff16151561160457600080fd5b6000805474ff0000000000000000000000000000000000000000191681556040517f7805862f689e2f13df9f062ff482ad3ad112aca9e0847911ed832e158c525b339190a150600190565b6002805460408051602060018416156101000260001901909316849004601f81018490048402820184019092528181529291830182828015610dca5780601f10610d9f57610100808354040283529160200191610dca565b336000908152600d602052604090205460ff1690565b60005460a060020a900460ff16156116d457600080fd5b600160a060020a0381166000908152600d602052604090205460ff16156116fa57600080fd5b600160a060020a0383166000908152600d602052604090205460ff161561172057600080fd5b610e8382611dd9565b6000805460a060020a900460ff161561174157600080fd5b6044361461174e57600080fd5b610e2f338484611e26565b600d6020526000908152604090205460ff1681565b600c60209081526000928352604080842090915290825290205481565b33600090815260216020526040812082600381106117a557fe5b602081049091015460ff601f9092166101000a9004169050919050565b60008054600160a060020a031633146117da57600080fd5b600160a060020a038316600090815260216020526040902082600381106117fd57fe5b602081049091015460ff601f9092166101000a900416905092915050565b60005460a060020a900460ff161561183257600080fd5b565b600081600114156118555750336000908152601e60205260409020546110d6565b81600214156110d65750336000908152601f60205260409020546110d6565b60028054604080516020601f60001961010060018716150201909416859004938401819004810282018101909252828152606093909290918301828280156118fd5780601f106118d2576101008083540402835291602001916118fd565b820191906000526020600020905b8154815290600101906020018083116118e057829003601f168201915b5050505050905090565b60018054604080516020601f600260001961010087891615020190951694909404938401819004810282018101909252828152606093909290918301828280156118fd5780601f106118d2576101008083540402835291602001916118fd565b600054600160a060020a0316331461197e57600080fd5b60005460a060020a900460ff161561199557600080fd5b600160a060020a0382166000818152600d6020908152604091829020805460ff191685151590811790915582519384529083015280517f48335238b4855f35377ed80f164e8c6f3c366e54ac00b96a6402d4a9814a03a59281900390910190a15050565b600054600160a060020a03163314611a1057600080fd5b60005460a060020a900460ff1615611a2757600080fd5b600554306000818152600b60205260408082205460045403909302913191909103600a81905581549251600160a060020a03909316926108fc82150292818181858888f193505050501580156112c0573d6000803e3d6000fd5b600054600160a060020a03163314611a9857600080fd5b600160a060020a0381161515611aad57600080fd5b600080547fffffffffffffffffffffffff000000000000000000000000000000000000000016600160a060020a0392909216919091179055565b600a5481565b60005460a060020a900460ff1615611b0457600080fd5b8483511415611c525760005b8351811015611c0957611b22836123aa565b6017558351611b48908490869084908110611b3957fe5b906020019060200201516123f8565b6017805490910190558351611b77903090869084908110611b6557fe5b90602001906020020151601754611e26565b611b9a8482815181101515611b8857fe5b90602001906020020151846002612a1a565b611bbd8482815181101515611bab57fe5b90602001906020020151846002612a8e565b611bdf8482815181101515611bce57fe5b906020019060200201516002611f71565b611bf08482815181101515610ce457fe5b611c018482815181101515610cc457fe5b600101611b10565b50611c18835183028583612729565b601381905550611c2b3085601354611e26565b611c3a84845184026001612a1a565b611c4984845184026001612a8e565b611c5284612af9565b8483511015611d6a5760005b8351811015611d0157611c70836123aa565b6017558351611c87908490869084908110611b3957fe5b6017805490910190558351611ca4903090869084908110611b6557fe5b611cb58482815181101515611b8857fe5b611cc68482815181101515611bab57fe5b611cd78482815181101515611bce57fe5b611ce88482815181101515610ce457fe5b611cf98482815181101515610cc457fe5b600101611c5e565b50611d10835183028583612729565b6013558251611d20908302611dd9565b611d2b838702611dd9565b03601c81905550611d433085601c5460135401611e26565b611d5284845184026001612a1a565b611d6184845184026001612a8e565b611d6a84612af9565b5050505050565b60008054600160a060020a03163314611d8957600080fd5b8160011415611db15750600160a060020a038216600090815260226020526040902054610e2f565b8160021415610e2f5750600160a060020a038216600090815260236020526040902054610e2f565b6000805460a060020a900460ff1615611df157600080fd5b60195482811515611dfe57fe5b04601581905515611e16576015548201601655611e1e565b600182016016555b505060165490565b600160a060020a0382161515611e3b57600080fd5b600160a060020a0383166000908152600b6020526040902054811115611e6057600080fd5b600160a060020a0382166000908152600b60205260409020548181011015611e8757600080fd5b600160a060020a0383166000908152600d602052604090205460ff1615611ead57600080fd5b600160a060020a0382166000908152600d602052604090205460ff1615611ed357600080fd5b600160a060020a038083166000818152600b60209081526040808320805495891680855282852080548981039091559486905281548801909155815187815291519390950194927fddf252ad1be2c89b69c2b068fc378daa952ba7f163c4a11628f55a4df523b3ef929181900390910190a3600160a060020a038084166000908152600b6020526040808220549287168252902054018114610cfb57fe5b60005460a060020a900460ff1615611f8857600080fd5b8060011415611fc857600160a060020a0382166000908152602160205260409020805461ff001981166101009182900460ff908116600101169091021790555b8060021415610d415750600160a060020a03166000908152602160205260409020805462ff0000198116620100009182900460ff90811660010116909102179055565b60005460a060020a900460ff161561202257600080fd5b600160a060020a038116600090815260216020526040902054610100900460ff16600a14156120e357600160a060020a03811660009081526021602052604081205460ff1611156120a057600160a060020a0381166000908152602160205260409020805460ff808216600019011660ff199091161761ff00191690555b600160a060020a03811660009081526021602052604090205460ff1615156120e357600160a060020a0381166000908152602160205260409020805460ff191690555b600160a060020a038116600090815260216020526040902054600a61010090910460ff1611156112c057600160a060020a03811660009081526021602052604090208054601d8054600a60ff610100909404841604831660ff19909116179081905591546121549282169116612b2b565b601d805461ff00191661010060ff938416810291909117808355600160a060020a0385166000908152602160205260409020805460ff198116928490048616908616038516919091178155915404909116600a029060015b60208104909101805460ff601f9093166101000a80820484169490940383168402929093021990921617905550565b60005460a060020a900460ff16156121f257600080fd5b600160a060020a03811660009081526021602052604090205462010000900460ff16603214156122c057600160a060020a038116600090815260216020526040902054602860ff909116101561227857600160a060020a03811660009081526021602052604090208054600160ff808316919091011660ff199091161762ff0000191690555b600160a060020a03811660009081526021602052604090205460ff16602814156122c057600160a060020a0381166000908152602160205260409020805460ff191660281790555b600160a060020a03811660009081526021602052604090205460326201000090910460ff1611156112c057600160a060020a03811660009081526021602052604090208054601d805462ff000019166032620100009384900460ff908116919091048116840291909117918290559254612344939290910482169116602803612b2b565b601d805460ff928316630100000090810263ff0000001990921691909117808355600160a060020a0385166000908152602160205260409020805460ff1981169086169284900486169290920185169190911781559154049091166032029060026121ac565b6000805460a060020a900460ff16156123c257600080fd5b601a54828115156123cf57fe5b046018819055156123e75760185482036017556123f0565b60001982016017555b505060175490565b6000805460a060020a900460ff161561241057600080fd5b601a548381151561241d57fe5b04601855600160a060020a038216600090815260216020526040902054601d805466ff000000000000191660ff9283166601000000000000908102919091179182905590041661246e836002612b49565b61247784612c57565b601d805465ff0000000000191665010000000000929093019390930160ff908116820292909217928390556064920416118015906124c55750601d54605a6501000000000090910460ff1610155b156124d857601854600a90600902046014555b601d54605a6501000000000090910460ff161080156125075750601d5460506501000000000090910460ff1610155b1561251a57601854600a90600802046014555b601d5460506501000000000090910460ff161080156125495750601d5460466501000000000090910460ff1610155b1561255c57601854600a90600702046014555b601d5460466501000000000090910460ff1610801561258b5750601d54603c6501000000000090910460ff1610155b1561259e57601854600a90600602046014555b601d54603c6501000000000090910460ff161080156125cd5750601d5460326501000000000090910460ff1610155b156125e057601854600a90600502046014555b601d5460326501000000000090910460ff1610801561260f5750601d5460286501000000000090910460ff1610155b1561262257601854600a90600402046014555b601d5460286501000000000090910460ff161080156126515750601d54601e6501000000000090910460ff1610155b1561266457601854600a90600302046014555b601d54601e6501000000000090910460ff161080156126935750601d5460146501000000000090910460ff1610155b156126a657601854600a90600202046014555b601d5460146501000000000090910460ff161080156126d55750601d54600a6501000000000090910460ff1610155b156126e557601854600a90046014555b601d54600a6501000000000090910460ff161080156127145750601d5460006501000000000090910460ff1610155b1561271f5760006014555b5060145492915050565b6000805460a060020a900460ff161561274157600080fd5b6019548481151561274e57fe5b0460155561275b82612d28565b612766846001612b49565b61276f85612d7a565b61277886612e48565b010101601d60046101000a81548160ff021916908360ff1602179055506064601d60049054906101000a900460ff1660ff16111580156127c75750601d54605a64010000000090910460ff1610155b156127da57601554600a90600902046013555b601d54605a64010000000090910460ff161080156128075750601d54605064010000000090910460ff1610155b1561281a57601554600a90600802046013555b601d54605064010000000090910460ff161080156128475750601d54604664010000000090910460ff1610155b1561285a57601554600a90600702046013555b601d54604664010000000090910460ff161080156128875750601d54603c64010000000090910460ff1610155b1561289a57601554600a90600602046013555b601d54603c64010000000090910460ff161080156128c75750601d54603264010000000090910460ff1610155b156128da57601554600a90600502046013555b601d54603264010000000090910460ff161080156129075750601d54602864010000000090910460ff1610155b1561291a57601554600a90600402046013555b601d54602864010000000090910460ff161080156129475750601d54601e64010000000090910460ff1610155b1561295a57601554600a90600302046013555b601d54601e64010000000090910460ff161080156129875750601d54601464010000000090910460ff1610155b1561299a57601554600a90600202046013555b601d54601464010000000090910460ff161080156129c75750601d54600a64010000000090910460ff1610155b156129d757601554600a90046013555b601d54600a64010000000090910460ff16108015612a045750601d54600064010000000090910460ff1610155b15612a0f5760006013555b506013549392505050565b60005460a060020a900460ff1615612a3157600080fd5b6107d08210611539578060011415612a6357600160a060020a0383166000908152601e60205260409020805460010190555b8060021415611539575050600160a060020a03166000908152601f6020526040902080546001019055565b60005460a060020a900460ff1615612aa557600080fd5b8060011415612acd57600160a060020a03831660009081526022602052604090208054830190555b806002141561153957600160a060020a0383166000908152602360205260409020805483019055505050565b60005460a060020a900460ff1615612b1057600080fd5b600160a060020a031660009081526020805260409020429055565b60008160ff168360ff1610612b405781612b42565b825b9392505050565b6000805460a060020a900460ff1615612b6157600080fd5b8160011415612b8757600160a060020a0383166000908152602260205260409020546010555b8160021415612bad57600160a060020a0383166000908152602360205260409020546010555b6010546301312d0011612bc257506014610e2f565b6301312d00601054108015612bdc5750621e848060105410155b15612be95750600f610e2f565b621e8480601054108015612c02575062030d4060105410155b15612c0f5750600a610e2f565b62030d40601054108015612c275750614e2060105410155b15612c3457506005610e2f565b614e20601054108015612c4a5750600060105410155b15610e2f57506000610e2f565b6000805460a060020a900460ff1615612c6f57600080fd5b600160a060020a0382166000908152601f6020526040902054601281905561271011612c9d575060286110d6565b612710601254108015612cb457506103e860125410155b15612cc15750601e6110d6565b6103e8601254108015612cd75750606460125410155b15612ce4575060146110d6565b6064601254108015612cf95750600a60125410155b15612d065750600a6110d6565b600a601254108015612d1b5750600060125410155b156110d6575060006110d6565b6000805460a060020a900460ff1615612d4057600080fd5b60ff82161515612d525750600a6110d6565b8160ff1660011415612d66575060146110d6565b8160ff16600214156110d65750601e6110d6565b6000805460a060020a900460ff1615612d9257600080fd5b600160a060020a0382166000908152601e6020526040902054601181905561271011612dc0575060146110d6565b612710601154108015612dd757506103e860115410155b15612de45750600f6110d6565b6103e8601154108015612dfa5750606460115410155b15612e075750600a6110d6565b6064601154108015612e1c5750600a60115410155b15612e29575060056110d6565b600a601154108015612d1b57506011546000116110d6575060006110d6565b6000805460a060020a900460ff1615612e6057600080fd5b600160a060020a0382166000908152602080526040902054600e8190554203600f8190556276a70011612e95575060006110d6565b600f546276a700118015612eae575062278d00600f5410155b15612ebb5750600a6110d6565b62278d00600f54108015612ed45750600f546203f48011155b15612ee1575060146110d6565b600f546203f480118015612ef857506000600f5410155b156110d65750601e6110d656fea165627a7a723058203af0f8110ec917b96583f86efa714b2122120f7cdef820f992fd43cea2fb3d940029",
  "source": "pragma solidity ^0.5.0;\r\n\r\nimport \"./token.sol\";\r\n\r\ncontract transaction is token {\r\n\r\n    uint256 constant DAY_IN_SECONDS = 86400;\r\n    uint256 constant MONTH_IN_SECONDS = 2592000;\r\n    uint256 private lastbuytimeInSeconds;\r\n    uint256 private timeinterval;\r\n    uint256 private totalmoney;\r\n    uint256 private buycontributionvalue;\r\n    uint256 private sellcontributionvalue;\r\n    uint256 private buyrebate;\r\n    uint256 private sellrebate;\r\n    uint256 private fee;\r\n    uint256 private buyerpayment;\r\n    uint256 private sellercollection;\r\n    uint256 private commission;\r\n    uint256 private feeProportion = 1000;\r\n    uint256 private commissionProportion = 100;\r\n    uint256 private totalvalue;\r\n    uint256 private refund;\r\n    uint8 private needSubsellercredit;\r\n    uint8 private realSubsellercredit;\r\n    uint8 private needAddsellercredit;\r\n    uint8 private realAddsellercredit;\r\n    uint8 private _buyerTotalScore;\r\n    uint8 private _sellerTotalScore;\r\n    uint8 private sellercreditScore;\r\n\r\n    event SuccessFunds(address target, bool success);\r\n\r\n    //mapping()\r\n    mapping (address => uint256) private _buycontributionvalue;\r\n    //mapping\r\n    mapping (address => uint256) private _sellcontributionvalue;\r\n    //mapping\r\n    mapping (address => uint256) private _lastbuytime;\r\n    //mapping\r\n    mapping (address => uint8[3]) private _sellercredit;\r\n    //mapping\r\n    mapping (address => uint256) private _totalbuyerpayment;\r\n    //mapping\r\n    mapping (address => uint256) private _totalsellercollection;\r\n\r\n//\r\n//\r\n    function Lastbuytime() external view returns (uint256) {\r\n        return _lastbuytime[msg.sender];\r\n    }\r\n\r\n//\r\n    function LastbuytimeOnlyOwner(address who) external view onlyOwner returns (uint256) {\r\n        return _lastbuytime[who];\r\n    }\r\n\r\n//\r\n    function contributionvalue(uint256 i) external view returns (uint256) {\r\n        if(i == 1){\r\n            return _buycontributionvalue[msg.sender];\r\n        }\r\n        if(i == 2){\r\n            return _sellcontributionvalue[msg.sender];\r\n        }\r\n    }\r\n\r\n//\r\n    function contributionvalueOnlyOwner(address who, uint256 i) external view onlyOwner returns (uint256) {\r\n        if(i == 1){\r\n            return _buycontributionvalue[who];\r\n        }\r\n        if(i == 2){\r\n            return _sellcontributionvalue[who];\r\n        }\r\n    }\r\n\r\n//\r\n    function TotalbuyerpaymenORsellercollection(uint256 i) external view returns (uint256) {\r\n        if(i == 1){\r\n            return _totalbuyerpayment[msg.sender];\r\n        }\r\n        if(i == 2){\r\n            return _totalsellercollection[msg.sender];\r\n        }\r\n    }\r\n\r\n//\r\n    function TotalbuyerpaymenORsellercollectionOnlyOwner(address who, uint256 i) external view onlyOwner returns (uint256) {\r\n        if(i == 1){\r\n            return _totalbuyerpayment[who];\r\n        }\r\n        if(i == 2){\r\n            return _totalsellercollection[who];\r\n        }\r\n    }\r\n\r\n////\r\n    function Sellercredit(uint256 i) external view returns (uint256) {\r\n        return _sellercredit[msg.sender][i];\r\n    }\r\n\r\n////\r\n    function SellercreditOnlyOwner(address who, uint256 i) external view onlyOwner returns (uint256) {\r\n        return _sellercredit[who][i];\r\n    }\r\n\r\n//\r\n//\r\n    function setProportion(uint256 newfeeProportion, uint256 newcommissionProportion) public onlyOwner whenNotPaused {\r\n        feeProportion = newfeeProportion;\r\n        commissionProportion = newcommissionProportion;\r\n    }\r\n\r\n//\r\n    function beforeDataTransaction(address _to, uint256 totalprice, address _from) public whenNotPaused {\r\n        require(!frozenAccount[_from]);\r\n        require(!frozenAccount[_to]);\r\n        buyerpayment = _Buyerpayment(totalprice);\r\n        _transfer(_from, address(this), buyerpayment);\r\n        emit SuccessFunds(_from, true);\r\n    }\r\n\r\n//\r\n    function afterDataTransaction(address  _from, address  _to, uint256 totalprice, uint8 buyergrade) public whenNotPaused {\r\n        sellercollection = _Sellercollection(totalprice);\r\n        sellercollection += SellRebate(totalprice, _to);\r\n        _transfer(address(this), _to, sellercollection);\r\n        buyrebate = BuyRebate(totalprice, _from, buyergrade);\r\n        _transfer(address(this), _from, buyrebate);\r\n        _Updatecontributionvalue(_from, totalprice, 1);\r\n        _Updatecontributionvalue(_to, totalprice, 2);\r\n        _UpdateTotalbuyerpaymentORsellercollection(_from, totalprice, 1);\r\n        _UpdateTotalbuyerpaymentORsellercollection(_to, totalprice, 2);\r\n        _UpdateRelatedSellercredit(_to, 2);\r\n        _IncreaseSellercredit(_to);\r\n        _DecreaseSellercredit(_to);\r\n        _UpdateLastbuytime(_from);\r\n    }\r\n\r\n//\r\n    function dataTransactionRefund(address _from, address _to, uint256 totalprice) public whenNotPaused {\r\n        buyerpayment = _Buyerpayment(totalprice);\r\n        _transfer(address(this), _from, buyerpayment);\r\n        _UpdateRelatedSellercredit(_to, 1);\r\n        _DecreaseSellercredit(_to);\r\n        _IncreaseSellercredit(_to);\r\n    }\r\n\r\n//\r\n    function beforeRealTimeTransaction(uint256 addressNumber, uint256 value, address _from) public whenNotPaused {\r\n        require(!frozenAccount[_from]);\r\n        totalvalue = addressNumber * value;\r\n        buyerpayment = _Buyerpayment(totalvalue);\r\n        _transfer(_from, address(this), buyerpayment);\r\n        emit SuccessFunds(_from, true);\r\n    }\r\n\r\n//\r\n    function afterRealTimeTransaction(uint256 addressNumber, address _from, address[] memory _to, uint256 value, uint8 buyergrade) public whenNotPaused {\r\n        if(_to.length == addressNumber){\r\n            for(uint256 i = 0; i < _to.length; i++){\r\n                sellercollection = _Sellercollection(value);\r\n                sellercollection += SellRebate(value, _to[i]);\r\n                _transfer(address(this), _to[i], sellercollection);\r\n                _Updatecontributionvalue(_to[i], value, 2);\r\n                _UpdateTotalbuyerpaymentORsellercollection(_to[i], value, 2);\r\n                _UpdateRelatedSellercredit(_to[i], 2);\r\n                _IncreaseSellercredit(_to[i]);\r\n                _DecreaseSellercredit(_to[i]);\r\n            }\r\n            buyrebate = BuyRebate(value * _to.length, _from, buyergrade);\r\n            _transfer(address(this), _from, buyrebate);\r\n            _Updatecontributionvalue(_from, value * _to.length, 1);\r\n            _UpdateTotalbuyerpaymentORsellercollection(_from, value * _to.length, 1);\r\n            _UpdateLastbuytime(_from);\r\n        }\r\n        if(_to.length < addressNumber){\r\n            for(uint256 i = 0; i < _to.length; i++){\r\n                sellercollection = _Sellercollection(value);\r\n                sellercollection += SellRebate(value, _to[i]);\r\n                _transfer(address(this), _to[i], sellercollection);\r\n                _Updatecontributionvalue(_to[i], value, 2);\r\n                _UpdateTotalbuyerpaymentORsellercollection(_to[i], value, 2);\r\n                _UpdateRelatedSellercredit(_to[i], 2);\r\n                _IncreaseSellercredit(_to[i]);\r\n                _DecreaseSellercredit(_to[i]);\r\n            }\r\n            buyrebate = BuyRebate(value * _to.length, _from, buyergrade);\r\n            refund = _Buyerpayment(addressNumber * value) - _Buyerpayment(value * _to.length);\r\n            _transfer(address(this), _from, buyrebate + refund);\r\n            _Updatecontributionvalue(_from, value * _to.length, 1);\r\n            _UpdateTotalbuyerpaymentORsellercollection(_from, value * _to.length, 1);\r\n            _UpdateLastbuytime(_from);\r\n        }\r\n    }\r\n\r\n//\r\n    function realTimeTransactionRefund(address _from, address[] memory _to, uint256 value) public whenNotPaused {\r\n        totalvalue = _to.length * value;\r\n        buyerpayment = _Buyerpayment(totalvalue);\r\n        _transfer(address(this), _from, buyerpayment);\r\n        for(uint256 i = 0; i < _to.length; i++){\r\n            _UpdateRelatedSellercredit(_to[i], 1);\r\n            _DecreaseSellercredit(_to[i]);\r\n            _IncreaseSellercredit(_to[i]);\r\n        }\r\n    }\r\n\r\n//\r\n//\r\n    function min(uint8 a, uint8 b) internal pure returns (uint8) {\r\n        return a < b ? a : b;\r\n    }\r\n\r\n//+\r\n    function _Buyerpayment(uint256 totalprice) internal whenNotPaused returns (uint256) {\r\n        fee = totalprice / feeProportion;\r\n        if(fee!=0){\r\n            buyerpayment = fee + totalprice;\r\n        }\r\n        else{\r\n            buyerpayment = 1 + totalprice;\r\n        }\r\n        return buyerpayment;\r\n    }\r\n\r\n//-\r\n    function _Sellercollection(uint256 totalprice) internal whenNotPaused returns (uint256) {\r\n        commission = totalprice / commissionProportion;\r\n        if(commission!=0){\r\n            sellercollection = totalprice - commission;\r\n        }\r\n        else{\r\n            sellercollection = totalprice - 1;\r\n        }\r\n        return sellercollection;\r\n    }\r\n\r\n//\r\n    function _UpdateLastbuytime(address buyer) internal whenNotPaused {\r\n        _lastbuytime[buyer] = now;\r\n    }\r\n\r\n//\r\n    function _Updatecontributionvalue(address target, uint256 totalprice, uint256 i) internal whenNotPaused {\r\n        if(totalprice >= 2000){\r\n            if(i == 1){\r\n                _buycontributionvalue[target] += 1;\r\n            }\r\n            if(i == 2){\r\n                _sellcontributionvalue[target] += 1;\r\n            }\r\n        }\r\n    }\r\n\r\n//\r\n    function _UpdateTotalbuyerpaymentORsellercollection(address target, uint256 totalprice, uint256 i) internal whenNotPaused {\r\n        if(i == 1){\r\n            _totalbuyerpayment[target] += totalprice;\r\n        }\r\n        if(i == 2){\r\n            _totalsellercollection[target] += totalprice;\r\n        }\r\n    }\r\n\r\n///\r\n    function _UpdateRelatedSellercredit(address target, uint256 i) internal whenNotPaused {\r\n        if(i == 1){\r\n            _sellercredit[target][1] += 1;\r\n        }\r\n        if(i == 2){\r\n            _sellercredit[target][2] += 1;\r\n        }\r\n    }\r\n\r\n//\r\n    function _DecreaseSellercredit(address target) internal whenNotPaused {\r\n        if(_sellercredit[target][1] == 10){\r\n            if(_sellercredit[target][0] > 0){\r\n                _sellercredit[target][0] -= 1;\r\n                _sellercredit[target][1] = 0;\r\n            }\r\n            if(_sellercredit[target][0] == 0){\r\n                _sellercredit[target][0] = 0;\r\n            }\r\n        }\r\n        if(_sellercredit[target][1] > 10){\r\n            needSubsellercredit = _sellercredit[target][1] / 10;\r\n            realSubsellercredit = min(needSubsellercredit, _sellercredit[target][0]);\r\n            _sellercredit[target][0] -= realSubsellercredit;\r\n            _sellercredit[target][1] -= realSubsellercredit * 10;\r\n        }\r\n    }\r\n\r\n//\r\n    function _IncreaseSellercredit(address target) internal whenNotPaused {\r\n        if(_sellercredit[target][2] == 50){\r\n            if(_sellercredit[target][0] < 40){\r\n                _sellercredit[target][0] += 1;\r\n                _sellercredit[target][2] = 0;\r\n            }\r\n            if(_sellercredit[target][0] == 40){\r\n                _sellercredit[target][0] = 40;\r\n            }\r\n        }\r\n        if(_sellercredit[target][2] > 50){\r\n            needAddsellercredit = _sellercredit[target][2] / 50;\r\n            realAddsellercredit = min(needAddsellercredit, 40 - _sellercredit[target][0]);\r\n            _sellercredit[target][0] += realAddsellercredit;\r\n            _sellercredit[target][2] -= realAddsellercredit * 50;\r\n        }\r\n    }\r\n\r\n//\r\n    function LastbuytimeScore(address who) internal whenNotPaused returns (uint8) {\r\n        lastbuytimeInSeconds = _lastbuytime[who];\r\n        timeinterval = now - lastbuytimeInSeconds;\r\n        if(timeinterval >= MONTH_IN_SECONDS * 3){\r\n            return 0;\r\n        }\r\n        if(timeinterval < MONTH_IN_SECONDS * 3 && timeinterval >= MONTH_IN_SECONDS){\r\n            return 10;\r\n        }\r\n        if(timeinterval < MONTH_IN_SECONDS && timeinterval >= DAY_IN_SECONDS * 3){\r\n            return 20;\r\n        }\r\n        if(timeinterval < DAY_IN_SECONDS * 3 && timeinterval >= 0){\r\n            return 30;\r\n        }\r\n    }\r\n\r\n//\r\n    function BuycontributionvalueScore(address who) internal whenNotPaused returns (uint8) {\r\n        buycontributionvalue = _buycontributionvalue[who];\r\n        if(buycontributionvalue >= 10000){\r\n            return 20;\r\n        }\r\n        if(buycontributionvalue < 10000 && buycontributionvalue >= 1000){\r\n            return 15;\r\n        }\r\n        if(buycontributionvalue < 1000 && buycontributionvalue >= 100){\r\n            return 10;\r\n        }\r\n        if(buycontributionvalue < 100 && buycontributionvalue >= 10){\r\n            return 5;\r\n        }\r\n        if(buycontributionvalue < 10 && buycontributionvalue >= 0){\r\n            return 0;\r\n        }\r\n    }\r\n\r\n//\r\n    function TotalbuyerpaymentScoreORsellercollectionScore(address who, uint256 i) internal whenNotPaused returns (uint8) {\r\n        if(i == 1){\r\n            totalmoney = _totalbuyerpayment[who];\r\n        }\r\n        if(i == 2){\r\n            totalmoney = _totalsellercollection[who];\r\n        }\r\n        if(totalmoney >= 20000000){\r\n            return 20;\r\n        }\r\n        if(totalmoney < 20000000 && totalmoney >= 2000000){\r\n            return 15;\r\n        }\r\n        if(totalmoney < 2000000 && totalmoney >= 200000){\r\n            return 10;\r\n        }\r\n        if(totalmoney < 200000 && totalmoney >= 20000){\r\n            return 5;\r\n        }\r\n        if(totalmoney < 20000 && totalmoney >= 0){\r\n            return 0;\r\n        }\r\n    }\r\n\r\n//\r\n    function BuyergradeScore(uint8 buyergrade) internal view whenNotPaused returns (uint8) {\r\n        if(buyergrade == 0){\r\n            return 10;\r\n        }\r\n        if(buyergrade == 1){\r\n            return 20;\r\n        }\r\n        if(buyergrade == 2){\r\n            return 30;\r\n        }\r\n    }\r\n\r\n//\r\n    function SellcontributionvalueScore(address who) internal whenNotPaused returns (uint8) {\r\n        sellcontributionvalue = _sellcontributionvalue[who];\r\n        if(sellcontributionvalue >= 10000){\r\n            return 40;\r\n        }\r\n        if(sellcontributionvalue < 10000 && sellcontributionvalue >= 1000){\r\n            return 30;\r\n        }\r\n        if(sellcontributionvalue < 1000 && sellcontributionvalue >= 100){\r\n            return 20;\r\n        }\r\n        if(sellcontributionvalue < 100 && sellcontributionvalue >= 10){\r\n            return 10;\r\n        }\r\n        if(sellcontributionvalue < 10 && sellcontributionvalue >= 0){\r\n            return 0;\r\n        }\r\n    }\r\n\r\n//(*)\r\n    function BuyRebate(uint256 totalprice, address who, uint8 buyergrade) internal whenNotPaused returns (uint256) {\r\n        fee = totalprice / feeProportion;\r\n        _buyerTotalScore = LastbuytimeScore(who) + BuycontributionvalueScore(who) + TotalbuyerpaymentScoreORsellercollectionScore(who, 1) + BuyergradeScore(buyergrade);\r\n        if(_buyerTotalScore <= 100 && _buyerTotalScore >= 90){\r\n            buyrebate = fee * 9 / 10;\r\n        }\r\n        if(_buyerTotalScore < 90 && _buyerTotalScore >= 80){\r\n            buyrebate = fee * 8 / 10;\r\n        }\r\n        if(_buyerTotalScore < 80 && _buyerTotalScore >= 70){\r\n            buyrebate = fee * 7 / 10;\r\n        }\r\n        if(_buyerTotalScore < 70 && _buyerTotalScore >= 60){\r\n            buyrebate = fee * 6 / 10;\r\n        }\r\n        if(_buyerTotalScore < 60 && _buyerTotalScore >= 50){\r\n            buyrebate = fee * 5 / 10;\r\n        }\r\n        if(_buyerTotalScore < 50 && _buyerTotalScore >= 40){\r\n            buyrebate = fee * 4 / 10;\r\n        }\r\n        if(_buyerTotalScore < 40 && _buyerTotalScore >= 30){\r\n            buyrebate = fee * 3 / 10;\r\n        }\r\n        if(_buyerTotalScore < 30 && _buyerTotalScore >= 20){\r\n            buyrebate = fee * 2 / 10;\r\n        }\r\n        if(_buyerTotalScore < 20 && _buyerTotalScore >= 10){\r\n            buyrebate = fee * 1 / 10;\r\n        }\r\n        if(_buyerTotalScore < 10 && _buyerTotalScore >= 0){\r\n            buyrebate = 0;\r\n        }\r\n        return buyrebate;\r\n    }\r\n\r\n//(*)\r\n    function SellRebate(uint256 totalprice, address who) internal whenNotPaused returns (uint256) {\r\n        commission = totalprice / commissionProportion;\r\n        sellercreditScore = _sellercredit[who][0];\r\n        _sellerTotalScore = SellcontributionvalueScore(who) + TotalbuyerpaymentScoreORsellercollectionScore(who, 2) + sellercreditScore;\r\n        if(_sellerTotalScore <= 100 && _sellerTotalScore >= 90){\r\n            sellrebate = commission * 9 / 10;\r\n        }\r\n        if(_sellerTotalScore < 90 && _sellerTotalScore >= 80){\r\n            sellrebate = commission * 8 / 10;\r\n        }\r\n        if(_sellerTotalScore < 80 && _sellerTotalScore >= 70){\r\n            sellrebate = commission * 7 / 10;\r\n        }\r\n        if(_sellerTotalScore < 70 && _sellerTotalScore >= 60){\r\n            sellrebate = commission * 6 / 10;\r\n        }\r\n        if(_sellerTotalScore < 60 && _sellerTotalScore >= 50){\r\n            sellrebate = commission * 5 / 10;\r\n        }\r\n        if(_sellerTotalScore < 50 && _sellerTotalScore >= 40){\r\n            sellrebate = commission * 4 / 10;\r\n        }\r\n        if(_sellerTotalScore < 40 && _sellerTotalScore >= 30){\r\n            sellrebate = commission * 3 / 10;\r\n        }\r\n        if(_sellerTotalScore < 30 && _sellerTotalScore >= 20){\r\n            sellrebate = commission * 2 / 10;\r\n        }\r\n        if(_sellerTotalScore < 20 && _sellerTotalScore >= 10){\r\n            sellrebate = commission * 1 / 10;\r\n        }\r\n        if(_sellerTotalScore < 10 && _sellerTotalScore >= 0){\r\n            sellrebate = 0;\r\n        }\r\n        return sellrebate;\r\n    }\r\n\r\n}",
  "sourcePath": "G:\\my_wallet\\contracts\\transaction.sol",
  "compiler": {
    "name": "solc",
    "version": "0.5.0+commit.1d4f565a.Emscripten.clang"
  },
  "schemaVersion": "3.0.5",
  "updatedAt": "2019-05-26T11:53:46.749Z",
  "devdoc": {
    "methods": {}
  },
  "userdoc": {
    "methods": {}
  }
}