{
  "contractName": "transaction",
  "abi": [
    {
      "constant": true,
      "inputs": [],
      "name": "rechargePrice",
      "outputs": [
        {
          "name": "",
          "type": "uint256"
        }
      ],
      "payable": false,
      "stateMutability": "view",
      "type": "function"
    },
    {
      "constant": false,
      "inputs": [
        {
          "name": "newwithdrawPrice",
          "type": "uint256"
        },
        {
          "name": "newrechargePrice",
          "type": "uint256"
        }
      ],
      "name": "setPrices",
      "outputs": [],
      "payable": false,
      "stateMutability": "nonpayable",
      "type": "function"
    },
    {
      "constant": true,
      "inputs": [],
      "name": "name",
      "outputs": [
        {
          "name": "",
          "type": "string"
        }
      ],
      "payable": false,
      "stateMutability": "view",
      "type": "function"
    },
    {
      "constant": false,
      "inputs": [
        {
          "name": "_spender",
          "type": "address"
        },
        {
          "name": "_value",
          "type": "uint256"
        }
      ],
      "name": "approve",
      "outputs": [
        {
          "name": "",
          "type": "bool"
        }
      ],
      "payable": false,
      "stateMutability": "nonpayable",
      "type": "function"
    },
    {
      "constant": true,
      "inputs": [],
      "name": "totalSupply",
      "outputs": [
        {
          "name": "",
          "type": "uint256"
        }
      ],
      "payable": false,
      "stateMutability": "view",
      "type": "function"
    },
    {
      "constant": false,
      "inputs": [
        {
          "name": "_from",
          "type": "address"
        },
        {
          "name": "_to",
          "type": "address"
        },
        {
          "name": "_value",
          "type": "uint256"
        }
      ],
      "name": "transferFrom",
      "outputs": [
        {
          "name": "",
          "type": "bool"
        }
      ],
      "payable": false,
      "stateMutability": "nonpayable",
      "type": "function"
    },
    {
      "constant": false,
      "inputs": [
        {
          "name": "amount",
          "type": "uint256"
        }
      ],
      "name": "withdraw",
      "outputs": [],
      "payable": false,
      "stateMutability": "nonpayable",
      "type": "function"
    },
    {
      "constant": true,
      "inputs": [],
      "name": "decimals",
      "outputs": [
        {
          "name": "",
          "type": "uint8"
        }
      ],
      "payable": false,
      "stateMutability": "view",
      "type": "function"
    },
    {
      "constant": true,
      "inputs": [],
      "name": "initialSupply",
      "outputs": [
        {
          "name": "",
          "type": "uint256"
        }
      ],
      "payable": false,
      "stateMutability": "view",
      "type": "function"
    },
    {
      "constant": false,
      "inputs": [],
      "name": "pauseTransaction",
      "outputs": [
        {
          "name": "",
          "type": "bool"
        }
      ],
      "payable": false,
      "stateMutability": "nonpayable",
      "type": "function"
    },
    {
      "constant": true,
      "inputs": [],
      "name": "_totalSupply",
      "outputs": [
        {
          "name": "",
          "type": "uint256"
        }
      ],
      "payable": false,
      "stateMutability": "view",
      "type": "function"
    },
    {
      "constant": true,
      "inputs": [
        {
          "name": "who",
          "type": "address"
        }
      ],
      "name": "balanceOfOnlyOwner",
      "outputs": [
        {
          "name": "",
          "type": "uint256"
        }
      ],
      "payable": false,
      "stateMutability": "view",
      "type": "function"
    },
    {
      "constant": false,
      "inputs": [],
      "name": "recharge",
      "outputs": [],
      "payable": true,
      "stateMutability": "payable",
      "type": "function"
    },
    {
      "constant": true,
      "inputs": [],
      "name": "paused",
      "outputs": [
        {
          "name": "",
          "type": "bool"
        }
      ],
      "payable": false,
      "stateMutability": "view",
      "type": "function"
    },
    {
      "constant": true,
      "inputs": [],
      "name": "tokenName",
      "outputs": [
        {
          "name": "",
          "type": "string"
        }
      ],
      "payable": false,
      "stateMutability": "view",
      "type": "function"
    },
    {
      "constant": true,
      "inputs": [
        {
          "name": "",
          "type": "address"
        }
      ],
      "name": "_balances",
      "outputs": [
        {
          "name": "",
          "type": "uint256"
        }
      ],
      "payable": false,
      "stateMutability": "view",
      "type": "function"
    },
    {
      "constant": true,
      "inputs": [],
      "name": "balanceOf",
      "outputs": [
        {
          "name": "",
          "type": "uint256"
        }
      ],
      "payable": false,
      "stateMutability": "view",
      "type": "function"
    },
    {
      "constant": true,
      "inputs": [],
      "name": "withdrawPrice",
      "outputs": [
        {
          "name": "",
          "type": "uint256"
        }
      ],
      "payable": false,
      "stateMutability": "view",
      "type": "function"
    },
    {
      "constant": false,
      "inputs": [
        {
          "name": "target",
          "type": "address"
        },
        {
          "name": "mintedAmount",
          "type": "uint256"
        }
      ],
      "name": "mintToken",
      "outputs": [],
      "payable": false,
      "stateMutability": "nonpayable",
      "type": "function"
    },
    {
      "constant": true,
      "inputs": [],
      "name": "tokenSymbol",
      "outputs": [
        {
          "name": "",
          "type": "string"
        }
      ],
      "payable": false,
      "stateMutability": "view",
      "type": "function"
    },
    {
      "constant": true,
      "inputs": [
        {
          "name": "account",
          "type": "address"
        }
      ],
      "name": "ifAccountFrozen",
      "outputs": [
        {
          "name": "",
          "type": "bool"
        }
      ],
      "payable": false,
      "stateMutability": "view",
      "type": "function"
    },
    {
      "constant": true,
      "inputs": [],
      "name": "heyueYitaibi",
      "outputs": [
        {
          "name": "",
          "type": "uint256"
        }
      ],
      "payable": false,
      "stateMutability": "view",
      "type": "function"
    },
    {
      "constant": true,
      "inputs": [],
      "name": "owner",
      "outputs": [
        {
          "name": "",
          "type": "address"
        }
      ],
      "payable": false,
      "stateMutability": "view",
      "type": "function"
    },
    {
      "constant": false,
      "inputs": [],
      "name": "unpauseTransaction",
      "outputs": [
        {
          "name": "",
          "type": "bool"
        }
      ],
      "payable": false,
      "stateMutability": "nonpayable",
      "type": "function"
    },
    {
      "constant": true,
      "inputs": [],
      "name": "symbol",
      "outputs": [
        {
          "name": "",
          "type": "string"
        }
      ],
      "payable": false,
      "stateMutability": "view",
      "type": "function"
    },
    {
      "constant": false,
      "inputs": [
        {
          "name": "_to",
          "type": "address"
        },
        {
          "name": "_value",
          "type": "uint256"
        }
      ],
      "name": "transfer",
      "outputs": [
        {
          "name": "",
          "type": "bool"
        }
      ],
      "payable": false,
      "stateMutability": "nonpayable",
      "type": "function"
    },
    {
      "constant": true,
      "inputs": [
        {
          "name": "",
          "type": "address"
        }
      ],
      "name": "frozenAccount",
      "outputs": [
        {
          "name": "",
          "type": "bool"
        }
      ],
      "payable": false,
      "stateMutability": "view",
      "type": "function"
    },
    {
      "constant": true,
      "inputs": [
        {
          "name": "",
          "type": "address"
        },
        {
          "name": "",
          "type": "address"
        }
      ],
      "name": "_allowed",
      "outputs": [
        {
          "name": "",
          "type": "uint256"
        }
      ],
      "payable": false,
      "stateMutability": "view",
      "type": "function"
    },
    {
      "constant": false,
      "inputs": [],
      "name": "transferHeyue",
      "outputs": [],
      "payable": true,
      "stateMutability": "payable",
      "type": "function"
    },
    {
      "constant": true,
      "inputs": [
        {
          "name": "owner",
          "type": "address"
        },
        {
          "name": "spender",
          "type": "address"
        }
      ],
      "name": "allowance",
      "outputs": [
        {
          "name": "",
          "type": "uint256"
        }
      ],
      "payable": false,
      "stateMutability": "view",
      "type": "function"
    },
    {
      "constant": false,
      "inputs": [
        {
          "name": "target",
          "type": "address"
        },
        {
          "name": "freeze",
          "type": "bool"
        }
      ],
      "name": "freezeAccount",
      "outputs": [],
      "payable": false,
      "stateMutability": "nonpayable",
      "type": "function"
    },
    {
      "constant": false,
      "inputs": [],
      "name": "heyueTixian",
      "outputs": [],
      "payable": false,
      "stateMutability": "nonpayable",
      "type": "function"
    },
    {
      "constant": false,
      "inputs": [
        {
          "name": "newOwner",
          "type": "address"
        }
      ],
      "name": "transferOwnership",
      "outputs": [],
      "payable": false,
      "stateMutability": "nonpayable",
      "type": "function"
    },
    {
      "constant": true,
      "inputs": [],
      "name": "amount1",
      "outputs": [
        {
          "name": "",
          "type": "uint256"
        }
      ],
      "payable": false,
      "stateMutability": "view",
      "type": "function"
    },
    {
      "payable": true,
      "stateMutability": "payable",
      "type": "fallback"
    },
    {
      "anonymous": false,
      "inputs": [
        {
          "indexed": false,
          "name": "target",
          "type": "address"
        },
        {
          "indexed": false,
          "name": "success",
          "type": "bool"
        }
      ],
      "name": "SuccessFunds",
      "type": "event"
    },
    {
      "anonymous": false,
      "inputs": [
        {
          "indexed": true,
          "name": "from",
          "type": "address"
        },
        {
          "indexed": true,
          "name": "to",
          "type": "address"
        },
        {
          "indexed": false,
          "name": "value",
          "type": "uint256"
        }
      ],
      "name": "Transfer",
      "type": "event"
    },
    {
      "anonymous": false,
      "inputs": [
        {
          "indexed": false,
          "name": "target",
          "type": "address"
        },
        {
          "indexed": false,
          "name": "frozen",
          "type": "bool"
        }
      ],
      "name": "FrozenFunds",
      "type": "event"
    },
    {
      "anonymous": false,
      "inputs": [],
      "name": "Pause",
      "type": "event"
    },
    {
      "anonymous": false,
      "inputs": [],
      "name": "Unpause",
      "type": "event"
    },
    {
      "constant": false,
      "inputs": [
        {
          "name": "newfeeProportion",
          "type": "uint256"
        },
        {
          "name": "newcommissionProportion",
          "type": "uint256"
        }
      ],
      "name": "setProportion",
      "outputs": [],
      "payable": false,
      "stateMutability": "nonpayable",
      "type": "function"
    },
    {
      "constant": true,
      "inputs": [],
      "name": "Lastbuytime",
      "outputs": [
        {
          "name": "",
          "type": "uint256"
        }
      ],
      "payable": false,
      "stateMutability": "view",
      "type": "function"
    },
    {
      "constant": true,
      "inputs": [
        {
          "name": "who",
          "type": "address"
        }
      ],
      "name": "LastbuytimeOnlyOwner",
      "outputs": [
        {
          "name": "",
          "type": "uint256"
        }
      ],
      "payable": false,
      "stateMutability": "view",
      "type": "function"
    },
    {
      "constant": true,
      "inputs": [
        {
          "name": "i",
          "type": "uint256"
        }
      ],
      "name": "contributionvalue",
      "outputs": [
        {
          "name": "",
          "type": "uint256"
        }
      ],
      "payable": false,
      "stateMutability": "view",
      "type": "function"
    },
    {
      "constant": true,
      "inputs": [
        {
          "name": "who",
          "type": "address"
        },
        {
          "name": "i",
          "type": "uint256"
        }
      ],
      "name": "contributionvalueOnlyOwner",
      "outputs": [
        {
          "name": "",
          "type": "uint256"
        }
      ],
      "payable": false,
      "stateMutability": "view",
      "type": "function"
    },
    {
      "constant": true,
      "inputs": [
        {
          "name": "i",
          "type": "uint256"
        }
      ],
      "name": "TotalbuyerpaymenORsellercollection",
      "outputs": [
        {
          "name": "",
          "type": "uint256"
        }
      ],
      "payable": false,
      "stateMutability": "view",
      "type": "function"
    },
    {
      "constant": true,
      "inputs": [
        {
          "name": "who",
          "type": "address"
        },
        {
          "name": "i",
          "type": "uint256"
        }
      ],
      "name": "TotalbuyerpaymenORsellercollectionOnlyOwner",
      "outputs": [
        {
          "name": "",
          "type": "uint256"
        }
      ],
      "payable": false,
      "stateMutability": "view",
      "type": "function"
    },
    {
      "constant": true,
      "inputs": [
        {
          "name": "i",
          "type": "uint256"
        }
      ],
      "name": "Sellercredit",
      "outputs": [
        {
          "name": "",
          "type": "uint256"
        }
      ],
      "payable": false,
      "stateMutability": "view",
      "type": "function"
    },
    {
      "constant": true,
      "inputs": [
        {
          "name": "who",
          "type": "address"
        },
        {
          "name": "i",
          "type": "uint256"
        }
      ],
      "name": "SellercreditOnlyOwner",
      "outputs": [
        {
          "name": "",
          "type": "uint256"
        }
      ],
      "payable": false,
      "stateMutability": "view",
      "type": "function"
    },
    {
      "constant": false,
      "inputs": [
        {
          "name": "_to",
          "type": "address"
        },
        {
          "name": "totalprice",
          "type": "uint256"
        },
        {
          "name": "_from",
          "type": "address"
        }
      ],
      "name": "beforeDataTransaction",
      "outputs": [],
      "payable": false,
      "stateMutability": "nonpayable",
      "type": "function"
    },
    {
      "constant": false,
      "inputs": [
        {
          "name": "_from",
          "type": "address"
        },
        {
          "name": "_to",
          "type": "address"
        },
        {
          "name": "totalprice",
          "type": "uint256"
        },
        {
          "name": "buyergrade",
          "type": "uint8"
        }
      ],
      "name": "afterDataTransaction",
      "outputs": [],
      "payable": false,
      "stateMutability": "nonpayable",
      "type": "function"
    },
    {
      "constant": false,
      "inputs": [
        {
          "name": "_from",
          "type": "address"
        },
        {
          "name": "_to",
          "type": "address"
        },
        {
          "name": "totalprice",
          "type": "uint256"
        }
      ],
      "name": "dataTransactionRefund",
      "outputs": [],
      "payable": false,
      "stateMutability": "nonpayable",
      "type": "function"
    },
    {
      "constant": false,
      "inputs": [
        {
          "name": "addressNumber",
          "type": "uint256"
        },
        {
          "name": "value",
          "type": "uint256"
        },
        {
          "name": "_from",
          "type": "address"
        }
      ],
      "name": "beforeRealTimeTransaction",
      "outputs": [],
      "payable": false,
      "stateMutability": "nonpayable",
      "type": "function"
    },
    {
      "constant": false,
      "inputs": [
        {
          "name": "_from",
          "type": "address"
        },
        {
          "name": "_to",
          "type": "address[]"
        },
        {
          "name": "value",
          "type": "uint256"
        },
        {
          "name": "buyergrade",
          "type": "uint8"
        }
      ],
      "name": "afterRealTimeTransaction",
      "outputs": [],
      "payable": false,
      "stateMutability": "nonpayable",
      "type": "function"
    },
    {
      "constant": false,
      "inputs": [
        {
          "name": "_from",
          "type": "address"
        },
        {
          "name": "_to",
          "type": "address[]"
        },
        {
          "name": "value",
          "type": "uint256"
        }
      ],
      "name": "realTimeTransactionRefund",
      "outputs": [],
      "payable": false,
      "stateMutability": "nonpayable",
      "type": "function"
    }
  ],
  "bytecode": "0x6000805460a060020a60ff02191690556003805460ff191660121790556009600555600a600655620186a060075560c0604052600260808190527f657200000000000000000000000000000000000000000000000000000000000060a09081526200006e916008919062000144565b506040805180820190915260018082527f65000000000000000000000000000000000000000000000000000000000000006020909201918252620000b59160099162000144565b506103e86019556064601a5560008054600160a060020a0319163317815560035460075460ff909116600a0a026004819055308252600b602052604090912055600880546200011991600191600281841615610100026000190190911604620001c9565b50600980546200013d916002916000196101006001831615020116829004620001c9565b5062000263565b828054600181600116156101000203166002900490600052602060002090601f016020900481019282601f106200018757805160ff1916838001178555620001b7565b82800160010185558215620001b7579182015b82811115620001b75782518255916020019190600101906200019a565b50620001c592915062000243565b5090565b828054600181600116156101000203166002900490600052602060002090601f016020900481019282601f10620002045780548555620001b7565b82800160010185558215620001b757600052602060002091601f016020900482015b82811115620001b757825482559160010191906001019062000226565b6200026091905b80821115620001c557600081556001016200024a565b90565b612c4f80620002736000396000f3fe6080604052600436106102505763ffffffff7c010000000000000000000000000000000000000000000000000000000060003504166302b090c1811461025257806304a85dfa1461027957806305fefda71461033b57806306fdde031461036b578063095ea7b3146103f5578063156660131461044257806318160ddd146104815780631ee71c711461049657806323b872dd146104e3578063286ad860146105265780632e1a7d4d146105595780632f15ce7e14610583578063313ce567146105ad578063378dc3dc146105d8578063385fa147146105ed5780633eaaf86b14610602578063448b331b146106175780634cddae281461064a5780635c975abb146106525780636c02a931146106675780636c9825611461067c5780636ebcf607146106b5578063722713f7146106e85780637918447e146106fd57806379c65068146107125780637b61c3201461074b5780637c28248c146107605780637fed80bb146107a3578063863e4299146107d65780638da5cb5b146107eb57806391bbf4341461081c57806392fb71741461084c57806393faa4501461086157806395d89b41146108765780639bab5e491461088b578063a9059cbb146108ce578063b414d4b614610907578063ba0fb8611461093a578063c2d6a0b314610975578063cea601e61461099f578063ceaf7fb2146109d8578063d59f70be146109e0578063dd62ed3e14610a0a578063e724529c14610a45578063e764c6e114610a80578063eef71d6f14610b48578063f2fde38b14610b5d578063f400fde414610b90578063fdb38bcd14610ba5575b005b34801561025e57600080fd5b50610267610bde565b60408051918252519081900360200190f35b34801561028557600080fd5b506102506004803603606081101561029c57600080fd5b600160a060020a0382351691908101906040810160208201356401000000008111156102c757600080fd5b8201836020820111156102d957600080fd5b803590602001918460208302840111640100000000831117156102fb57600080fd5b9190808060200260200160405190810160405280939291908181526020018383602002808284376000920191909152509295505091359250610be4915050565b34801561034757600080fd5b506102506004803603604081101561035e57600080fd5b5080359060200135610c9c565b34801561037757600080fd5b50610380610ce0565b6040805160208082528351818301528351919283929083019185019080838360005b838110156103ba5781810151838201526020016103a2565b50505050905090810190601f1680156103e75780820380516001836020036101000a031916815260200191505b509250505060405180910390f35b34801561040157600080fd5b5061042e6004803603604081101561041857600080fd5b50600160a060020a038135169060200135610d6d565b604080519115158252519081900360200190f35b34801561044e57600080fd5b506102506004803603606081101561046557600080fd5b5080359060208101359060400135600160a060020a0316610dd0565b34801561048d57600080fd5b50610267610e7a565b3480156104a257600080fd5b50610250600480360360808110156104b957600080fd5b508035600160a060020a03908116916020810135909116906040810135906060013560ff16610e80565b3480156104ef57600080fd5b5061042e6004803603606081101561050657600080fd5b50600160a060020a03813581169160208101359091169060400135610f39565b34801561053257600080fd5b506102676004803603602081101561054957600080fd5b5035600160a060020a031661103f565b34801561056557600080fd5b506102506004803603602081101561057c57600080fd5b5035611077565b34801561058f57600080fd5b50610267600480360360208110156105a657600080fd5b50356110db565b3480156105b957600080fd5b506105c261111b565b6040805160ff9092168252519081900360200190f35b3480156105e457600080fd5b50610267611124565b3480156105f957600080fd5b5061042e61112a565b34801561060e57600080fd5b506102676111aa565b34801561062357600080fd5b506102676004803603602081101561063a57600080fd5b5035600160a060020a03166111b0565b6102506111e4565b34801561065e57600080fd5b5061042e61121b565b34801561067357600080fd5b5061038061122b565b34801561068857600080fd5b506102676004803603604081101561069f57600080fd5b50600160a060020a038135169060200135611286565b3480156106c157600080fd5b50610267600480360360208110156106d857600080fd5b5035600160a060020a03166112ee565b3480156106f457600080fd5b50610267611300565b34801561070957600080fd5b50610267611313565b34801561071e57600080fd5b506102506004803603604081101561073557600080fd5b50600160a060020a038135169060200135611319565b34801561075757600080fd5b506103806113e6565b34801561076c57600080fd5b506102506004803603606081101561078357600080fd5b50600160a060020a03813581169160208101359091169060400135611441565b3480156107af57600080fd5b5061042e600480360360208110156107c657600080fd5b5035600160a060020a0316611496565b3480156107e257600080fd5b506102676114b4565b3480156107f757600080fd5b506108006114b9565b60408051600160a060020a039092168252519081900360200190f35b34801561082857600080fd5b506102506004803603604081101561083f57600080fd5b50803590602001356114c8565b34801561085857600080fd5b50610267611501565b34801561086d57600080fd5b5061042e611514565b34801561088257600080fd5b5061038061158f565b34801561089757600080fd5b50610250600480360360608110156108ae57600080fd5b50600160a060020a038135811691602081013591604090910135166115e7565b3480156108da57600080fd5b5061042e600480360360408110156108f157600080fd5b50600160a060020a038135169060200135611653565b34801561091357600080fd5b5061042e6004803603602081101561092a57600080fd5b5035600160a060020a0316611683565b34801561094657600080fd5b506102676004803603604081101561095d57600080fd5b50600160a060020a0381358116916020013516611698565b34801561098157600080fd5b506102676004803603602081101561099857600080fd5b50356116b5565b3480156109ab57600080fd5b50610267600480360360408110156109c257600080fd5b50600160a060020a0381351690602001356116eb565b610250611743565b3480156109ec57600080fd5b5061026760048036036020811015610a0357600080fd5b503561175c565b348015610a1657600080fd5b5061026760048036036040811015610a2d57600080fd5b50600160a060020a038135811691602001351661179c565b348015610a5157600080fd5b5061025060048036036040811015610a6857600080fd5b50600160a060020a03813516906020013515156117c7565b348015610a8c57600080fd5b5061025060048036036080811015610aa357600080fd5b600160a060020a038235169190810190604081016020820135640100000000811115610ace57600080fd5b820183602082011115610ae057600080fd5b80359060200191846020830284011164010000000083111715610b0257600080fd5b919080806020026020016040519081016040528093929190818152602001838360200280828437600092019190915250929550508235935050506020013560ff16611859565b348015610b5457600080fd5b506102506119ac565b348015610b6957600080fd5b5061025060048036036020811015610b8057600080fd5b5035600160a060020a0316611a34565b348015610b9c57600080fd5b50610267611a9a565b348015610bb157600080fd5b5061026760048036036040811015610bc857600080fd5b50600160a060020a038135169060200135611aa0565b60065481565b60005460a060020a900460ff1615610bfb57600080fd5b81518102601b819055610c0d90611b08565b601681905550610c203084601654611b55565b60005b8251811015610c9657610c4e8382815181101515610c3d57fe5b906020019060200201516001611ca0565b610c6e8382815181101515610c5f57fe5b90602001906020020151611d38565b610c8e8382815181101515610c7f57fe5b90602001906020020151611f00565b600101610c23565b50505050565b600054600160a060020a03163314610cb357600080fd5b60005460a060020a900460ff1615610cca57600080fd5b808211610cdc57600582905560068190555b5050565b60018054604080516020600284861615610100026000190190941693909304601f81018490048402820184019092528181529291830182828015610d655780601f10610d3a57610100808354040283529160200191610d65565b820191906000526020600020905b815481529060010190602001808311610d4857829003601f168201915b505050505081565b60008054600160a060020a03163314610d8557600080fd5b60005460a060020a900460ff1615610d9c57600080fd5b5060008054600160a060020a039081168252600c602090815260408084209286168452919052902081905560015b92915050565b60005460a060020a900460ff1615610de757600080fd5b600160a060020a0381166000908152600d602052604090205460ff1615610e0d57600080fd5b828202601b819055610e1e90611b08565b601681905550610e318130601654611b55565b60408051600160a060020a03831681526001602082015281517f4656763aeb5076063b1b9201e728e03b650c4e545b46330125af5d01c01fae56929181900390910190a1505050565b60045490565b60005460a060020a900460ff1615610e9757600080fd5b610ea0826120c7565b601755610ead8284612115565b6017805490910190819055610ec59030908590611b55565b610ed0828583612445565b601381905550610ee33085601354611b55565b610eef84836001612736565b610efb83836002612736565b610f07848360016127aa565b610f13838360026127aa565b610f1e836002611ca0565b610f2783611f00565b610f3083611d38565b610c9684612815565b60008054600160a060020a03163314610f5157600080fd5b60005460a060020a900460ff1615610f6857600080fd5b60008054600160a060020a039081168252600c60209081526040808420928816845291905290205482111580610fc3575060008054600160a060020a039081168252600c602090815260408084209288168452919052902054155b1515610fce57600080fd5b60008054600160a060020a039081168252600c6020908152604080842092881684529190529020541561102a5760008054600160a060020a039081168252600c6020908152604080842092881684529190529020805483900390555b611035848484611b55565b5060019392505050565b60008054600160a060020a0316331461105757600080fd5b50600160a060020a0381166000908152601f60205260409020545b919050565b60005460a060020a900460ff161561108e57600080fd5b6005548102303110156110a057600080fd5b6110ab333083611b55565b6005546040513391830280156108fc02916000818181858888f19350505050158015610cdc573d6000803e3d6000fd5b600081600114156110fc575033600090815260216020526040902054611072565b8160021415611072575033600090815260226020526040902054611072565b60035460ff1681565b60075481565b60008054600160a060020a0316331461114257600080fd5b60005460a060020a900460ff161561115957600080fd5b6000805474ff0000000000000000000000000000000000000000191660a060020a1781556040517f6985a02210a168e66602d3235cb6db0e70f92b3ba4d376a33c0f3d9434bff6259190a150600190565b60045481565b60008054600160a060020a031633146111c857600080fd5b50600160a060020a03166000908152600b602052604090205490565b60005460a060020a900460ff16156111fb57600080fd5b60006006543481151561120a57fe5b049050611218303383611b55565b50565b60005460a060020a900460ff1681565b6008805460408051602060026001851615610100026000190190941693909304601f81018490048402820184019092528181529291830182828015610d655780601f10610d3a57610100808354040283529160200191610d65565b60008054600160a060020a0316331461129e57600080fd5b81600114156112c65750600160a060020a0382166000908152601d6020526040902054610dca565b8160021415610dca5750600160a060020a0382166000908152601e6020526040902054610dca565b600b6020526000908152604090205481565b336000908152600b602052604090205490565b60055481565b600054600160a060020a0316331461133057600080fd5b60005460a060020a900460ff161561134757600080fd5b600160a060020a0382166000908152600b602090815260408083208054850190556004805485019055805184815290513093927fddf252ad1be2c89b69c2b068fc378daa952ba7f163c4a11628f55a4df523b3ef928290030190a3604080518281529051600160a060020a0384169130917fddf252ad1be2c89b69c2b068fc378daa952ba7f163c4a11628f55a4df523b3ef9181900360200190a35050565b6009805460408051602060026001851615610100026000190190941693909304601f81018490048402820184019092528181529291830182828015610d655780601f10610d3a57610100808354040283529160200191610d65565b60005460a060020a900460ff161561145857600080fd5b61146181611b08565b6016819055506114743084601654611b55565b61147f826001611ca0565b61148882611d38565b61149182611f00565b505050565b600160a060020a03166000908152600d602052604090205460ff1690565b303190565b600054600160a060020a031681565b600054600160a060020a031633146114df57600080fd5b60005460a060020a900460ff16156114f657600080fd5b601991909155601a55565b336000908152601f602052604090205490565b60008054600160a060020a0316331461152c57600080fd5b60005460a060020a900460ff16151561154457600080fd5b6000805474ff0000000000000000000000000000000000000000191681556040517f7805862f689e2f13df9f062ff482ad3ad112aca9e0847911ed832e158c525b339190a150600190565b6002805460408051602060018416156101000260001901909316849004601f81018490048402820184019092528181529291830182828015610d655780601f10610d3a57610100808354040283529160200191610d65565b60005460a060020a900460ff16156115fe57600080fd5b600160a060020a0381166000908152600d602052604090205460ff161561162457600080fd5b600160a060020a0383166000908152600d602052604090205460ff161561164a57600080fd5b610e1e82611b08565b6000805460a060020a900460ff161561166b57600080fd5b6044361461167857600080fd5b610dca338484611b55565b600d6020526000908152604090205460ff1681565b600c60209081526000928352604080842090915290825290205481565b336000908152602080526040812082600381106116ce57fe5b602081049091015460ff601f9092166101000a9004169050919050565b60008054600160a060020a0316331461170357600080fd5b600160a060020a03831660009081526020805260409020826003811061172557fe5b602081049091015460ff601f9092166101000a900416905092915050565b60005460a060020a900460ff161561175a57600080fd5b565b6000816001141561177d5750336000908152601d6020526040902054611072565b81600214156110725750336000908152601e6020526040902054611072565b600160a060020a039182166000908152600c6020908152604080832093909416825291909152205490565b600054600160a060020a031633146117de57600080fd5b60005460a060020a900460ff16156117f557600080fd5b600160a060020a0382166000818152600d6020908152604091829020805460ff191685151590811790915582519384529083015280517f48335238b4855f35377ed80f164e8c6f3c366e54ac00b96a6402d4a9814a03a59281900390910190a15050565b60005460a060020a900460ff161561187057600080fd5b60005b835181101561196c57611885836120c7565b60175583516118ab90849086908490811061189c57fe5b90602001906020020151612115565b60178054909101905583516118da9030908690849081106118c857fe5b90602001906020020151601754611b55565b6118fd84828151811015156118eb57fe5b90602001906020020151846002612736565b611920848281518110151561190e57fe5b906020019060200201518460026127aa565b611942848281518110151561193157fe5b906020019060200201516002611ca0565b6119538482815181101515610c7f57fe5b6119648482815181101515610c5f57fe5b600101611873565b5061197b835183028583612445565b60138190555061198e3085601354611b55565b61199d84845184026001612736565b610f30848451840260016127aa565b600054600160a060020a031633146119c357600080fd5b60005460a060020a900460ff16156119da57600080fd5b600554306000818152600b60205260408082205460045403909302913191909103600a81905581549251600160a060020a03909316926108fc82150292818181858888f19350505050158015611218573d6000803e3d6000fd5b600054600160a060020a03163314611a4b57600080fd5b600160a060020a0381161515611a6057600080fd5b600080547fffffffffffffffffffffffff000000000000000000000000000000000000000016600160a060020a0392909216919091179055565b600a5481565b60008054600160a060020a03163314611ab857600080fd5b8160011415611ae05750600160a060020a038216600090815260216020526040902054610dca565b8160021415610dca5750600160a060020a038216600090815260226020526040902054610dca565b6000805460a060020a900460ff1615611b2057600080fd5b60195482811515611b2d57fe5b04601581905515611b45576015548201601655611b4d565b600182016016555b505060165490565b600160a060020a0382161515611b6a57600080fd5b600160a060020a0383166000908152600b6020526040902054811115611b8f57600080fd5b600160a060020a0382166000908152600b60205260409020548181011015611bb657600080fd5b600160a060020a0383166000908152600d602052604090205460ff1615611bdc57600080fd5b600160a060020a0382166000908152600d602052604090205460ff1615611c0257600080fd5b600160a060020a038083166000818152600b60209081526040808320805495891680855282852080548981039091559486905281548801909155815187815291519390950194927fddf252ad1be2c89b69c2b068fc378daa952ba7f163c4a11628f55a4df523b3ef929181900390910190a3600160a060020a038084166000908152600b6020526040808220549287168252902054018114610c9657fe5b60005460a060020a900460ff1615611cb757600080fd5b8060011415611cf657600160a060020a03821660009081526020805260409020805461ff001981166101009182900460ff908116600101169091021790555b8060021415610cdc5750600160a060020a031660009081526020805260409020805462ff0000198116620100009182900460ff90811660010116909102179055565b60005460a060020a900460ff1615611d4f57600080fd5b600160a060020a0381166000908152602080526040902054610100900460ff16600a1415611e0b57600160a060020a038116600090815260208052604081205460ff161115611dca57600160a060020a03811660009081526020805260409020805460ff808216600019011660ff199091161761ff00191690555b600160a060020a038116600090815260208052604090205460ff161515611e0b57600160a060020a03811660009081526020805260409020805460ff191690555b600160a060020a0381166000908152602080526040902054600a61010090910460ff16111561121857600160a060020a038116600090815260208052604090208054601c8054600a60ff610100909404841604831660ff1990911617908190559154611e7a9282169116612848565b601c805461ff00191661010060ff938416810291909117808355600160a060020a03851660009081526020805260409020805460ff198116928490048616908616038516919091178155915404909116600a029060015b60208104909101805460ff601f9093166101000a80820484169490940383168402929093021990921617905550565b60005460a060020a900460ff1615611f1757600080fd5b600160a060020a038116600090815260208052604090205462010000900460ff1660321415611fe057600160a060020a0381166000908152602080526040902054602860ff9091161015611f9a57600160a060020a038116600090815260208052604090208054600160ff808316919091011660ff199091161762ff0000191690555b600160a060020a038116600090815260208052604090205460ff1660281415611fe057600160a060020a03811660009081526020805260409020805460ff191660281790555b600160a060020a038116600090815260208052604090205460326201000090910460ff16111561121857600160a060020a038116600090815260208052604090208054601c805462ff000019166032620100009384900460ff908116919091048116840291909117918290559254612062939290910482169116602803612848565b601c805460ff928316630100000090810263ff0000001990921691909117808355600160a060020a03851660009081526020805260409020805460ff198116908616928490048616929092018516919091178155915404909116603202906002611ed1565b6000805460a060020a900460ff16156120df57600080fd5b601a54828115156120ec57fe5b0460188190551561210457601854820360175561210d565b60001982016017555b505060175490565b6000805460a060020a900460ff161561212d57600080fd5b601a548381151561213a57fe5b04601855600160a060020a0382166000908152602080526040902054601c805466ff000000000000191660ff9283166601000000000000908102919091179182905590041661218a836002612866565b61219384612974565b601c805465ff0000000000191665010000000000929093019390930160ff908116820292909217928390556064920416118015906121e15750601c54605a6501000000000090910460ff1610155b156121f457601854600a90600902046014555b601c54605a6501000000000090910460ff161080156122235750601c5460506501000000000090910460ff1610155b1561223657601854600a90600802046014555b601c5460506501000000000090910460ff161080156122655750601c5460466501000000000090910460ff1610155b1561227857601854600a90600702046014555b601c5460466501000000000090910460ff161080156122a75750601c54603c6501000000000090910460ff1610155b156122ba57601854600a90600602046014555b601c54603c6501000000000090910460ff161080156122e95750601c5460326501000000000090910460ff1610155b156122fc57601854600a90600502046014555b601c5460326501000000000090910460ff1610801561232b5750601c5460286501000000000090910460ff1610155b1561233e57601854600a90600402046014555b601c5460286501000000000090910460ff1610801561236d5750601c54601e6501000000000090910460ff1610155b1561238057601854600a90600302046014555b601c54601e6501000000000090910460ff161080156123af5750601c5460146501000000000090910460ff1610155b156123c257601854600a90600202046014555b601c5460146501000000000090910460ff161080156123f15750601c54600a6501000000000090910460ff1610155b1561240157601854600a90046014555b601c54600a6501000000000090910460ff161080156124305750601c5460006501000000000090910460ff1610155b1561243b5760006014555b5060145492915050565b6000805460a060020a900460ff161561245d57600080fd5b6019548481151561246a57fe5b0460155561247782612a45565b612482846001612866565b61248b85612a97565b61249486612b65565b010101601c60046101000a81548160ff021916908360ff1602179055506064601c60049054906101000a900460ff1660ff16111580156124e35750601c54605a64010000000090910460ff1610155b156124f657601554600a90600902046013555b601c54605a64010000000090910460ff161080156125235750601c54605064010000000090910460ff1610155b1561253657601554600a90600802046013555b601c54605064010000000090910460ff161080156125635750601c54604664010000000090910460ff1610155b1561257657601554600a90600702046013555b601c54604664010000000090910460ff161080156125a35750601c54603c64010000000090910460ff1610155b156125b657601554600a90600602046013555b601c54603c64010000000090910460ff161080156125e35750601c54603264010000000090910460ff1610155b156125f657601554600a90600502046013555b601c54603264010000000090910460ff161080156126235750601c54602864010000000090910460ff1610155b1561263657601554600a90600402046013555b601c54602864010000000090910460ff161080156126635750601c54601e64010000000090910460ff1610155b1561267657601554600a90600302046013555b601c54601e64010000000090910460ff161080156126a35750601c54601464010000000090910460ff1610155b156126b657601554600a90600202046013555b601c54601464010000000090910460ff161080156126e35750601c54600a64010000000090910460ff1610155b156126f357601554600a90046013555b601c54600a64010000000090910460ff161080156127205750601c54600064010000000090910460ff1610155b1561272b5760006013555b506013549392505050565b60005460a060020a900460ff161561274d57600080fd5b6107d0821061149157806001141561277f57600160a060020a0383166000908152601d60205260409020805460010190555b8060021415611491575050600160a060020a03166000908152601e6020526040902080546001019055565b60005460a060020a900460ff16156127c157600080fd5b80600114156127e957600160a060020a03831660009081526021602052604090208054830190555b806002141561149157600160a060020a0383166000908152602260205260409020805483019055505050565b60005460a060020a900460ff161561282c57600080fd5b600160a060020a03166000908152601f60205260409020429055565b60008160ff168360ff161061285d578161285f565b825b9392505050565b6000805460a060020a900460ff161561287e57600080fd5b81600114156128a457600160a060020a0383166000908152602160205260409020546010555b81600214156128ca57600160a060020a0383166000908152602260205260409020546010555b6010546301312d00116128df57506014610dca565b6301312d006010541080156128f95750621e848060105410155b156129065750600f610dca565b621e848060105410801561291f575062030d4060105410155b1561292c5750600a610dca565b62030d406010541080156129445750614e2060105410155b1561295157506005610dca565b614e206010541080156129675750600060105410155b15610dca57506000610dca565b6000805460a060020a900460ff161561298c57600080fd5b600160a060020a0382166000908152601e60205260409020546012819055612710116129ba57506028611072565b6127106012541080156129d157506103e860125410155b156129de5750601e611072565b6103e86012541080156129f45750606460125410155b15612a0157506014611072565b6064601254108015612a165750600a60125410155b15612a235750600a611072565b600a601254108015612a385750600060125410155b1561107257506000611072565b6000805460a060020a900460ff1615612a5d57600080fd5b60ff82161515612a6f5750600a611072565b8160ff1660011415612a8357506014611072565b8160ff16600214156110725750601e611072565b6000805460a060020a900460ff1615612aaf57600080fd5b600160a060020a0382166000908152601d6020526040902054601181905561271011612add57506014611072565b612710601154108015612af457506103e860115410155b15612b015750600f611072565b6103e8601154108015612b175750606460115410155b15612b245750600a611072565b6064601154108015612b395750600a60115410155b15612b4657506005611072565b600a601154108015612a38575060115460001161107257506000611072565b6000805460a060020a900460ff1615612b7d57600080fd5b600160a060020a0382166000908152601f6020526040902054600e8190554203600f8190556276a70011612bb357506000611072565b600f546276a700118015612bcc575062278d00600f5410155b15612bd95750600a611072565b62278d00600f54108015612bf25750600f546203f48011155b15612bff57506014611072565b600f546203f480118015612c1657506000600f5410155b156110725750601e61107256fea165627a7a723058209339d30aac8ac71c5dbd51a5fb5711432c5afc5e746153ce7bb81b254418c4a40029",
  "source": "pragma solidity ^0.5.0;\r\n\r\nimport \"./token.sol\";\r\n\r\ncontract transaction is token {\r\n    \r\n    uint256 constant DAY_IN_SECONDS = 86400; \r\n    uint256 constant MONTH_IN_SECONDS = 2592000; \r\n    uint256 private lastbuytimeInSeconds; \r\n    uint256 private timeinterval;\r\n    uint256 private totalmoney;\r\n    uint256 private buycontributionvalue;\r\n    uint256 private sellcontributionvalue;\r\n    uint256 private buyrebate; \r\n    uint256 private sellrebate; \r\n    uint256 private fee; \r\n    uint256 private buyerpayment;\r\n    uint256 private sellercollection;\r\n    uint256 private commission;\r\n    uint256 private feeProportion = 1000; \r\n    uint256 private commissionProportion = 100; \r\n    uint256 private totalvalue; \r\n    uint8 private needSubsellercredit;\r\n    uint8 private realSubsellercredit; \r\n    uint8 private needAddsellercredit; \r\n    uint8 private realAddsellercredit; \r\n    uint8 private _buyerTotalScore; \r\n    uint8 private _sellerTotalScore; \r\n    uint8 private sellercreditScore; \r\n    event SuccessFunds(address target, bool success);\r\n    mapping (address => uint256) private _buycontributionvalue;\r\n    mapping (address => uint256) private _sellcontributionvalue;\r\n    mapping (address => uint256) private _lastbuytime;\r\n    mapping (address => uint8[3]) private _sellercredit;\r\n    mapping (address => uint256) private _totalbuyerpayment;\r\n    mapping (address => uint256) private _totalsellercollection;\r\n\r\n    function min(uint8 a, uint8 b) internal pure returns (uint8) {\r\n        return a < b ? a : b;\r\n    }\r\n    \r\n    function setProportion(uint256 newfeeProportion, uint256 newcommissionProportion) onlyOwner public whenNotPaused{\r\n        feeProportion = newfeeProportion;\r\n        commissionProportion = newcommissionProportion; \r\n    } \r\n   \r\n    function _Buyerpayment(uint256 totalprice) internal whenNotPaused returns (uint256){\r\n        fee = totalprice / feeProportion;       \r\n        if(fee!=0){        \r\n            buyerpayment = fee + totalprice; \r\n        }\r\n        else{\r\n            buyerpayment = 1 + totalprice;\r\n        }\r\n        return buyerpayment;\r\n  }\r\n  \r\n    function _Sellercollection(uint256 totalprice) internal whenNotPaused returns (uint256){\r\n        commission = totalprice / commissionProportion;      \r\n        if(commission!=0){        \r\n            sellercollection = totalprice - commission;  \r\n        }\r\n        else{\r\n            sellercollection = totalprice - 1;\r\n        }\r\n        return sellercollection;\r\n  }\r\n  \r\n//\r\n    function Lastbuytime() external view returns (uint256) {\r\n        return _lastbuytime[msg.sender];    \r\n    } \r\n   \r\n//\r\n    function LastbuytimeOnlyOwner(address who) external view onlyOwner returns (uint256) {\r\n        return _lastbuytime[who];    \r\n    }  \r\n\r\n    function _UpdateLastbuytime(address buyer)  internal whenNotPaused{\r\n        _lastbuytime[buyer] = now;  \r\n    }\r\n//\r\n    function contributionvalue(uint256 i) external view returns (uint256) {\r\n        if(i == 1){\r\n            return _buycontributionvalue[msg.sender];\r\n        }\r\n        if(i == 2){\r\n            return _sellcontributionvalue[msg.sender];\r\n        }\r\n    } \r\n//\r\n    function contributionvalueOnlyOwner(address who, uint256 i) external view onlyOwner returns (uint256) {\r\n        if(i == 1){\r\n            return _buycontributionvalue[who];\r\n        }\r\n        if(i == 2){\r\n            return _sellcontributionvalue[who];\r\n        }\r\n    } \r\n\r\n    function _Updatecontributionvalue(address target, uint256 totalprice, uint256 i)  internal whenNotPaused{\r\n        if(totalprice >= 2000){\r\n            if(i == 1){\r\n                _buycontributionvalue[target] += 1;\r\n            }\r\n            if(i == 2){\r\n                _sellcontributionvalue[target] += 1;\r\n            }  \r\n        }\r\n    }\r\n//\r\n    function TotalbuyerpaymenORsellercollection(uint256 i) external view returns (uint256) {\r\n        if(i == 1){\r\n            return _totalbuyerpayment[msg.sender];\r\n        }\r\n        if(i == 2){\r\n            return _totalsellercollection[msg.sender];\r\n        }\r\n    }\r\n//\r\n    function TotalbuyerpaymenORsellercollectionOnlyOwner(address who, uint256 i) external view onlyOwner returns (uint256) {\r\n        if(i == 1){\r\n            return _totalbuyerpayment[who];\r\n        }\r\n        if(i == 2){\r\n            return _totalsellercollection[who];\r\n        }\r\n    }\r\n\r\n    function _UpdateTotalbuyerpaymentORsellercollection(address target, uint256 totalprice, uint256 i) internal whenNotPaused{\r\n        if(i == 1){\r\n            _totalbuyerpayment[target] += totalprice; \r\n        }\r\n        if(i == 2){\r\n            _totalsellercollection[target] += totalprice;  \r\n        }    \r\n    }\r\n\r\n//\r\n    function Sellercredit(uint256 i) external view returns (uint256) {\r\n        return _sellercredit[msg.sender][i];\r\n    }\r\n//\r\n    function SellercreditOnlyOwner(address who, uint256 i) external view onlyOwner returns (uint256) {\r\n        return _sellercredit[who][i];\r\n    }\r\n\r\n    function _UpdateRelatedSellercredit(address target, uint256 i)  internal whenNotPaused{\r\n        if(i == 1){\r\n            _sellercredit[target][1] += 1;  \r\n        }\r\n        if(i == 2){\r\n            _sellercredit[target][2] += 1;  \r\n        }        \r\n    }\r\n\r\n    function _DecreaseSellercredit(address target)  internal whenNotPaused{\r\n        if(_sellercredit[target][1] == 10){   \r\n            if(_sellercredit[target][0] > 0){\r\n                _sellercredit[target][0] -= 1;  \r\n                _sellercredit[target][1] = 0;   \r\n            }\r\n            if(_sellercredit[target][0] == 0){   \r\n                _sellercredit[target][0] = 0;   \r\n            }\r\n        }\r\n        if(_sellercredit[target][1] > 10){  \r\n            needSubsellercredit = _sellercredit[target][1] / 10;  \r\n            realSubsellercredit = min(needSubsellercredit, _sellercredit[target][0]);  \r\n            _sellercredit[target][0] -= realSubsellercredit;     \r\n            _sellercredit[target][1] -= realSubsellercredit * 10;  \r\n        }\r\n    }\r\n\r\n    function _IncreaseSellercredit(address target)  internal whenNotPaused{\r\n        if(_sellercredit[target][2] == 50){ \r\n            if(_sellercredit[target][0] < 40){ \r\n                _sellercredit[target][0] += 1;  \r\n                _sellercredit[target][2] = 0;          \r\n            }\r\n            if(_sellercredit[target][0] == 40){   \r\n                _sellercredit[target][0] = 40;  \r\n            }\r\n        } \r\n        if(_sellercredit[target][2] > 50){   \r\n            needAddsellercredit = _sellercredit[target][2] / 50;  \r\n            realAddsellercredit = min(needAddsellercredit, 40 - _sellercredit[target][0]);  \r\n            _sellercredit[target][0] += realAddsellercredit;    \r\n            _sellercredit[target][2] -= realAddsellercredit * 50;  \r\n        }\r\n    }\r\n\r\n    function LastbuytimeScore(address who) internal whenNotPaused returns (uint8) {\r\n        lastbuytimeInSeconds = _lastbuytime[who]; \r\n        timeinterval = now - lastbuytimeInSeconds; \r\n        if(timeinterval >= MONTH_IN_SECONDS * 3){ \r\n            return 0;\r\n        }\r\n        if(timeinterval < MONTH_IN_SECONDS * 3 && timeinterval >= MONTH_IN_SECONDS){  \r\n            return 10;\r\n        }\r\n        if(timeinterval < MONTH_IN_SECONDS && timeinterval >= DAY_IN_SECONDS * 3){  \r\n            return 20;\r\n        }\r\n        if(timeinterval < DAY_IN_SECONDS * 3 && timeinterval >= 0){  \r\n            return 30;\r\n        }\r\n    }\r\n    \r\n    function BuycontributionvalueScore(address who) internal whenNotPaused returns (uint8) {\r\n        buycontributionvalue = _buycontributionvalue[who]; \r\n        if(buycontributionvalue >= 10000){  \r\n            return 20;\r\n        }\r\n        if(buycontributionvalue < 10000 && buycontributionvalue >= 1000){  \r\n            return 15;\r\n        }\r\n        if(buycontributionvalue < 1000 && buycontributionvalue >= 100){  \r\n            return 10;\r\n        }\r\n        if(buycontributionvalue < 100 && buycontributionvalue >= 10){  \r\n            return 5;\r\n        }\r\n        if(buycontributionvalue < 10 && buycontributionvalue >= 0){ \r\n            return 0;\r\n        }\r\n    }\r\n\r\n    function TotalbuyerpaymentScoreORsellercollectionScore(address who, uint256 i) internal whenNotPaused returns (uint8) {\r\n        if(i == 1){\r\n            totalmoney = _totalbuyerpayment[who]; \r\n        }\r\n        if(i == 2){\r\n            totalmoney = _totalsellercollection[who]; \r\n        }\r\n        if(totalmoney >= 20000000){ \r\n            return 20;\r\n        }\r\n        if(totalmoney < 20000000 && totalmoney >= 2000000){ \r\n            return 15;\r\n        }\r\n        if(totalmoney < 2000000 && totalmoney >= 200000){  \r\n            return 10;\r\n        }\r\n        if(totalmoney < 200000 && totalmoney >= 20000){  \r\n            return 5;\r\n        }\r\n        if(totalmoney < 20000 && totalmoney >= 0){ \r\n            return 0;\r\n        }\r\n    }\r\n\r\n    function BuyergradeScore(uint8 buyergrade) internal view whenNotPaused returns (uint8) { \r\n        if(buyergrade == 0){ \r\n            return 10;       \r\n        }\r\n        if(buyergrade == 1){ \r\n            return 20;       \r\n        }\r\n        if(buyergrade == 2){ \r\n            return 30;       \r\n        }\r\n    }\r\n\r\n    function SellcontributionvalueScore(address who) internal whenNotPaused returns (uint8) {\r\n        sellcontributionvalue = _sellcontributionvalue[who]; \r\n        if(sellcontributionvalue >= 10000){  \r\n            return 40;\r\n        }\r\n        if(sellcontributionvalue < 10000 && sellcontributionvalue >= 1000){  \r\n            return 30;\r\n        }\r\n        if(sellcontributionvalue < 1000 && sellcontributionvalue >= 100){  \r\n            return 20;\r\n        }\r\n        if(sellcontributionvalue < 100 && sellcontributionvalue >= 10){  \r\n            return 10;\r\n        }\r\n        if(sellcontributionvalue < 10 && sellcontributionvalue >= 0){ \r\n            return 0;\r\n        }\r\n    }\r\n\r\n    function BuyRebate(uint256 totalprice, address who, uint8 buyergrade) internal whenNotPaused returns (uint256) { \r\n        \r\n        fee = totalprice / feeProportion;      \r\n        _buyerTotalScore = LastbuytimeScore(who) + BuycontributionvalueScore(who) + TotalbuyerpaymentScoreORsellercollectionScore(who, 1) + BuyergradeScore(buyergrade);     \r\n        if(_buyerTotalScore <= 100 && _buyerTotalScore >= 90){  \r\n            buyrebate = fee * 9 / 10;\r\n        }\r\n        if(_buyerTotalScore < 90 && _buyerTotalScore >= 80){  \r\n            buyrebate = fee * 8 / 10;\r\n        }\r\n        if(_buyerTotalScore < 80 && _buyerTotalScore >= 70){  \r\n            buyrebate = fee * 7 / 10;\r\n        }\r\n        if(_buyerTotalScore < 70 && _buyerTotalScore >= 60){ \r\n            buyrebate = fee * 6 / 10;\r\n        }\r\n        if(_buyerTotalScore < 60 && _buyerTotalScore >= 50){ \r\n            buyrebate = fee * 5 / 10;\r\n        }\r\n        if(_buyerTotalScore < 50 && _buyerTotalScore >= 40){ \r\n            buyrebate = fee * 4 / 10;\r\n        }\r\n        if(_buyerTotalScore < 40 && _buyerTotalScore >= 30){ \r\n            buyrebate = fee * 3 / 10;\r\n        }\r\n        if(_buyerTotalScore < 30 && _buyerTotalScore >= 20){ \r\n            buyrebate = fee * 2 / 10;\r\n        }\r\n        if(_buyerTotalScore < 20 && _buyerTotalScore >= 10){ \r\n            buyrebate = fee * 1 / 10;\r\n        }\r\n        if(_buyerTotalScore < 10 && _buyerTotalScore >= 0){ \r\n            buyrebate = 0;\r\n        }\r\n        return buyrebate;\r\n    }\r\n\r\n    function SellRebate(uint256 totalprice, address who) internal whenNotPaused returns (uint256) { \r\n        \r\n        commission = totalprice / commissionProportion;    \r\n        sellercreditScore = _sellercredit[who][0]; \r\n        _sellerTotalScore = SellcontributionvalueScore(who) + TotalbuyerpaymentScoreORsellercollectionScore(who, 2) + sellercreditScore; \r\n        if(_sellerTotalScore <= 100 && _sellerTotalScore >= 90){  \r\n            sellrebate = commission * 9 / 10;\r\n        }\r\n        if(_sellerTotalScore < 90 && _sellerTotalScore >= 80){  \r\n            sellrebate = commission * 8 / 10;\r\n        }\r\n        if(_sellerTotalScore < 80 && _sellerTotalScore >= 70){  \r\n            sellrebate = commission * 7 / 10;\r\n        }\r\n        if(_sellerTotalScore < 70 && _sellerTotalScore >= 60){ \r\n            sellrebate = commission * 6 / 10;\r\n        }\r\n        if(_sellerTotalScore < 60 && _sellerTotalScore >= 50){ \r\n            sellrebate = commission * 5 / 10;\r\n        }\r\n        if(_sellerTotalScore < 50 && _sellerTotalScore >= 40){ \r\n            sellrebate = commission * 4 / 10;\r\n        }\r\n        if(_sellerTotalScore < 40 && _sellerTotalScore >= 30){ \r\n            sellrebate = commission * 3 / 10;\r\n        }\r\n        if(_sellerTotalScore < 30 && _sellerTotalScore >= 20){ \r\n            sellrebate = commission * 2 / 10;\r\n        }\r\n        if(_sellerTotalScore < 20 && _sellerTotalScore >= 10){ \r\n            sellrebate = commission * 1 / 10;\r\n        }\r\n        if(_sellerTotalScore < 10 && _sellerTotalScore >= 0){ \r\n            sellrebate = 0;\r\n        }\r\n        return sellrebate;\r\n    }\r\n\r\n    function beforeDataTransaction(address _to, uint256 totalprice, address _from) public whenNotPaused{\r\n        require(!frozenAccount[_from]);             \r\n        require(!frozenAccount[_to]);               \r\n        buyerpayment = _Buyerpayment(totalprice);  \r\n        _transfer(_from, address(this), buyerpayment); \r\n        emit SuccessFunds(_from, true);\r\n  }\r\n  \r\n    function afterDataTransaction(address  _from, address  _to, uint256 totalprice, uint8 buyergrade) public whenNotPaused{\r\n        sellercollection = _Sellercollection(totalprice);   \r\n        sellercollection += SellRebate(totalprice, _to); \r\n        _transfer(address(this), _to, sellercollection); \r\n        buyrebate = BuyRebate(totalprice, _from, buyergrade); \r\n        _transfer(address(this), _from, buyrebate); \r\n        _Updatecontributionvalue(_from, totalprice, 1);\r\n        _Updatecontributionvalue(_to, totalprice, 2);\r\n        _UpdateTotalbuyerpaymentORsellercollection(_from, totalprice, 1);\r\n        _UpdateTotalbuyerpaymentORsellercollection(_to, totalprice, 2);\r\n        _UpdateRelatedSellercredit(_to, 2);\r\n        _IncreaseSellercredit(_to);\r\n        _DecreaseSellercredit(_to);\r\n        _UpdateLastbuytime(_from); \r\n    }\r\n\r\n    function dataTransactionRefund(address _from, address _to, uint256 totalprice) public whenNotPaused{\r\n        buyerpayment = _Buyerpayment(totalprice);  \r\n        _transfer( address(this), _from, buyerpayment);  \r\n        _UpdateRelatedSellercredit(_to, 1);\r\n        _DecreaseSellercredit(_to);\r\n        _IncreaseSellercredit(_to);\r\n    }\r\n\r\n     function beforeRealTimeTransaction(uint256 addressNumber, uint256 value, address _from) public whenNotPaused{\r\n        require(!frozenAccount[_from]);             \r\n        totalvalue = addressNumber * value;   \r\n        buyerpayment = _Buyerpayment(totalvalue);  \r\n        _transfer(_from, address(this), buyerpayment); \r\n        emit SuccessFunds(_from, true);\r\n  }\r\n \r\n    function afterRealTimeTransaction(address _from, address[] memory _to, uint256 value, uint8 buyergrade) public whenNotPaused{\r\n        for(uint256 i = 0; i < _to.length; i++){\r\n            sellercollection = _Sellercollection(value);   \r\n            sellercollection += SellRebate(value, _to[i]); \r\n            _transfer(address(this), _to[i], sellercollection); \r\n            _Updatecontributionvalue(_to[i], value, 2);\r\n            _UpdateTotalbuyerpaymentORsellercollection(_to[i], value, 2);\r\n            _UpdateRelatedSellercredit(_to[i], 2);\r\n            _IncreaseSellercredit(_to[i]);\r\n            _DecreaseSellercredit(_to[i]);\r\n        }\r\n        buyrebate = BuyRebate(value * _to.length, _from, buyergrade); \r\n        _transfer(address(this), _from, buyrebate);\r\n        _Updatecontributionvalue(_from, value * _to.length, 1);\r\n        _UpdateTotalbuyerpaymentORsellercollection(_from, value * _to.length, 1);\r\n        _UpdateLastbuytime(_from); \r\n}\r\n   \r\n    function realTimeTransactionRefund(address _from, address[] memory _to, uint256 value) public whenNotPaused{\r\n        totalvalue = _to.length * value;  \r\n        buyerpayment = _Buyerpayment(totalvalue);  \r\n        _transfer( address(this), _from, buyerpayment);  \r\n        for(uint256 i = 0; i < _to.length; i++){\r\n            _UpdateRelatedSellercredit(_to[i], 1);\r\n            _DecreaseSellercredit(_to[i]);\r\n            _IncreaseSellercredit(_to[i]);\r\n        }\r\n    }\r\n}",
  "sourcePath": "G:\\my_wallet\\contracts\\transaction.sol",
  "compiler": {
    "name": "solc",
    "version": "0.5.0+commit.1d4f565a.Emscripten.clang"
  },
  "schemaVersion": "3.0.5",
  "updatedAt": "2019-05-07T01:31:36.819Z",
  "devdoc": {
    "methods": {}
  },
  "userdoc": {
    "methods": {}
  }
}