{
  "contractName": "TxControl",
  "abi": [
    {
      "constant": true,
      "inputs": [],
      "name": "rechargePrice",
      "outputs": [
        {
          "name": "",
          "type": "uint256"
        }
      ],
      "payable": false,
      "stateMutability": "view",
      "type": "function",
      "signature": "0x02b090c1"
    },
    {
      "constant": false,
      "inputs": [
        {
          "name": "_from",
          "type": "address"
        },
        {
          "name": "_to",
          "type": "address[]"
        },
        {
          "name": "value",
          "type": "uint256"
        }
      ],
      "name": "realTimeTransactionRefund",
      "outputs": [],
      "payable": false,
      "stateMutability": "nonpayable",
      "type": "function",
      "signature": "0x04a85dfa"
    },
    {
      "constant": false,
      "inputs": [
        {
          "name": "newwithdrawPrice",
          "type": "uint256"
        },
        {
          "name": "newrechargePrice",
          "type": "uint256"
        }
      ],
      "name": "setPrices",
      "outputs": [],
      "payable": false,
      "stateMutability": "nonpayable",
      "type": "function",
      "signature": "0x05fefda7"
    },
    {
      "constant": true,
      "inputs": [],
      "name": "name",
      "outputs": [
        {
          "name": "",
          "type": "string"
        }
      ],
      "payable": false,
      "stateMutability": "view",
      "type": "function",
      "signature": "0x06fdde03"
    },
    {
      "constant": false,
      "inputs": [
        {
          "name": "_spender",
          "type": "address"
        },
        {
          "name": "_value",
          "type": "uint256"
        }
      ],
      "name": "approve",
      "outputs": [
        {
          "name": "",
          "type": "bool"
        }
      ],
      "payable": false,
      "stateMutability": "nonpayable",
      "type": "function",
      "signature": "0x095ea7b3"
    },
    {
      "constant": false,
      "inputs": [
        {
          "name": "addressNumber",
          "type": "uint256"
        },
        {
          "name": "value",
          "type": "uint256"
        },
        {
          "name": "_from",
          "type": "address"
        }
      ],
      "name": "beforeRealTimeTransaction",
      "outputs": [],
      "payable": false,
      "stateMutability": "nonpayable",
      "type": "function",
      "signature": "0x15666013"
    },
    {
      "constant": true,
      "inputs": [],
      "name": "totalSupply",
      "outputs": [
        {
          "name": "",
          "type": "uint256"
        }
      ],
      "payable": false,
      "stateMutability": "view",
      "type": "function",
      "signature": "0x18160ddd"
    },
    {
      "constant": false,
      "inputs": [
        {
          "name": "_from",
          "type": "address"
        },
        {
          "name": "_to",
          "type": "address"
        },
        {
          "name": "totalprice",
          "type": "uint256"
        },
        {
          "name": "buyergrade",
          "type": "uint8"
        }
      ],
      "name": "afterDataTransaction",
      "outputs": [],
      "payable": false,
      "stateMutability": "nonpayable",
      "type": "function",
      "signature": "0x1ee71c71"
    },
    {
      "constant": false,
      "inputs": [
        {
          "name": "_from",
          "type": "address"
        },
        {
          "name": "_to",
          "type": "address"
        },
        {
          "name": "_value",
          "type": "uint256"
        }
      ],
      "name": "transferFrom",
      "outputs": [
        {
          "name": "",
          "type": "bool"
        }
      ],
      "payable": false,
      "stateMutability": "nonpayable",
      "type": "function",
      "signature": "0x23b872dd"
    },
    {
      "constant": true,
      "inputs": [
        {
          "name": "who",
          "type": "address"
        }
      ],
      "name": "LastbuytimeOnlyOwner",
      "outputs": [
        {
          "name": "",
          "type": "uint256"
        }
      ],
      "payable": false,
      "stateMutability": "view",
      "type": "function",
      "signature": "0x286ad860"
    },
    {
      "constant": false,
      "inputs": [
        {
          "name": "amount",
          "type": "uint256"
        }
      ],
      "name": "withdraw",
      "outputs": [],
      "payable": false,
      "stateMutability": "nonpayable",
      "type": "function",
      "signature": "0x2e1a7d4d"
    },
    {
      "constant": true,
      "inputs": [
        {
          "name": "i",
          "type": "uint256"
        }
      ],
      "name": "TotalbuyerpaymenORsellercollection",
      "outputs": [
        {
          "name": "",
          "type": "uint256"
        }
      ],
      "payable": false,
      "stateMutability": "view",
      "type": "function",
      "signature": "0x2f15ce7e"
    },
    {
      "constant": true,
      "inputs": [],
      "name": "decimals",
      "outputs": [
        {
          "name": "",
          "type": "uint8"
        }
      ],
      "payable": false,
      "stateMutability": "view",
      "type": "function",
      "signature": "0x313ce567"
    },
    {
      "constant": true,
      "inputs": [],
      "name": "initialSupply",
      "outputs": [
        {
          "name": "",
          "type": "uint256"
        }
      ],
      "payable": false,
      "stateMutability": "view",
      "type": "function",
      "signature": "0x378dc3dc"
    },
    {
      "constant": false,
      "inputs": [],
      "name": "pauseTransaction",
      "outputs": [
        {
          "name": "",
          "type": "bool"
        }
      ],
      "payable": false,
      "stateMutability": "nonpayable",
      "type": "function",
      "signature": "0x385fa147"
    },
    {
      "constant": true,
      "inputs": [],
      "name": "_totalSupply",
      "outputs": [
        {
          "name": "",
          "type": "uint256"
        }
      ],
      "payable": false,
      "stateMutability": "view",
      "type": "function",
      "signature": "0x3eaaf86b"
    },
    {
      "constant": true,
      "inputs": [
        {
          "name": "who",
          "type": "address"
        }
      ],
      "name": "balanceOfOnlyOwner",
      "outputs": [
        {
          "name": "",
          "type": "uint256"
        }
      ],
      "payable": false,
      "stateMutability": "view",
      "type": "function",
      "signature": "0x448b331b"
    },
    {
      "constant": false,
      "inputs": [],
      "name": "recharge",
      "outputs": [],
      "payable": true,
      "stateMutability": "payable",
      "type": "function",
      "signature": "0x4cddae28"
    },
    {
      "constant": true,
      "inputs": [],
      "name": "paused",
      "outputs": [
        {
          "name": "",
          "type": "bool"
        }
      ],
      "payable": false,
      "stateMutability": "view",
      "type": "function",
      "signature": "0x5c975abb"
    },
    {
      "constant": true,
      "inputs": [],
      "name": "tokenName",
      "outputs": [
        {
          "name": "",
          "type": "string"
        }
      ],
      "payable": false,
      "stateMutability": "view",
      "type": "function",
      "signature": "0x6c02a931"
    },
    {
      "constant": true,
      "inputs": [
        {
          "name": "who",
          "type": "address"
        },
        {
          "name": "i",
          "type": "uint256"
        }
      ],
      "name": "contributionvalueOnlyOwner",
      "outputs": [
        {
          "name": "",
          "type": "uint256"
        }
      ],
      "payable": false,
      "stateMutability": "view",
      "type": "function",
      "signature": "0x6c982561"
    },
    {
      "constant": true,
      "inputs": [
        {
          "name": "",
          "type": "address"
        }
      ],
      "name": "_balances",
      "outputs": [
        {
          "name": "",
          "type": "uint256"
        }
      ],
      "payable": false,
      "stateMutability": "view",
      "type": "function",
      "signature": "0x6ebcf607"
    },
    {
      "constant": true,
      "inputs": [],
      "name": "balanceOf",
      "outputs": [
        {
          "name": "",
          "type": "uint256"
        }
      ],
      "payable": false,
      "stateMutability": "view",
      "type": "function",
      "signature": "0x722713f7"
    },
    {
      "constant": true,
      "inputs": [],
      "name": "withdrawPrice",
      "outputs": [
        {
          "name": "",
          "type": "uint256"
        }
      ],
      "payable": false,
      "stateMutability": "view",
      "type": "function",
      "signature": "0x7918447e"
    },
    {
      "constant": false,
      "inputs": [
        {
          "name": "target",
          "type": "address"
        },
        {
          "name": "mintedAmount",
          "type": "uint256"
        }
      ],
      "name": "mintToken",
      "outputs": [],
      "payable": false,
      "stateMutability": "nonpayable",
      "type": "function",
      "signature": "0x79c65068"
    },
    {
      "constant": true,
      "inputs": [],
      "name": "tokenSymbol",
      "outputs": [
        {
          "name": "",
          "type": "string"
        }
      ],
      "payable": false,
      "stateMutability": "view",
      "type": "function",
      "signature": "0x7b61c320"
    },
    {
      "constant": false,
      "inputs": [
        {
          "name": "_from",
          "type": "address"
        },
        {
          "name": "_to",
          "type": "address"
        },
        {
          "name": "totalprice",
          "type": "uint256"
        }
      ],
      "name": "dataTransactionRefund",
      "outputs": [],
      "payable": false,
      "stateMutability": "nonpayable",
      "type": "function",
      "signature": "0x7c28248c"
    },
    {
      "constant": true,
      "inputs": [
        {
          "name": "",
          "type": "address"
        },
        {
          "name": "",
          "type": "uint256"
        }
      ],
      "name": "collectionAddress",
      "outputs": [
        {
          "name": "",
          "type": "address"
        }
      ],
      "payable": false,
      "stateMutability": "view",
      "type": "function",
      "signature": "0x7d520ea6"
    },
    {
      "constant": true,
      "inputs": [
        {
          "name": "account",
          "type": "address"
        }
      ],
      "name": "ifAccountFrozen",
      "outputs": [
        {
          "name": "",
          "type": "bool"
        }
      ],
      "payable": false,
      "stateMutability": "view",
      "type": "function",
      "signature": "0x7fed80bb"
    },
    {
      "constant": true,
      "inputs": [],
      "name": "heyueYitaibi",
      "outputs": [
        {
          "name": "",
          "type": "uint256"
        }
      ],
      "payable": false,
      "stateMutability": "view",
      "type": "function",
      "signature": "0x863e4299"
    },
    {
      "constant": true,
      "inputs": [],
      "name": "owner",
      "outputs": [
        {
          "name": "",
          "type": "address"
        }
      ],
      "payable": false,
      "stateMutability": "view",
      "type": "function",
      "signature": "0x8da5cb5b"
    },
    {
      "constant": false,
      "inputs": [
        {
          "name": "newfeeProportion",
          "type": "uint256"
        },
        {
          "name": "newcommissionProportion",
          "type": "uint256"
        }
      ],
      "name": "setProportion",
      "outputs": [],
      "payable": false,
      "stateMutability": "nonpayable",
      "type": "function",
      "signature": "0x91bbf434"
    },
    {
      "constant": true,
      "inputs": [],
      "name": "Lastbuytime",
      "outputs": [
        {
          "name": "",
          "type": "uint256"
        }
      ],
      "payable": false,
      "stateMutability": "view",
      "type": "function",
      "signature": "0x92fb7174"
    },
    {
      "constant": false,
      "inputs": [],
      "name": "unpauseTransaction",
      "outputs": [
        {
          "name": "",
          "type": "bool"
        }
      ],
      "payable": false,
      "stateMutability": "nonpayable",
      "type": "function",
      "signature": "0x93faa450"
    },
    {
      "constant": true,
      "inputs": [],
      "name": "symbol",
      "outputs": [
        {
          "name": "",
          "type": "string"
        }
      ],
      "payable": false,
      "stateMutability": "view",
      "type": "function",
      "signature": "0x95d89b41"
    },
    {
      "constant": false,
      "inputs": [
        {
          "name": "_to",
          "type": "address"
        },
        {
          "name": "totalprice",
          "type": "uint256"
        },
        {
          "name": "_from",
          "type": "address"
        }
      ],
      "name": "beforeDataTransaction",
      "outputs": [],
      "payable": false,
      "stateMutability": "nonpayable",
      "type": "function",
      "signature": "0x9bab5e49"
    },
    {
      "constant": false,
      "inputs": [
        {
          "name": "_to",
          "type": "address"
        },
        {
          "name": "_value",
          "type": "uint256"
        }
      ],
      "name": "transfer",
      "outputs": [
        {
          "name": "",
          "type": "bool"
        }
      ],
      "payable": false,
      "stateMutability": "nonpayable",
      "type": "function",
      "signature": "0xa9059cbb"
    },
    {
      "constant": true,
      "inputs": [
        {
          "name": "",
          "type": "address"
        }
      ],
      "name": "frozenAccount",
      "outputs": [
        {
          "name": "",
          "type": "bool"
        }
      ],
      "payable": false,
      "stateMutability": "view",
      "type": "function",
      "signature": "0xb414d4b6"
    },
    {
      "constant": true,
      "inputs": [
        {
          "name": "",
          "type": "address"
        },
        {
          "name": "",
          "type": "address"
        }
      ],
      "name": "_allowed",
      "outputs": [
        {
          "name": "",
          "type": "uint256"
        }
      ],
      "payable": false,
      "stateMutability": "view",
      "type": "function",
      "signature": "0xba0fb861"
    },
    {
      "constant": true,
      "inputs": [
        {
          "name": "i",
          "type": "uint256"
        }
      ],
      "name": "Sellercredit",
      "outputs": [
        {
          "name": "",
          "type": "uint256"
        }
      ],
      "payable": false,
      "stateMutability": "view",
      "type": "function",
      "signature": "0xc2d6a0b3"
    },
    {
      "constant": true,
      "inputs": [
        {
          "name": "who",
          "type": "address"
        },
        {
          "name": "i",
          "type": "uint256"
        }
      ],
      "name": "SellercreditOnlyOwner",
      "outputs": [
        {
          "name": "",
          "type": "uint256"
        }
      ],
      "payable": false,
      "stateMutability": "view",
      "type": "function",
      "signature": "0xcea601e6"
    },
    {
      "constant": false,
      "inputs": [],
      "name": "transferHeyue",
      "outputs": [],
      "payable": true,
      "stateMutability": "payable",
      "type": "function",
      "signature": "0xceaf7fb2"
    },
    {
      "constant": true,
      "inputs": [
        {
          "name": "i",
          "type": "uint256"
        }
      ],
      "name": "contributionvalue",
      "outputs": [
        {
          "name": "",
          "type": "uint256"
        }
      ],
      "payable": false,
      "stateMutability": "view",
      "type": "function",
      "signature": "0xd59f70be"
    },
    {
      "constant": true,
      "inputs": [
        {
          "name": "owner",
          "type": "address"
        },
        {
          "name": "spender",
          "type": "address"
        }
      ],
      "name": "allowance",
      "outputs": [
        {
          "name": "",
          "type": "uint256"
        }
      ],
      "payable": false,
      "stateMutability": "view",
      "type": "function",
      "signature": "0xdd62ed3e"
    },
    {
      "constant": false,
      "inputs": [
        {
          "name": "target",
          "type": "address"
        },
        {
          "name": "freeze",
          "type": "bool"
        }
      ],
      "name": "freezeAccount",
      "outputs": [],
      "payable": false,
      "stateMutability": "nonpayable",
      "type": "function",
      "signature": "0xe724529c"
    },
    {
      "constant": false,
      "inputs": [
        {
          "name": "_from",
          "type": "address"
        },
        {
          "name": "_to",
          "type": "address[]"
        },
        {
          "name": "value",
          "type": "uint256"
        },
        {
          "name": "buyergrade",
          "type": "uint8"
        }
      ],
      "name": "afterRealTimeTransaction",
      "outputs": [],
      "payable": false,
      "stateMutability": "nonpayable",
      "type": "function",
      "signature": "0xe764c6e1"
    },
    {
      "constant": false,
      "inputs": [],
      "name": "heyueTixian",
      "outputs": [],
      "payable": false,
      "stateMutability": "nonpayable",
      "type": "function",
      "signature": "0xeef71d6f"
    },
    {
      "constant": false,
      "inputs": [
        {
          "name": "newOwner",
          "type": "address"
        }
      ],
      "name": "transferOwnership",
      "outputs": [],
      "payable": false,
      "stateMutability": "nonpayable",
      "type": "function",
      "signature": "0xf2fde38b"
    },
    {
      "constant": true,
      "inputs": [],
      "name": "amount1",
      "outputs": [
        {
          "name": "",
          "type": "uint256"
        }
      ],
      "payable": false,
      "stateMutability": "view",
      "type": "function",
      "signature": "0xf400fde4"
    },
    {
      "constant": true,
      "inputs": [
        {
          "name": "who",
          "type": "address"
        },
        {
          "name": "i",
          "type": "uint256"
        }
      ],
      "name": "TotalbuyerpaymenORsellercollectionOnlyOwner",
      "outputs": [
        {
          "name": "",
          "type": "uint256"
        }
      ],
      "payable": false,
      "stateMutability": "view",
      "type": "function",
      "signature": "0xfdb38bcd"
    },
    {
      "payable": true,
      "stateMutability": "payable",
      "type": "fallback"
    },
    {
      "anonymous": false,
      "inputs": [
        {
          "indexed": false,
          "name": "seller",
          "type": "address"
        },
        {
          "indexed": false,
          "name": "fileNUmberList",
          "type": "uint256[]"
        },
        {
          "indexed": false,
          "name": "publicKeyCheck",
          "type": "string"
        }
      ],
      "name": "addTx",
      "type": "event",
      "signature": "0xc3eebc9cdbc07130e15fe44f4d0b5fbeeb52cb0be98e0282c4249ec6657996b1"
    },
    {
      "anonymous": false,
      "inputs": [
        {
          "indexed": false,
          "name": "buyerId",
          "type": "uint256"
        },
        {
          "indexed": false,
          "name": "publicKeyCheck",
          "type": "string"
        },
        {
          "indexed": false,
          "name": "ipOrEigenvalues",
          "type": "string"
        },
        {
          "indexed": false,
          "name": "duration",
          "type": "uint64"
        }
      ],
      "name": "addRealTimeTx",
      "type": "event",
      "signature": "0x1a32be2704981bde44de8613f56d25e84735c7435c934716c334b2cb00335b1c"
    },
    {
      "anonymous": false,
      "inputs": [
        {
          "indexed": false,
          "name": "i",
          "type": "uint256"
        }
      ],
      "name": "confirmTx",
      "type": "event",
      "signature": "0x801be060160611f44999389892b6b79359677ff2d431948a5c8b5a80e14a1ff8"
    },
    {
      "anonymous": false,
      "inputs": [
        {
          "indexed": false,
          "name": "i",
          "type": "uint256"
        }
      ],
      "name": "confirmRealTimeTx",
      "type": "event",
      "signature": "0x8b83e47b1af3f949d67804a4ab493fded8198468172c75006b4c7da507345c74"
    },
    {
      "anonymous": false,
      "inputs": [
        {
          "indexed": false,
          "name": "target",
          "type": "address"
        },
        {
          "indexed": false,
          "name": "success",
          "type": "bool"
        }
      ],
      "name": "SuccessFunds",
      "type": "event",
      "signature": "0x4656763aeb5076063b1b9201e728e03b650c4e545b46330125af5d01c01fae56"
    },
    {
      "anonymous": false,
      "inputs": [
        {
          "indexed": true,
          "name": "from",
          "type": "address"
        },
        {
          "indexed": true,
          "name": "to",
          "type": "address"
        },
        {
          "indexed": false,
          "name": "value",
          "type": "uint256"
        }
      ],
      "name": "Transfer",
      "type": "event",
      "signature": "0xddf252ad1be2c89b69c2b068fc378daa952ba7f163c4a11628f55a4df523b3ef"
    },
    {
      "anonymous": false,
      "inputs": [
        {
          "indexed": false,
          "name": "target",
          "type": "address"
        },
        {
          "indexed": false,
          "name": "frozen",
          "type": "bool"
        }
      ],
      "name": "FrozenFunds",
      "type": "event",
      "signature": "0x48335238b4855f35377ed80f164e8c6f3c366e54ac00b96a6402d4a9814a03a5"
    },
    {
      "anonymous": false,
      "inputs": [],
      "name": "Pause",
      "type": "event",
      "signature": "0x6985a02210a168e66602d3235cb6db0e70f92b3ba4d376a33c0f3d9434bff625"
    },
    {
      "anonymous": false,
      "inputs": [],
      "name": "Unpause",
      "type": "event",
      "signature": "0x7805862f689e2f13df9f062ff482ad3ad112aca9e0847911ed832e158c525b33"
    },
    {
      "constant": false,
      "inputs": [
        {
          "name": "_seller",
          "type": "address"
        },
        {
          "name": "_txType",
          "type": "uint8"
        },
        {
          "name": "_value",
          "type": "uint256"
        },
        {
          "name": "_buyerGrade",
          "type": "uint8"
        }
      ],
      "name": "buyData",
      "outputs": [
        {
          "name": "",
          "type": "uint256"
        }
      ],
      "payable": false,
      "stateMutability": "nonpayable",
      "type": "function",
      "signature": "0xb60d3b1d"
    },
    {
      "constant": false,
      "inputs": [
        {
          "name": "i",
          "type": "uint256"
        }
      ],
      "name": "refundData",
      "outputs": [],
      "payable": false,
      "stateMutability": "nonpayable",
      "type": "function",
      "signature": "0x4b160ef7"
    },
    {
      "constant": false,
      "inputs": [
        {
          "name": "i",
          "type": "uint256"
        }
      ],
      "name": "makeSureTx",
      "outputs": [],
      "payable": false,
      "stateMutability": "nonpayable",
      "type": "function",
      "signature": "0x9ee66913"
    },
    {
      "constant": false,
      "inputs": [
        {
          "name": "_publicKeyCheck",
          "type": "string"
        },
        {
          "name": "_ipOrEigenvalues",
          "type": "string"
        },
        {
          "name": "_value",
          "type": "uint256"
        },
        {
          "name": "_accountsNumber",
          "type": "uint32"
        },
        {
          "name": "_buyerGrade",
          "type": "uint8"
        },
        {
          "name": "_duration",
          "type": "uint64"
        },
        {
          "name": "_buyerId",
          "type": "uint256"
        }
      ],
      "name": "buyRealTimeData",
      "outputs": [
        {
          "name": "",
          "type": "uint256"
        }
      ],
      "payable": false,
      "stateMutability": "nonpayable",
      "type": "function",
      "signature": "0x8135224f"
    },
    {
      "constant": false,
      "inputs": [
        {
          "name": "addressList",
          "type": "address[]"
        }
      ],
      "name": "setAddress",
      "outputs": [],
      "payable": false,
      "stateMutability": "nonpayable",
      "type": "function",
      "signature": "0xa354d3f6"
    },
    {
      "constant": false,
      "inputs": [
        {
          "name": "i",
          "type": "uint256"
        }
      ],
      "name": "makeSureRealTimeTx",
      "outputs": [],
      "payable": false,
      "stateMutability": "nonpayable",
      "type": "function",
      "signature": "0x9e8c9a40"
    },
    {
      "constant": false,
      "inputs": [
        {
          "name": "i",
          "type": "uint256"
        }
      ],
      "name": "refundRealTime",
      "outputs": [],
      "payable": false,
      "stateMutability": "nonpayable",
      "type": "function",
      "signature": "0xfcbd7ae2"
    }
  ],
  "bytecode": "0x6000805460a060020a60ff02191690556003805460ff191660121790556009600555600a600655620186a060075560c0604052600260808190527f657200000000000000000000000000000000000000000000000000000000000060a09081526200006e916008919062000154565b506040805180820190915260018082527f65000000000000000000000000000000000000000000000000000000000000006020909201918252620000b59160099162000154565b506103e86019556064601a556024805433600160a060020a0319918216811790925560008054909116909117815560035460075460ff909116600a0a026004819055308252600b602052604090912055600880546200012991600191600261010082851615026000190190911604620001d9565b50600980546200014d916002916000196101006001831615020116829004620001d9565b5062000273565b828054600181600116156101000203166002900490600052602060002090601f016020900481019282601f106200019757805160ff1916838001178555620001c7565b82800160010185558215620001c7579182015b82811115620001c7578251825591602001919060010190620001aa565b50620001d592915062000253565b5090565b828054600181600116156101000203166002900490600052602060002090601f016020900481019282601f10620002145780548555620001c7565b82800160010185558215620001c757600052602060002091601f016020900482015b82811115620001c757825482559160010191906001019062000236565b6200027091905b80821115620001d557600081556001016200025a565b90565b613c0c80620002836000396000f3fe6080604052600436106102a85763ffffffff7c010000000000000000000000000000000000000000000000000000000060003504166302b090c181146102aa57806304a85dfa146102d157806305fefda71461039357806306fdde03146103c3578063095ea7b31461044d578063156660131461049a57806318160ddd146104d95780631ee71c71146104ee57806323b872dd1461053b578063286ad8601461057e5780632e1a7d4d146105b15780632f15ce7e146105db578063313ce56714610605578063378dc3dc14610630578063385fa147146106455780633eaaf86b1461065a578063448b331b1461066f5780634b160ef7146106a25780634cddae28146106cc5780635c975abb146106d45780636c02a931146106e95780636c982561146106fe5780636ebcf60714610737578063722713f71461076a5780637918447e1461077f57806379c65068146107945780637b61c320146107cd5780637c28248c146107e25780637d520ea6146108255780637fed80bb1461087a5780638135224f146108ad578063863e429914610a115780638da5cb5b14610a2657806391bbf43414610a3b57806392fb717414610a6b57806393faa45014610a8057806395d89b4114610a955780639bab5e4914610aaa5780639e8c9a4014610aed5780639ee6691314610b17578063a354d3f614610b41578063a9059cbb14610bf1578063b414d4b614610c2a578063b60d3b1d14610c5d578063ba0fb86114610ca9578063c2d6a0b314610ce4578063cea601e614610d0e578063ceaf7fb214610d47578063d59f70be14610d4f578063dd62ed3e14610d79578063e724529c14610db4578063e764c6e114610def578063eef71d6f14610eb7578063f2fde38b14610ecc578063f400fde414610eff578063fcbd7ae214610f14578063fdb38bcd14610f3e575b005b3480156102b657600080fd5b506102bf610f77565b60408051918252519081900360200190f35b3480156102dd57600080fd5b506102a8600480360360608110156102f457600080fd5b600160a060020a03823516919081019060408101602082013564010000000081111561031f57600080fd5b82018360208201111561033157600080fd5b8035906020019184602083028401116401000000008311171561035357600080fd5b9190808060200260200160405190810160405280939291908181526020018383602002808284376000920191909152509295505091359250610f7d915050565b34801561039f57600080fd5b506102a8600480360360408110156103b657600080fd5b5080359060200135611035565b3480156103cf57600080fd5b506103d8611079565b6040805160208082528351818301528351919283929083019185019080838360005b838110156104125781810151838201526020016103fa565b50505050905090810190601f16801561043f5780820380516001836020036101000a031916815260200191505b509250505060405180910390f35b34801561045957600080fd5b506104866004803603604081101561047057600080fd5b50600160a060020a038135169060200135611106565b604080519115158252519081900360200190f35b3480156104a657600080fd5b506102a8600480360360608110156104bd57600080fd5b5080359060208101359060400135600160a060020a0316611169565b3480156104e557600080fd5b506102bf611213565b3480156104fa57600080fd5b506102a86004803603608081101561051157600080fd5b508035600160a060020a03908116916020810135909116906040810135906060013560ff1661121a565b34801561054757600080fd5b506104866004803603606081101561055e57600080fd5b50600160a060020a038135811691602081013590911690604001356112d3565b34801561058a57600080fd5b506102bf600480360360208110156105a157600080fd5b5035600160a060020a03166113d9565b3480156105bd57600080fd5b506102a8600480360360208110156105d457600080fd5b5035611411565b3480156105e757600080fd5b506102bf600480360360208110156105fe57600080fd5b5035611475565b34801561061157600080fd5b5061061a6114b5565b6040805160ff9092168252519081900360200190f35b34801561063c57600080fd5b506102bf6114be565b34801561065157600080fd5b506104866114c4565b34801561066657600080fd5b506102bf611544565b34801561067b57600080fd5b506102bf6004803603602081101561069257600080fd5b5035600160a060020a031661154a565b3480156106ae57600080fd5b506102a8600480360360208110156106c557600080fd5b503561157e565b6102a8611694565b3480156106e057600080fd5b506104866116cb565b3480156106f557600080fd5b506103d86116db565b34801561070a57600080fd5b506102bf6004803603604081101561072157600080fd5b50600160a060020a038135169060200135611736565b34801561074357600080fd5b506102bf6004803603602081101561075a57600080fd5b5035600160a060020a031661179e565b34801561077657600080fd5b506102bf6117b0565b34801561078b57600080fd5b506102bf6117c3565b3480156107a057600080fd5b506102a8600480360360408110156107b757600080fd5b50600160a060020a0381351690602001356117c9565b3480156107d957600080fd5b506103d8611896565b3480156107ee57600080fd5b506102a86004803603606081101561080557600080fd5b50600160a060020a038135811691602081013590911690604001356118f1565b34801561083157600080fd5b5061085e6004803603604081101561084857600080fd5b50600160a060020a038135169060200135611946565b60408051600160a060020a039092168252519081900360200190f35b34801561088657600080fd5b506104866004803603602081101561089d57600080fd5b5035600160a060020a031661197d565b3480156108b957600080fd5b506102bf600480360360e08110156108d057600080fd5b8101906020810181356401000000008111156108eb57600080fd5b8201836020820111156108fd57600080fd5b8035906020019184600183028401116401000000008311171561091f57600080fd5b91908080601f016020809104026020016040519081016040528093929190818152602001838380828437600092019190915250929594936020810193503591505064010000000081111561097257600080fd5b82018360208201111561098457600080fd5b803590602001918460018302840111640100000000831117156109a657600080fd5b91908080601f01602080910402602001604051908101604052809392919081815260200183838082843760009201919091525092955050823593505063ffffffff6020830135169160ff604082013516915067ffffffffffffffff606082013516906080013561199b565b348015610a1d57600080fd5b506102bf611c98565b348015610a3257600080fd5b5061085e611c9d565b348015610a4757600080fd5b506102a860048036036040811015610a5e57600080fd5b5080359060200135611cac565b348015610a7757600080fd5b506102bf611ce5565b348015610a8c57600080fd5b50610486611cf8565b348015610aa157600080fd5b506103d8611d73565b348015610ab657600080fd5b506102a860048036036060811015610acd57600080fd5b50600160a060020a03813581169160208101359160409091013516611dcb565b348015610af957600080fd5b506102a860048036036020811015610b1057600080fd5b5035611e37565b348015610b2357600080fd5b506102a860048036036020811015610b3a57600080fd5b5035611fbd565b348015610b4d57600080fd5b506102a860048036036020811015610b6457600080fd5b810190602081018135640100000000811115610b7f57600080fd5b820183602082011115610b9157600080fd5b80359060200191846020830284011164010000000083111715610bb357600080fd5b919080806020026020016040519081016040528093929190818152602001838360200280828437600092019190915250929550612130945050505050565b348015610bfd57600080fd5b5061048660048036036040811015610c1457600080fd5b50600160a060020a038135169060200135612150565b348015610c3657600080fd5b5061048660048036036020811015610c4d57600080fd5b5035600160a060020a0316612180565b348015610c6957600080fd5b506102bf60048036036080811015610c8057600080fd5b50600160a060020a038135169060ff602082013581169160408101359160609091013516612195565b348015610cb557600080fd5b506102bf60048036036040811015610ccc57600080fd5b50600160a060020a0381358116916020013516612357565b348015610cf057600080fd5b506102bf60048036036020811015610d0757600080fd5b5035612374565b348015610d1a57600080fd5b506102bf60048036036040811015610d3157600080fd5b50600160a060020a0381351690602001356123aa565b6102a8612402565b348015610d5b57600080fd5b506102bf60048036036020811015610d7257600080fd5b503561241b565b348015610d8557600080fd5b506102bf60048036036040811015610d9c57600080fd5b50600160a060020a038135811691602001351661245b565b348015610dc057600080fd5b506102a860048036036040811015610dd757600080fd5b50600160a060020a0381351690602001351515612486565b348015610dfb57600080fd5b506102a860048036036080811015610e1257600080fd5b600160a060020a038235169190810190604081016020820135640100000000811115610e3d57600080fd5b820183602082011115610e4f57600080fd5b80359060200191846020830284011164010000000083111715610e7157600080fd5b919080806020026020016040519081016040528093929190818152602001838360200280828437600092019190915250929550508235935050506020013560ff16612518565b348015610ec357600080fd5b506102a861266b565b348015610ed857600080fd5b506102a860048036036020811015610eef57600080fd5b5035600160a060020a03166126f3565b348015610f0b57600080fd5b506102bf61274e565b348015610f2057600080fd5b506102a860048036036020811015610f3757600080fd5b5035612754565b348015610f4a57600080fd5b506102bf60048036036040811015610f6157600080fd5b50600160a060020a038135169060200135612886565b60065481565b60005460a060020a900460ff1615610f9457600080fd5b81518102601b819055610fa6906128ee565b601681905550610fb9308460165461293b565b60005b825181101561102f57610fe78382815181101515610fd657fe5b906020019060200201516001612a86565b6110078382815181101515610ff857fe5b90602001906020020151612b1e565b611027838281518110151561101857fe5b90602001906020020151612ce6565b600101610fbc565b50505050565b600054600160a060020a0316331461104c57600080fd5b60005460a060020a900460ff161561106357600080fd5b80821161107557600582905560068190555b5050565b60018054604080516020600284861615610100026000190190941693909304601f810184900484028201840190925281815292918301828280156110fe5780601f106110d3576101008083540402835291602001916110fe565b820191906000526020600020905b8154815290600101906020018083116110e157829003601f168201915b505050505081565b60008054600160a060020a0316331461111e57600080fd5b60005460a060020a900460ff161561113557600080fd5b5060008054600160a060020a039081168252600c602090815260408084209286168452919052902081905560015b92915050565b60005460a060020a900460ff161561118057600080fd5b600160a060020a0381166000908152600d602052604090205460ff16156111a657600080fd5b828202601b8190556111b7906128ee565b6016819055506111ca813060165461293b565b60408051600160a060020a03831681526001602082015281517f4656763aeb5076063b1b9201e728e03b650c4e545b46330125af5d01c01fae56929181900390910190a1505050565b6004545b90565b60005460a060020a900460ff161561123157600080fd5b61123a82612ead565b6017556112478284612efb565b601780549091019081905561125f903090859061293b565b61126a82858361322b565b60138190555061127d308560135461293b565b6112898483600161351c565b6112958383600261351c565b6112a184836001613590565b6112ad83836002613590565b6112b8836002612a86565b6112c183612ce6565b6112ca83612b1e565b61102f846135fb565b60008054600160a060020a031633146112eb57600080fd5b60005460a060020a900460ff161561130257600080fd5b60008054600160a060020a039081168252600c6020908152604080842092881684529190529020548211158061135d575060008054600160a060020a039081168252600c602090815260408084209288168452919052902054155b151561136857600080fd5b60008054600160a060020a039081168252600c602090815260408084209288168452919052902054156113c45760008054600160a060020a039081168252600c6020908152604080842092881684529190529020805483900390555b6113cf84848461293b565b5060019392505050565b60008054600160a060020a031633146113f157600080fd5b50600160a060020a0381166000908152601f60205260409020545b919050565b60005460a060020a900460ff161561142857600080fd5b60055481023031101561143a57600080fd5b61144533308361293b565b6005546040513391830280156108fc02916000818181858888f19350505050158015611075573d6000803e3d6000fd5b6000816001141561149657503360009081526021602052604090205461140c565b816002141561140c57503360009081526022602052604090205461140c565b60035460ff1681565b60075481565b60008054600160a060020a031633146114dc57600080fd5b60005460a060020a900460ff16156114f357600080fd5b6000805474ff0000000000000000000000000000000000000000191660a060020a1781556040517f6985a02210a168e66602d3235cb6db0e70f92b3ba4d376a33c0f3d9434bff6259190a150600190565b60045481565b60008054600160a060020a0316331461156257600080fd5b50600160a060020a03166000908152600b602052604090205490565b6024548190600160a060020a03163314806115bf575060258054829081106115a257fe5b6000918252602090912060049091020154600160a060020a031633145b15156115ca57600080fd5b60258054829081106115d857fe5b60009182526020909120600490910201600101547501000000000000000000000000000000000000000000900460ff161561161257600080fd5b61107560258381548110151561162457fe5b600091825260209091206004909102015460258054600160a060020a03909216918590811061164f57fe5b600091825260209091206001600490920201015460258054600160a060020a03909216918690811061167d57fe5b9060005260206000209060040201600201546118f1565b60005460a060020a900460ff16156116ab57600080fd5b6000600654348115156116ba57fe5b0490506116c830338361293b565b50565b60005460a060020a900460ff1681565b6008805460408051602060026001851615610100026000190190941693909304601f810184900484028201840190925281815292918301828280156110fe5780601f106110d3576101008083540402835291602001916110fe565b60008054600160a060020a0316331461174e57600080fd5b81600114156117765750600160a060020a0382166000908152601d6020526040902054611163565b81600214156111635750600160a060020a0382166000908152601e6020526040902054611163565b600b6020526000908152604090205481565b336000908152600b602052604090205490565b60055481565b600054600160a060020a031633146117e057600080fd5b60005460a060020a900460ff16156117f757600080fd5b600160a060020a0382166000908152600b602090815260408083208054850190556004805485019055805184815290513093927fddf252ad1be2c89b69c2b068fc378daa952ba7f163c4a11628f55a4df523b3ef928290030190a3604080518281529051600160a060020a0384169130917fddf252ad1be2c89b69c2b068fc378daa952ba7f163c4a11628f55a4df523b3ef9181900360200190a35050565b6009805460408051602060026001851615610100026000190190941693909304601f810184900484028201840190925281815292918301828280156110fe5780601f106110d3576101008083540402835291602001916110fe565b60005460a060020a900460ff161561190857600080fd5b611911816128ee565b601681905550611924308460165461293b565b61192f826001612a86565b61193882612b1e565b61194182612ce6565b505050565b60236020528160005260406000208181548110151561196157fe5b600091825260209091200154600160a060020a03169150829050565b600160a060020a03166000908152600d602052604090205460ff1690565b60006119a5613a09565b50604080516101208101825233815260208082018a81529282018b9052600060608301819052608083018a905263ffffffff891660a084015260ff881660c084015267ffffffffffffffff871660e08401526101008301869052602680546001810180835591909252835160079092027f744a2cf8fd7008e3d53b67916e73460df9fa5214e3ef23dd4259ca09493a359481018054600160a060020a039490941673ffffffffffffffffffffffffffffffffffffffff1990941693909317835594518051949591948694611a9d937f744a2cf8fd7008e3d53b67916e73460df9fa5214e3ef23dd4259ca09493a359501920190613a56565b5060408201518051611ab9916002840191602090910190613a56565b50606082015160038201805460ff19169115159190911790556080820151600482015560a082015160058201805460c085015160e086015163ffffffff1990921663ffffffff9485161764ff00000000191664010000000060ff90921691909102176cffffffffffffffff000000000019166501000000000067ffffffffffffffff9092169190910217905561010090920151600690910155611b60915087168833611169565b7f1a32be2704981bde44de8613f56d25e84735c7435c934716c334b2cb00335b1c838a8a876040518085815260200180602001806020018467ffffffffffffffff1667ffffffffffffffff168152602001838103835286818151815260200191508051906020019080838360005b83811015611be6578181015183820152602001611bce565b50505050905090810190601f168015611c135780820380516001836020036101000a031916815260200191505b50838103825285518152855160209182019187019080838360005b83811015611c46578181015183820152602001611c2e565b50505050905090810190601f168015611c735780820380516001836020036101000a031916815260200191505b50965050505050505060405180910390a1505060265460001901979650505050505050565b303190565b600054600160a060020a031681565b600054600160a060020a03163314611cc357600080fd5b60005460a060020a900460ff1615611cda57600080fd5b601991909155601a55565b336000908152601f602052604090205490565b60008054600160a060020a03163314611d1057600080fd5b60005460a060020a900460ff161515611d2857600080fd5b6000805474ff0000000000000000000000000000000000000000191681556040517f7805862f689e2f13df9f062ff482ad3ad112aca9e0847911ed832e158c525b339190a150600190565b6002805460408051602060018416156101000260001901909316849004601f810184900484028201840190925281815292918301828280156110fe5780601f106110d3576101008083540402835291602001916110fe565b60005460a060020a900460ff1615611de257600080fd5b600160a060020a0381166000908152600d602052604090205460ff1615611e0857600080fd5b600160a060020a0383166000908152600d602052604090205460ff1615611e2e57600080fd5b6111b7826128ee565b6024548190600160a060020a0316331480611e7857506026805482908110611e5b57fe5b6000918252602090912060079091020154600160a060020a031633145b1515611e8357600080fd5b6026805482908110611e9157fe5b600091825260209091206003600790920201015460ff1615611eb257600080fd5b336000818152602360209081526040918290208054835181840281018401909452808452611f6e949392830182828015611f1557602002820191906000526020600020905b8154600160a060020a03168152600190910190602001808311611ef7575b5050505050602685815481101515611f2957fe5b906000526020600020906007020160040154602686815481101515611f4a57fe5b906000526020600020906007020160050160049054906101000a900460ff16612518565b336000908152602360205260408120611f8691613ad4565b6040805183815290517f8b83e47b1af3f949d67804a4ab493fded8198468172c75006b4c7da507345c749181900360200190a15050565b6024548190600160a060020a0316331480611ffe57506025805482908110611fe157fe5b6000918252602090912060049091020154600160a060020a031633145b151561200957600080fd5b602580548290811061201757fe5b60009182526020909120600490910201600101547501000000000000000000000000000000000000000000900460ff161561205157600080fd5b6120f960258381548110151561206357fe5b600091825260209091206004909102015460258054600160a060020a03909216918590811061208e57fe5b600091825260209091206001600490920201015460258054600160a060020a0390921691869081106120bc57fe5b9060005260206000209060040201600201546025868154811015156120dd57fe5b600091825260209091206003600490920201015460ff1661121a565b6040805183815290517f801be060160611f44999389892b6b79359677ff2d431948a5c8b5a80e14a1ff89181900360200190a15050565b336000908152602360209081526040909120825161107592840190613af2565b6000805460a060020a900460ff161561216857600080fd5b6044361461217557600080fd5b61116333848461293b565b600d6020526000908152604090205460ff1681565b600061219f613b60565b506040805160c08101825233808252600160a060020a038881166020840190815260ff808a16958501958652600060608601818152608087018b81528a841660a08901908152602580546001810182559452885160049094027f401968ff42a154441da5f6c4c935ac46b8671f0e062baaa62a7545ba53bb6e4c8101805495891673ffffffffffffffffffffffffffffffffffffffff1996871617905595517f401968ff42a154441da5f6c4c935ac46b8671f0e062baaa62a7545ba53bb6e4d870180549b51945115157501000000000000000000000000000000000000000000027fffffffffffffffffffff00ffffffffffffffffffffffffffffffffffffffffff95881660a060020a0274ff00000000000000000000000000000000000000001993909a169c9096169b909b171696909617919091169190911790965594517f401968ff42a154441da5f6c4c935ac46b8671f0e062baaa62a7545ba53bb6e4e82015590517f401968ff42a154441da5f6c4c935ac46b8671f0e062baaa62a7545ba53bb6e4f90910180549190941660ff199091161790925590612346908588611dcb565b505060255460001901949350505050565b600c60209081526000928352604080842090915290825290205481565b3360009081526020805260408120826003811061238d57fe5b602081049091015460ff601f9092166101000a9004169050919050565b60008054600160a060020a031633146123c257600080fd5b600160a060020a0383166000908152602080526040902082600381106123e457fe5b602081049091015460ff601f9092166101000a900416905092915050565b60005460a060020a900460ff161561241957600080fd5b565b6000816001141561243c5750336000908152601d602052604090205461140c565b816002141561140c5750336000908152601e602052604090205461140c565b600160a060020a039182166000908152600c6020908152604080832093909416825291909152205490565b600054600160a060020a0316331461249d57600080fd5b60005460a060020a900460ff16156124b457600080fd5b600160a060020a0382166000818152600d6020908152604091829020805460ff191685151590811790915582519384529083015280517f48335238b4855f35377ed80f164e8c6f3c366e54ac00b96a6402d4a9814a03a59281900390910190a15050565b60005460a060020a900460ff161561252f57600080fd5b60005b835181101561262b5761254483612ead565b601755835161256a90849086908490811061255b57fe5b90602001906020020151612efb565b601780549091019055835161259990309086908490811061258757fe5b9060200190602002015160175461293b565b6125bc84828151811015156125aa57fe5b9060200190602002015184600261351c565b6125df84828151811015156125cd57fe5b90602001906020020151846002613590565b61260184828151811015156125f057fe5b906020019060200201516002612a86565b612612848281518110151561101857fe5b6126238482815181101515610ff857fe5b600101612532565b5061263a83518302858361322b565b60138190555061264d308560135461293b565b61265c8484518402600161351c565b6112ca84845184026001613590565b600054600160a060020a0316331461268257600080fd5b60005460a060020a900460ff161561269957600080fd5b600554306000818152600b60205260408082205460045403909302913191909103600a81905581549251600160a060020a03909316926108fc82150292818181858888f193505050501580156116c8573d6000803e3d6000fd5b600054600160a060020a0316331461270a57600080fd5b600160a060020a038116151561271f57600080fd5b6000805473ffffffffffffffffffffffffffffffffffffffff1916600160a060020a0392909216919091179055565b600a5481565b6024548190600160a060020a03163314806127955750602680548290811061277857fe5b6000918252602090912060079091020154600160a060020a031633145b15156127a057600080fd5b60268054829081106127ae57fe5b600091825260209091206003600790920201015460ff16156127cf57600080fd5b6110756026838154811015156127e157fe5b60009182526020808320600790920290910154338352602382526040928390208054845181850281018501909552808552600160a060020a03909216939290919083018282801561285b57602002820191906000526020600020905b8154600160a060020a0316815260019091019060200180831161283d575b505050505060268581548110151561286f57fe5b906000526020600020906007020160040154610f7d565b60008054600160a060020a0316331461289e57600080fd5b81600114156128c65750600160a060020a038216600090815260216020526040902054611163565b81600214156111635750600160a060020a038216600090815260226020526040902054611163565b6000805460a060020a900460ff161561290657600080fd5b6019548281151561291357fe5b0460158190551561292b576015548201601655612933565b600182016016555b505060165490565b600160a060020a038216151561295057600080fd5b600160a060020a0383166000908152600b602052604090205481111561297557600080fd5b600160a060020a0382166000908152600b6020526040902054818101101561299c57600080fd5b600160a060020a0383166000908152600d602052604090205460ff16156129c257600080fd5b600160a060020a0382166000908152600d602052604090205460ff16156129e857600080fd5b600160a060020a038083166000818152600b60209081526040808320805495891680855282852080548981039091559486905281548801909155815187815291519390950194927fddf252ad1be2c89b69c2b068fc378daa952ba7f163c4a11628f55a4df523b3ef929181900390910190a3600160a060020a038084166000908152600b602052604080822054928716825290205401811461102f57fe5b60005460a060020a900460ff1615612a9d57600080fd5b8060011415612adc57600160a060020a03821660009081526020805260409020805461ff001981166101009182900460ff908116600101169091021790555b80600214156110755750600160a060020a031660009081526020805260409020805462ff0000198116620100009182900460ff90811660010116909102179055565b60005460a060020a900460ff1615612b3557600080fd5b600160a060020a0381166000908152602080526040902054610100900460ff16600a1415612bf157600160a060020a038116600090815260208052604081205460ff161115612bb057600160a060020a03811660009081526020805260409020805460ff808216600019011660ff199091161761ff00191690555b600160a060020a038116600090815260208052604090205460ff161515612bf157600160a060020a03811660009081526020805260409020805460ff191690555b600160a060020a0381166000908152602080526040902054600a61010090910460ff1611156116c857600160a060020a038116600090815260208052604090208054601c8054600a60ff610100909404841604831660ff1990911617908190559154612c60928216911661362e565b601c805461ff00191661010060ff938416810291909117808355600160a060020a03851660009081526020805260409020805460ff198116928490048616908616038516919091178155915404909116600a029060015b60208104909101805460ff601f9093166101000a80820484169490940383168402929093021990921617905550565b60005460a060020a900460ff1615612cfd57600080fd5b600160a060020a038116600090815260208052604090205462010000900460ff1660321415612dc657600160a060020a0381166000908152602080526040902054602860ff9091161015612d8057600160a060020a038116600090815260208052604090208054600160ff808316919091011660ff199091161762ff0000191690555b600160a060020a038116600090815260208052604090205460ff1660281415612dc657600160a060020a03811660009081526020805260409020805460ff191660281790555b600160a060020a038116600090815260208052604090205460326201000090910460ff1611156116c857600160a060020a038116600090815260208052604090208054601c805462ff000019166032620100009384900460ff908116919091048116840291909117918290559254612e4893929091048216911660280361362e565b601c805460ff928316630100000090810263ff0000001990921691909117808355600160a060020a03851660009081526020805260409020805460ff198116908616928490048616929092018516919091178155915404909116603202906002612cb7565b6000805460a060020a900460ff1615612ec557600080fd5b601a5482811515612ed257fe5b04601881905515612eea576018548203601755612ef3565b60001982016017555b505060175490565b6000805460a060020a900460ff1615612f1357600080fd5b601a5483811515612f2057fe5b04601855600160a060020a0382166000908152602080526040902054601c805466ff000000000000191660ff92831666010000000000009081029190911791829055900416612f7083600261364c565b612f798461375a565b601c805465ff0000000000191665010000000000929093019390930160ff90811682029290921792839055606492041611801590612fc75750601c54605a6501000000000090910460ff1610155b15612fda57601854600a90600902046014555b601c54605a6501000000000090910460ff161080156130095750601c5460506501000000000090910460ff1610155b1561301c57601854600a90600802046014555b601c5460506501000000000090910460ff1610801561304b5750601c5460466501000000000090910460ff1610155b1561305e57601854600a90600702046014555b601c5460466501000000000090910460ff1610801561308d5750601c54603c6501000000000090910460ff1610155b156130a057601854600a90600602046014555b601c54603c6501000000000090910460ff161080156130cf5750601c5460326501000000000090910460ff1610155b156130e257601854600a90600502046014555b601c5460326501000000000090910460ff161080156131115750601c5460286501000000000090910460ff1610155b1561312457601854600a90600402046014555b601c5460286501000000000090910460ff161080156131535750601c54601e6501000000000090910460ff1610155b1561316657601854600a90600302046014555b601c54601e6501000000000090910460ff161080156131955750601c5460146501000000000090910460ff1610155b156131a857601854600a90600202046014555b601c5460146501000000000090910460ff161080156131d75750601c54600a6501000000000090910460ff1610155b156131e757601854600a90046014555b601c54600a6501000000000090910460ff161080156132165750601c5460006501000000000090910460ff1610155b156132215760006014555b5060145492915050565b6000805460a060020a900460ff161561324357600080fd5b6019548481151561325057fe5b0460155561325d8261382b565b61326884600161364c565b6132718561387d565b61327a8661394b565b010101601c60046101000a81548160ff021916908360ff1602179055506064601c60049054906101000a900460ff1660ff16111580156132c95750601c54605a64010000000090910460ff1610155b156132dc57601554600a90600902046013555b601c54605a64010000000090910460ff161080156133095750601c54605064010000000090910460ff1610155b1561331c57601554600a90600802046013555b601c54605064010000000090910460ff161080156133495750601c54604664010000000090910460ff1610155b1561335c57601554600a90600702046013555b601c54604664010000000090910460ff161080156133895750601c54603c64010000000090910460ff1610155b1561339c57601554600a90600602046013555b601c54603c64010000000090910460ff161080156133c95750601c54603264010000000090910460ff1610155b156133dc57601554600a90600502046013555b601c54603264010000000090910460ff161080156134095750601c54602864010000000090910460ff1610155b1561341c57601554600a90600402046013555b601c54602864010000000090910460ff161080156134495750601c54601e64010000000090910460ff1610155b1561345c57601554600a90600302046013555b601c54601e64010000000090910460ff161080156134895750601c54601464010000000090910460ff1610155b1561349c57601554600a90600202046013555b601c54601464010000000090910460ff161080156134c95750601c54600a64010000000090910460ff1610155b156134d957601554600a90046013555b601c54600a64010000000090910460ff161080156135065750601c54600064010000000090910460ff1610155b156135115760006013555b506013549392505050565b60005460a060020a900460ff161561353357600080fd5b6107d0821061194157806001141561356557600160a060020a0383166000908152601d60205260409020805460010190555b8060021415611941575050600160a060020a03166000908152601e6020526040902080546001019055565b60005460a060020a900460ff16156135a757600080fd5b80600114156135cf57600160a060020a03831660009081526021602052604090208054830190555b806002141561194157600160a060020a0383166000908152602260205260409020805483019055505050565b60005460a060020a900460ff161561361257600080fd5b600160a060020a03166000908152601f60205260409020429055565b60008160ff168360ff16106136435781613645565b825b9392505050565b6000805460a060020a900460ff161561366457600080fd5b816001141561368a57600160a060020a0383166000908152602160205260409020546010555b81600214156136b057600160a060020a0383166000908152602260205260409020546010555b6010546301312d00116136c557506014611163565b6301312d006010541080156136df5750621e848060105410155b156136ec5750600f611163565b621e8480601054108015613705575062030d4060105410155b156137125750600a611163565b62030d4060105410801561372a5750614e2060105410155b1561373757506005611163565b614e2060105410801561374d5750600060105410155b1561116357506000611163565b6000805460a060020a900460ff161561377257600080fd5b600160a060020a0382166000908152601e60205260409020546012819055612710116137a05750602861140c565b6127106012541080156137b757506103e860125410155b156137c45750601e61140c565b6103e86012541080156137da5750606460125410155b156137e75750601461140c565b60646012541080156137fc5750600a60125410155b156138095750600a61140c565b600a60125410801561381e5750600060125410155b1561140c5750600061140c565b6000805460a060020a900460ff161561384357600080fd5b60ff821615156138555750600a61140c565b8160ff16600114156138695750601461140c565b8160ff166002141561140c5750601e61140c565b6000805460a060020a900460ff161561389557600080fd5b600160a060020a0382166000908152601d60205260409020546011819055612710116138c35750601461140c565b6127106011541080156138da57506103e860115410155b156138e75750600f61140c565b6103e86011541080156138fd5750606460115410155b1561390a5750600a61140c565b606460115410801561391f5750600a60115410155b1561392c5750600561140c565b600a60115410801561381e575060115460001161140c5750600061140c565b6000805460a060020a900460ff161561396357600080fd5b600160a060020a0382166000908152601f6020526040902054600e8190554203600f8190556276a700116139995750600061140c565b600f546276a7001180156139b2575062278d00600f5410155b156139bf5750600a61140c565b62278d00600f541080156139d85750600f546203f48011155b156139e55750601461140c565b600f546203f4801180156139fc57506000600f5410155b1561140c5750601e61140c565b604080516101208101825260008082526060602083018190529282018390529181018290526080810182905260a0810182905260c0810182905260e0810182905261010081019190915290565b828054600181600116156101000203166002900490600052602060002090601f016020900481019282601f10613a9757805160ff1916838001178555613ac4565b82800160010185558215613ac4579182015b82811115613ac4578251825591602001919060010190613aa9565b50613ad0929150613b95565b5090565b50805460008255906000526020600020908101906116c89190613b95565b828054828255906000526020600020908101928215613b54579160200282015b82811115613b54578251825473ffffffffffffffffffffffffffffffffffffffff1916600160a060020a03909116178255602090920191600190910190613b12565b50613ad0929150613baf565b6040805160c081018252600080825260208201819052918101829052606081018290526080810182905260a081019190915290565b61121791905b80821115613ad05760008155600101613b9b565b61121791905b80821115613ad057805473ffffffffffffffffffffffffffffffffffffffff19168155600101613bb556fea165627a7a72305820a72c9bc56923dbebab4d8f513c3a10b59e1dfa3750996e5334532d2e327627060029",
  "source": "pragma solidity ^0.5.0;\r\n\r\nimport './transaction.sol';\r\n\r\ncontract TxControl is transaction {\r\n    \r\n    struct txSave{  \r\n        address buyer;  \r\n        address seller;  \r\n        uint8 txType; \r\n        bool txStatus; \r\n        uint256 value;  \r\n        uint8 buyerGrade;  \r\n    } \r\n    struct txSaveRealTime{  \r\n        address buyer;  \r\n        string ipOrEigenvalues;  \r\n        string publicKeyCheck;  \r\n        bool txStatus;  \r\n        uint256 value;  \r\n        uint32 accountsNumber;  \r\n        uint8 buyerGrade; \r\n        uint64 duration;  \r\n        uint256 buyerId;\r\n    }\r\n\r\n    mapping(address => address[]) public collectionAddress;  \r\n    address owner = msg.sender;\r\n    txSave[] txList;  \r\n    txSaveRealTime[] txRealTimeList;  \r\n    event addTx(address seller, uint256[] fileNUmberList, string publicKeyCheck);  //\r\n    event addRealTimeTx(uint256 buyerId, string publicKeyCheck, string ipOrEigenvalues, uint64 duration);\r\n    event confirmTx(uint256 i); \r\n    event confirmRealTimeTx(uint256 i); \r\n\r\n    modifier onlyOwnerOrBuyerTx(uint256 i){  \r\n        require(owner == msg.sender || msg.sender == txList[i].buyer);\r\n        require(!txList[i].txStatus);\r\n        _;\r\n    }\r\n\r\n    modifier onlyOwnerOrBuyerRealTimeTx(uint256 i){  \r\n        require(owner == msg.sender || msg.sender == txRealTimeList[i].buyer);\r\n        require(!txRealTimeList[i].txStatus);\r\n        _;\r\n    }\r\n\r\n\r\n    function () payable external { } \r\n    \r\n\r\n    function buyData(address _seller, uint8 _txType, uint256 _value, uint8 _buyerGrade) public returns(uint256){\r\n        txSave memory txData = txSave({\r\n            buyer: msg.sender,\r\n            seller: _seller,\r\n            txType: _txType,\r\n            txStatus: false,\r\n            value: _value,\r\n            buyerGrade: _buyerGrade\r\n        });\r\n        txList.push(txData);\r\n        beforeDataTransaction(msg.sender, _value, _seller);\r\n        return txList.length - 1;\r\n    } \r\n\r\n    function refundData(uint256 i) public onlyOwnerOrBuyerTx(i) {\r\n        dataTransactionRefund(txList[i].buyer,txList[i].seller, txList[i].value);\r\n    }\r\n\r\n    function makeSureTx(uint256 i) public onlyOwnerOrBuyerTx(i){\r\n        afterDataTransaction(txList[i].buyer,txList[i].seller, txList[i].value, txList[i].buyerGrade);\r\n        emit confirmTx(i);\r\n    }\r\n\r\n\r\n    function buyRealTimeData(string memory _publicKeyCheck, string memory _ipOrEigenvalues, uint256 _value, uint32 _accountsNumber, uint8 _buyerGrade, uint64 _duration, uint256 _buyerId) public returns(uint256){\r\n        txSaveRealTime memory txRealTimeData = txSaveRealTime({\r\n            buyer: msg.sender,\r\n            publicKeyCheck: _publicKeyCheck,\r\n            ipOrEigenvalues: _ipOrEigenvalues,\r\n            txStatus: false,\r\n            value: _value,\r\n            accountsNumber: _accountsNumber,\r\n            buyerGrade: _buyerGrade,\r\n            duration: _duration,\r\n            buyerId: _buyerId\r\n        });\r\n        txRealTimeList.push(txRealTimeData);\r\n        beforeRealTimeTransaction(_accountsNumber,_value, msg.sender );\r\n        emit addRealTimeTx(_buyerId, _publicKeyCheck, _ipOrEigenvalues, _duration);\r\n        return txRealTimeList.length - 1;\r\n    }\r\n\r\n    function setAddress(address[] memory addressList) public {\r\n        collectionAddress[msg.sender] = addressList;\r\n    }\r\n\r\n    function makeSureRealTimeTx(uint256 i) public onlyOwnerOrBuyerRealTimeTx(i){\r\n        afterRealTimeTransaction(msg.sender, collectionAddress[msg.sender], txRealTimeList[i].value, txRealTimeList[i].buyerGrade);\r\n        delete collectionAddress[msg.sender];\r\n        emit confirmRealTimeTx(i);\r\n    }\r\n\r\n    function refundRealTime(uint256 i) public onlyOwnerOrBuyerRealTimeTx(i) {\r\n        realTimeTransactionRefund(txRealTimeList[i].buyer, collectionAddress[msg.sender], txRealTimeList[i].value);\r\n    }  \r\n}",
  "sourcePath": "G:/my_wallet/contracts/TxControl.sol",
  "compiler": {
    "name": "solc",
    "version": "0.5.0+commit.1d4f565a.Emscripten.clang"
  },
  "schemaVersion": "3.0.5",
  "updatedAt": "2019-05-07T01:32:13.519Z",
  "devdoc": {
    "methods": {}
  },
  "userdoc": {
    "methods": {}
  }
}