{
  "contractName": "TxControl",
  "abi": [
    {
      "constant": true,
      "inputs": [],
      "name": "rechargePrice",
      "outputs": [
        {
          "name": "",
          "type": "uint256"
        }
      ],
      "payable": false,
      "stateMutability": "view",
      "type": "function",
      "signature": "0x02b090c1"
    },
    {
      "constant": false,
      "inputs": [
        {
          "name": "_from",
          "type": "address"
        },
        {
          "name": "_to",
          "type": "address[]"
        },
        {
          "name": "value",
          "type": "uint256"
        }
      ],
      "name": "realTimeTransactionRefund",
      "outputs": [],
      "payable": false,
      "stateMutability": "nonpayable",
      "type": "function",
      "signature": "0x04a85dfa"
    },
    {
      "constant": false,
      "inputs": [
        {
          "name": "newwithdrawPrice",
          "type": "uint256"
        },
        {
          "name": "newrechargePrice",
          "type": "uint256"
        }
      ],
      "name": "setPrices",
      "outputs": [],
      "payable": false,
      "stateMutability": "nonpayable",
      "type": "function",
      "signature": "0x05fefda7"
    },
    {
      "constant": true,
      "inputs": [],
      "name": "name",
      "outputs": [
        {
          "name": "",
          "type": "string"
        }
      ],
      "payable": false,
      "stateMutability": "view",
      "type": "function",
      "signature": "0x06fdde03"
    },
    {
      "constant": false,
      "inputs": [
        {
          "name": "_spender",
          "type": "address"
        },
        {
          "name": "_value",
          "type": "uint256"
        }
      ],
      "name": "approve",
      "outputs": [
        {
          "name": "",
          "type": "bool"
        }
      ],
      "payable": false,
      "stateMutability": "nonpayable",
      "type": "function",
      "signature": "0x095ea7b3"
    },
    {
      "constant": false,
      "inputs": [
        {
          "name": "addressNumber",
          "type": "uint256"
        },
        {
          "name": "value",
          "type": "uint256"
        },
        {
          "name": "_from",
          "type": "address"
        }
      ],
      "name": "beforeRealTimeTransaction",
      "outputs": [],
      "payable": false,
      "stateMutability": "nonpayable",
      "type": "function",
      "signature": "0x15666013"
    },
    {
      "constant": true,
      "inputs": [],
      "name": "totalSupply",
      "outputs": [
        {
          "name": "",
          "type": "uint256"
        }
      ],
      "payable": false,
      "stateMutability": "view",
      "type": "function",
      "signature": "0x18160ddd"
    },
    {
      "constant": false,
      "inputs": [
        {
          "name": "_from",
          "type": "address"
        },
        {
          "name": "_to",
          "type": "address"
        },
        {
          "name": "totalprice",
          "type": "uint256"
        },
        {
          "name": "buyergrade",
          "type": "uint8"
        }
      ],
      "name": "afterDataTransaction",
      "outputs": [],
      "payable": false,
      "stateMutability": "nonpayable",
      "type": "function",
      "signature": "0x1ee71c71"
    },
    {
      "constant": false,
      "inputs": [
        {
          "name": "_from",
          "type": "address"
        },
        {
          "name": "_to",
          "type": "address"
        },
        {
          "name": "_value",
          "type": "uint256"
        }
      ],
      "name": "transferFrom",
      "outputs": [
        {
          "name": "",
          "type": "bool"
        }
      ],
      "payable": false,
      "stateMutability": "nonpayable",
      "type": "function",
      "signature": "0x23b872dd"
    },
    {
      "constant": true,
      "inputs": [
        {
          "name": "who",
          "type": "address"
        }
      ],
      "name": "LastbuytimeOnlyOwner",
      "outputs": [
        {
          "name": "",
          "type": "uint256"
        }
      ],
      "payable": false,
      "stateMutability": "view",
      "type": "function",
      "signature": "0x286ad860"
    },
    {
      "constant": false,
      "inputs": [
        {
          "name": "amount",
          "type": "uint256"
        }
      ],
      "name": "withdraw",
      "outputs": [],
      "payable": false,
      "stateMutability": "nonpayable",
      "type": "function",
      "signature": "0x2e1a7d4d"
    },
    {
      "constant": true,
      "inputs": [
        {
          "name": "i",
          "type": "uint256"
        }
      ],
      "name": "TotalbuyerpaymenORsellercollection",
      "outputs": [
        {
          "name": "",
          "type": "uint256"
        }
      ],
      "payable": false,
      "stateMutability": "view",
      "type": "function",
      "signature": "0x2f15ce7e"
    },
    {
      "constant": true,
      "inputs": [
        {
          "name": "owner",
          "type": "address"
        },
        {
          "name": "spender",
          "type": "address"
        }
      ],
      "name": "allowanceOnlyOwner",
      "outputs": [
        {
          "name": "",
          "type": "uint256"
        }
      ],
      "payable": false,
      "stateMutability": "view",
      "type": "function",
      "signature": "0x2f1d1a03"
    },
    {
      "constant": true,
      "inputs": [],
      "name": "decimals",
      "outputs": [
        {
          "name": "",
          "type": "uint8"
        }
      ],
      "payable": false,
      "stateMutability": "view",
      "type": "function",
      "signature": "0x313ce567"
    },
    {
      "constant": true,
      "inputs": [],
      "name": "initialSupply",
      "outputs": [
        {
          "name": "",
          "type": "uint256"
        }
      ],
      "payable": false,
      "stateMutability": "view",
      "type": "function",
      "signature": "0x378dc3dc"
    },
    {
      "constant": false,
      "inputs": [],
      "name": "pauseTransaction",
      "outputs": [
        {
          "name": "",
          "type": "bool"
        }
      ],
      "payable": false,
      "stateMutability": "nonpayable",
      "type": "function",
      "signature": "0x385fa147"
    },
    {
      "constant": true,
      "inputs": [],
      "name": "_totalSupply",
      "outputs": [
        {
          "name": "",
          "type": "uint256"
        }
      ],
      "payable": false,
      "stateMutability": "view",
      "type": "function",
      "signature": "0x3eaaf86b"
    },
    {
      "constant": true,
      "inputs": [
        {
          "name": "who",
          "type": "address"
        }
      ],
      "name": "balanceOfOnlyOwner",
      "outputs": [
        {
          "name": "",
          "type": "uint256"
        }
      ],
      "payable": false,
      "stateMutability": "view",
      "type": "function",
      "signature": "0x448b331b"
    },
    {
      "constant": false,
      "inputs": [],
      "name": "recharge",
      "outputs": [],
      "payable": true,
      "stateMutability": "payable",
      "type": "function",
      "signature": "0x4cddae28"
    },
    {
      "constant": true,
      "inputs": [],
      "name": "paused",
      "outputs": [
        {
          "name": "",
          "type": "bool"
        }
      ],
      "payable": false,
      "stateMutability": "view",
      "type": "function",
      "signature": "0x5c975abb"
    },
    {
      "constant": true,
      "inputs": [],
      "name": "tokenName",
      "outputs": [
        {
          "name": "",
          "type": "string"
        }
      ],
      "payable": false,
      "stateMutability": "view",
      "type": "function",
      "signature": "0x6c02a931"
    },
    {
      "constant": true,
      "inputs": [
        {
          "name": "who",
          "type": "address"
        },
        {
          "name": "i",
          "type": "uint256"
        }
      ],
      "name": "contributionvalueOnlyOwner",
      "outputs": [
        {
          "name": "",
          "type": "uint256"
        }
      ],
      "payable": false,
      "stateMutability": "view",
      "type": "function",
      "signature": "0x6c982561"
    },
    {
      "constant": true,
      "inputs": [
        {
          "name": "",
          "type": "address"
        }
      ],
      "name": "_balances",
      "outputs": [
        {
          "name": "",
          "type": "uint256"
        }
      ],
      "payable": false,
      "stateMutability": "view",
      "type": "function",
      "signature": "0x6ebcf607"
    },
    {
      "constant": true,
      "inputs": [],
      "name": "balanceOf",
      "outputs": [
        {
          "name": "",
          "type": "uint256"
        }
      ],
      "payable": false,
      "stateMutability": "view",
      "type": "function",
      "signature": "0x722713f7"
    },
    {
      "constant": true,
      "inputs": [],
      "name": "withdrawPrice",
      "outputs": [
        {
          "name": "",
          "type": "uint256"
        }
      ],
      "payable": false,
      "stateMutability": "view",
      "type": "function",
      "signature": "0x7918447e"
    },
    {
      "constant": false,
      "inputs": [
        {
          "name": "target",
          "type": "address"
        },
        {
          "name": "mintedAmount",
          "type": "uint256"
        }
      ],
      "name": "mintToken",
      "outputs": [],
      "payable": false,
      "stateMutability": "nonpayable",
      "type": "function",
      "signature": "0x79c65068"
    },
    {
      "constant": true,
      "inputs": [],
      "name": "tokenSymbol",
      "outputs": [
        {
          "name": "",
          "type": "string"
        }
      ],
      "payable": false,
      "stateMutability": "view",
      "type": "function",
      "signature": "0x7b61c320"
    },
    {
      "constant": false,
      "inputs": [
        {
          "name": "_from",
          "type": "address"
        },
        {
          "name": "_to",
          "type": "address"
        },
        {
          "name": "totalprice",
          "type": "uint256"
        }
      ],
      "name": "dataTransactionRefund",
      "outputs": [],
      "payable": false,
      "stateMutability": "nonpayable",
      "type": "function",
      "signature": "0x7c28248c"
    },
    {
      "constant": true,
      "inputs": [
        {
          "name": "",
          "type": "address"
        },
        {
          "name": "",
          "type": "uint256"
        }
      ],
      "name": "collectionAddress",
      "outputs": [
        {
          "name": "",
          "type": "address"
        }
      ],
      "payable": false,
      "stateMutability": "view",
      "type": "function",
      "signature": "0x7d520ea6"
    },
    {
      "constant": true,
      "inputs": [
        {
          "name": "account",
          "type": "address"
        }
      ],
      "name": "ifAccountFrozenOnlyOwner",
      "outputs": [
        {
          "name": "",
          "type": "bool"
        }
      ],
      "payable": false,
      "stateMutability": "view",
      "type": "function",
      "signature": "0x83578925"
    },
    {
      "constant": true,
      "inputs": [],
      "name": "heyueYitaibi",
      "outputs": [
        {
          "name": "",
          "type": "uint256"
        }
      ],
      "payable": false,
      "stateMutability": "view",
      "type": "function",
      "signature": "0x863e4299"
    },
    {
      "constant": true,
      "inputs": [],
      "name": "owner",
      "outputs": [
        {
          "name": "",
          "type": "address"
        }
      ],
      "payable": false,
      "stateMutability": "view",
      "type": "function",
      "signature": "0x8da5cb5b"
    },
    {
      "constant": false,
      "inputs": [
        {
          "name": "newfeeProportion",
          "type": "uint256"
        },
        {
          "name": "newcommissionProportion",
          "type": "uint256"
        }
      ],
      "name": "setProportion",
      "outputs": [],
      "payable": false,
      "stateMutability": "nonpayable",
      "type": "function",
      "signature": "0x91bbf434"
    },
    {
      "constant": true,
      "inputs": [],
      "name": "Lastbuytime",
      "outputs": [
        {
          "name": "",
          "type": "uint256"
        }
      ],
      "payable": false,
      "stateMutability": "view",
      "type": "function",
      "signature": "0x92fb7174"
    },
    {
      "constant": false,
      "inputs": [],
      "name": "unpauseTransaction",
      "outputs": [
        {
          "name": "",
          "type": "bool"
        }
      ],
      "payable": false,
      "stateMutability": "nonpayable",
      "type": "function",
      "signature": "0x93faa450"
    },
    {
      "constant": true,
      "inputs": [],
      "name": "symbol",
      "outputs": [
        {
          "name": "",
          "type": "string"
        }
      ],
      "payable": false,
      "stateMutability": "view",
      "type": "function",
      "signature": "0x95d89b41"
    },
    {
      "constant": true,
      "inputs": [],
      "name": "ifAccountFrozen",
      "outputs": [
        {
          "name": "",
          "type": "bool"
        }
      ],
      "payable": false,
      "stateMutability": "view",
      "type": "function",
      "signature": "0x98611fa9"
    },
    {
      "constant": false,
      "inputs": [
        {
          "name": "_to",
          "type": "address"
        },
        {
          "name": "totalprice",
          "type": "uint256"
        },
        {
          "name": "_from",
          "type": "address"
        }
      ],
      "name": "beforeDataTransaction",
      "outputs": [],
      "payable": false,
      "stateMutability": "nonpayable",
      "type": "function",
      "signature": "0x9bab5e49"
    },
    {
      "constant": false,
      "inputs": [
        {
          "name": "_to",
          "type": "address"
        },
        {
          "name": "_value",
          "type": "uint256"
        }
      ],
      "name": "transfer",
      "outputs": [
        {
          "name": "",
          "type": "bool"
        }
      ],
      "payable": false,
      "stateMutability": "nonpayable",
      "type": "function",
      "signature": "0xa9059cbb"
    },
    {
      "constant": true,
      "inputs": [
        {
          "name": "",
          "type": "address"
        }
      ],
      "name": "frozenAccount",
      "outputs": [
        {
          "name": "",
          "type": "bool"
        }
      ],
      "payable": false,
      "stateMutability": "view",
      "type": "function",
      "signature": "0xb414d4b6"
    },
    {
      "constant": true,
      "inputs": [
        {
          "name": "",
          "type": "address"
        },
        {
          "name": "",
          "type": "address"
        }
      ],
      "name": "_allowed",
      "outputs": [
        {
          "name": "",
          "type": "uint256"
        }
      ],
      "payable": false,
      "stateMutability": "view",
      "type": "function",
      "signature": "0xba0fb861"
    },
    {
      "constant": true,
      "inputs": [
        {
          "name": "i",
          "type": "uint256"
        }
      ],
      "name": "Sellercredit",
      "outputs": [
        {
          "name": "",
          "type": "uint256"
        }
      ],
      "payable": false,
      "stateMutability": "view",
      "type": "function",
      "signature": "0xc2d6a0b3"
    },
    {
      "constant": true,
      "inputs": [
        {
          "name": "who",
          "type": "address"
        },
        {
          "name": "i",
          "type": "uint256"
        }
      ],
      "name": "SellercreditOnlyOwner",
      "outputs": [
        {
          "name": "",
          "type": "uint256"
        }
      ],
      "payable": false,
      "stateMutability": "view",
      "type": "function",
      "signature": "0xcea601e6"
    },
    {
      "constant": false,
      "inputs": [],
      "name": "transferHeyue",
      "outputs": [],
      "payable": true,
      "stateMutability": "payable",
      "type": "function",
      "signature": "0xceaf7fb2"
    },
    {
      "constant": true,
      "inputs": [
        {
          "name": "i",
          "type": "uint256"
        }
      ],
      "name": "contributionvalue",
      "outputs": [
        {
          "name": "",
          "type": "uint256"
        }
      ],
      "payable": false,
      "stateMutability": "view",
      "type": "function",
      "signature": "0xd59f70be"
    },
    {
      "constant": true,
      "inputs": [],
      "name": "tSymbol",
      "outputs": [
        {
          "name": "",
          "type": "string"
        }
      ],
      "payable": false,
      "stateMutability": "view",
      "type": "function",
      "signature": "0xd6aea001"
    },
    {
      "constant": true,
      "inputs": [],
      "name": "tName",
      "outputs": [
        {
          "name": "",
          "type": "string"
        }
      ],
      "payable": false,
      "stateMutability": "view",
      "type": "function",
      "signature": "0xdbd41799"
    },
    {
      "constant": false,
      "inputs": [
        {
          "name": "target",
          "type": "address"
        },
        {
          "name": "freeze",
          "type": "bool"
        }
      ],
      "name": "freezeAccount",
      "outputs": [],
      "payable": false,
      "stateMutability": "nonpayable",
      "type": "function",
      "signature": "0xe724529c"
    },
    {
      "constant": false,
      "inputs": [],
      "name": "heyueTixian",
      "outputs": [],
      "payable": false,
      "stateMutability": "nonpayable",
      "type": "function",
      "signature": "0xeef71d6f"
    },
    {
      "constant": false,
      "inputs": [
        {
          "name": "newOwner",
          "type": "address"
        }
      ],
      "name": "transferOwnership",
      "outputs": [],
      "payable": false,
      "stateMutability": "nonpayable",
      "type": "function",
      "signature": "0xf2fde38b"
    },
    {
      "constant": true,
      "inputs": [],
      "name": "amount1",
      "outputs": [
        {
          "name": "",
          "type": "uint256"
        }
      ],
      "payable": false,
      "stateMutability": "view",
      "type": "function",
      "signature": "0xf400fde4"
    },
    {
      "constant": false,
      "inputs": [
        {
          "name": "addressNumber",
          "type": "uint256"
        },
        {
          "name": "_from",
          "type": "address"
        },
        {
          "name": "_to",
          "type": "address[]"
        },
        {
          "name": "value",
          "type": "uint256"
        },
        {
          "name": "buyergrade",
          "type": "uint8"
        }
      ],
      "name": "afterRealTimeTransaction",
      "outputs": [],
      "payable": false,
      "stateMutability": "nonpayable",
      "type": "function",
      "signature": "0xf569c684"
    },
    {
      "constant": true,
      "inputs": [
        {
          "name": "who",
          "type": "address"
        },
        {
          "name": "i",
          "type": "uint256"
        }
      ],
      "name": "TotalbuyerpaymenORsellercollectionOnlyOwner",
      "outputs": [
        {
          "name": "",
          "type": "uint256"
        }
      ],
      "payable": false,
      "stateMutability": "view",
      "type": "function",
      "signature": "0xfdb38bcd"
    },
    {
      "payable": true,
      "stateMutability": "payable",
      "type": "fallback"
    },
    {
      "anonymous": false,
      "inputs": [
        {
          "indexed": false,
          "name": "seller",
          "type": "address"
        },
        {
          "indexed": false,
          "name": "fileNUmberList",
          "type": "uint256[]"
        },
        {
          "indexed": false,
          "name": "publicKeyCheck",
          "type": "string"
        }
      ],
      "name": "addTx",
      "type": "event",
      "signature": "0xc3eebc9cdbc07130e15fe44f4d0b5fbeeb52cb0be98e0282c4249ec6657996b1"
    },
    {
      "anonymous": false,
      "inputs": [
        {
          "indexed": false,
          "name": "buyerId",
          "type": "uint256"
        },
        {
          "indexed": false,
          "name": "nonce",
          "type": "uint256"
        },
        {
          "indexed": false,
          "name": "publicKeyCheck",
          "type": "string"
        },
        {
          "indexed": false,
          "name": "ipOrEigenvalues",
          "type": "string"
        },
        {
          "indexed": false,
          "name": "duration",
          "type": "uint64"
        }
      ],
      "name": "addRealTimeTx",
      "type": "event",
      "signature": "0x1c3abb4c6332f91f979052da44050a2c3e4568cdcaaf571ecd75db8ed07767d1"
    },
    {
      "anonymous": false,
      "inputs": [
        {
          "indexed": false,
          "name": "i",
          "type": "uint256"
        }
      ],
      "name": "confirmTx",
      "type": "event",
      "signature": "0x801be060160611f44999389892b6b79359677ff2d431948a5c8b5a80e14a1ff8"
    },
    {
      "anonymous": false,
      "inputs": [
        {
          "indexed": false,
          "name": "i",
          "type": "uint256"
        }
      ],
      "name": "confirmRealTimeTx",
      "type": "event",
      "signature": "0x8b83e47b1af3f949d67804a4ab493fded8198468172c75006b4c7da507345c74"
    },
    {
      "anonymous": false,
      "inputs": [
        {
          "indexed": false,
          "name": "target",
          "type": "address"
        },
        {
          "indexed": false,
          "name": "success",
          "type": "bool"
        }
      ],
      "name": "SuccessFunds",
      "type": "event",
      "signature": "0x4656763aeb5076063b1b9201e728e03b650c4e545b46330125af5d01c01fae56"
    },
    {
      "anonymous": false,
      "inputs": [
        {
          "indexed": true,
          "name": "from",
          "type": "address"
        },
        {
          "indexed": true,
          "name": "to",
          "type": "address"
        },
        {
          "indexed": false,
          "name": "value",
          "type": "uint256"
        }
      ],
      "name": "Transfer",
      "type": "event",
      "signature": "0xddf252ad1be2c89b69c2b068fc378daa952ba7f163c4a11628f55a4df523b3ef"
    },
    {
      "anonymous": false,
      "inputs": [
        {
          "indexed": false,
          "name": "target",
          "type": "address"
        },
        {
          "indexed": false,
          "name": "frozen",
          "type": "bool"
        }
      ],
      "name": "FrozenFunds",
      "type": "event",
      "signature": "0x48335238b4855f35377ed80f164e8c6f3c366e54ac00b96a6402d4a9814a03a5"
    },
    {
      "anonymous": false,
      "inputs": [],
      "name": "Pause",
      "type": "event",
      "signature": "0x6985a02210a168e66602d3235cb6db0e70f92b3ba4d376a33c0f3d9434bff625"
    },
    {
      "anonymous": false,
      "inputs": [],
      "name": "Unpause",
      "type": "event",
      "signature": "0x7805862f689e2f13df9f062ff482ad3ad112aca9e0847911ed832e158c525b33"
    },
    {
      "constant": false,
      "inputs": [
        {
          "name": "_seller",
          "type": "address"
        },
        {
          "name": "_txType",
          "type": "uint8"
        },
        {
          "name": "_value",
          "type": "uint256"
        },
        {
          "name": "_buyerGrade",
          "type": "uint8"
        }
      ],
      "name": "buyData",
      "outputs": [
        {
          "name": "",
          "type": "uint256"
        }
      ],
      "payable": false,
      "stateMutability": "nonpayable",
      "type": "function",
      "signature": "0xb60d3b1d"
    },
    {
      "constant": false,
      "inputs": [
        {
          "name": "i",
          "type": "uint256"
        }
      ],
      "name": "refundData",
      "outputs": [],
      "payable": false,
      "stateMutability": "nonpayable",
      "type": "function",
      "signature": "0x4b160ef7"
    },
    {
      "constant": false,
      "inputs": [
        {
          "name": "i",
          "type": "uint256"
        }
      ],
      "name": "makeSureTx",
      "outputs": [],
      "payable": false,
      "stateMutability": "nonpayable",
      "type": "function",
      "signature": "0x9ee66913"
    },
    {
      "constant": true,
      "inputs": [
        {
          "name": "i",
          "type": "uint256"
        }
      ],
      "name": "InquireUnconfirm",
      "outputs": [
        {
          "name": "",
          "type": "uint256[]"
        }
      ],
      "payable": false,
      "stateMutability": "view",
      "type": "function",
      "signature": "0xa4c18c2c"
    },
    {
      "constant": true,
      "inputs": [
        {
          "name": "i",
          "type": "uint256"
        }
      ],
      "name": "InquireTx",
      "outputs": [
        {
          "name": "",
          "type": "address"
        },
        {
          "name": "",
          "type": "address"
        },
        {
          "name": "",
          "type": "uint8"
        },
        {
          "name": "",
          "type": "bool"
        },
        {
          "name": "",
          "type": "uint256"
        },
        {
          "name": "",
          "type": "uint8"
        }
      ],
      "payable": false,
      "stateMutability": "view",
      "type": "function",
      "signature": "0xc6da3086"
    },
    {
      "constant": false,
      "inputs": [
        {
          "name": "_nonce",
          "type": "uint256"
        },
        {
          "name": "_publicKeyCheck",
          "type": "string"
        },
        {
          "name": "_ipOrEigenvalues",
          "type": "string"
        },
        {
          "name": "_value",
          "type": "uint256"
        },
        {
          "name": "_accountsNumber",
          "type": "uint32"
        },
        {
          "name": "_buyerGrade",
          "type": "uint8"
        },
        {
          "name": "_duration",
          "type": "uint64"
        },
        {
          "name": "_buyerId",
          "type": "uint256"
        }
      ],
      "name": "buyRealTimeData",
      "outputs": [
        {
          "name": "",
          "type": "uint256"
        }
      ],
      "payable": false,
      "stateMutability": "nonpayable",
      "type": "function",
      "signature": "0xd19d49f9"
    },
    {
      "constant": false,
      "inputs": [
        {
          "name": "addressList",
          "type": "address[]"
        }
      ],
      "name": "setAddress",
      "outputs": [],
      "payable": false,
      "stateMutability": "nonpayable",
      "type": "function",
      "signature": "0xa354d3f6"
    },
    {
      "constant": false,
      "inputs": [
        {
          "name": "i",
          "type": "uint256"
        }
      ],
      "name": "makeSureRealTimeTx",
      "outputs": [],
      "payable": false,
      "stateMutability": "nonpayable",
      "type": "function",
      "signature": "0x9e8c9a40"
    },
    {
      "constant": false,
      "inputs": [
        {
          "name": "i",
          "type": "uint256"
        }
      ],
      "name": "refundRealTime",
      "outputs": [],
      "payable": false,
      "stateMutability": "nonpayable",
      "type": "function",
      "signature": "0xfcbd7ae2"
    },
    {
      "constant": true,
      "inputs": [
        {
          "name": "i",
          "type": "uint256"
        }
      ],
      "name": "InquireUnconfirmReal",
      "outputs": [
        {
          "name": "",
          "type": "uint256[]"
        }
      ],
      "payable": false,
      "stateMutability": "view",
      "type": "function",
      "signature": "0x4363600a"
    },
    {
      "constant": true,
      "inputs": [
        {
          "name": "i",
          "type": "uint256"
        }
      ],
      "name": "InquireRealDataTx",
      "outputs": [
        {
          "components": [
            {
              "name": "buyer",
              "type": "address"
            },
            {
              "name": "ipOrEigenvalues",
              "type": "string"
            },
            {
              "name": "publicKeyCheck",
              "type": "string"
            },
            {
              "name": "txStatus",
              "type": "bool"
            },
            {
              "name": "value",
              "type": "uint256"
            },
            {
              "name": "accountsNumber",
              "type": "uint32"
            },
            {
              "name": "buyerGrade",
              "type": "uint8"
            },
            {
              "name": "duration",
              "type": "uint64"
            },
            {
              "name": "buyerId",
              "type": "uint256"
            },
            {
              "name": "nonce",
              "type": "uint256"
            }
          ],
          "name": "",
          "type": "tuple"
        },
        {
          "name": "",
          "type": "address[]"
        }
      ],
      "payable": false,
      "stateMutability": "view",
      "type": "function",
      "signature": "0x0426f7e2"
    }
  ],
  "bytecode": "0x6000805460a060020a60ff02191690556003805460ff191660121790556009600555600a600655620186a060075560c0604052600260808190527f657200000000000000000000000000000000000000000000000000000000000060a09081526200006e91600891906200015e565b506040805180820190915260018082527f65000000000000000000000000000000000000000000000000000000000000006020909201918252620000b5916009916200015e565b506103e86019556064601a556025805433600160a060020a031991821681179092556000602681905560278190558054909116909117815560035460075460ff909116600a0a026004819055308252600b602052604090912055600880546200013391600191600261010082851615026000190190911604620001e3565b506009805462000157916002916000196101006001831615020116829004620001e3565b506200027d565b828054600181600116156101000203166002900490600052602060002090601f016020900481019282601f10620001a157805160ff1916838001178555620001d1565b82800160010185558215620001d1579182015b82811115620001d1578251825591602001919060010190620001b4565b50620001df9291506200025d565b5090565b828054600181600116156101000203166002900490600052602060002090601f016020900481019282601f106200021e5780548555620001d1565b82800160010185558215620001d157600052602060002091601f016020900482015b82811115620001d157825482559160010191906001019062000240565b6200027a91905b80821115620001df576000815560010162000264565b90565b6147d0806200028d6000396000f3fe6080604052600436106102f55763ffffffff7c010000000000000000000000000000000000000000000000000000000060003504166302b090c181146102f75780630426f7e21461032257806304a85dfa1461035057806305fefda71461037057806306fdde0314610390578063095ea7b3146103b257806315666013146103df57806318160ddd146103ff5780631ee71c711461041457806323b872dd14610434578063286ad860146104545780632e1a7d4d146104745780632f15ce7e146104945780632f1d1a03146104b4578063313ce567146104d4578063378dc3dc146104f6578063385fa1471461050b5780633eaaf86b146105205780634363600a14610535578063448b331b146105625780634b160ef7146105825780634cddae28146105a25780635c975abb146105aa5780636c02a931146105bf5780636c982561146105d45780636ebcf607146105f4578063722713f7146106145780637918447e1461062957806379c650681461063e5780637b61c3201461065e5780637c28248c146106735780637d520ea61461069357806383578925146106c0578063863e4299146106e05780638da5cb5b146106f557806391bbf4341461070a57806392fb71741461072a57806393faa4501461073f57806395d89b411461075457806398611fa9146107695780639bab5e491461077e5780639e8c9a401461079e5780639ee66913146107be578063a354d3f6146107de578063a4c18c2c146107fe578063a9059cbb1461081e578063b414d4b61461083e578063b60d3b1d1461085e578063ba0fb8611461087e578063c2d6a0b31461089e578063c6da3086146108be578063cea601e6146108f0578063ceaf7fb214610910578063d19d49f914610918578063d59f70be14610938578063d6aea00114610958578063dbd417991461096d578063e724529c14610982578063eef71d6f146109a2578063f2fde38b146109b7578063f400fde4146109d7578063f569c684146109ec578063fcbd7ae214610a0c578063fdb38bcd14610a2c575b005b34801561030357600080fd5b5061030c610a4c565b604051610319919061462c565b60405180910390f35b34801561032e57600080fd5b5061034261033d36600461419a565b610a52565b604051610319929190614607565b34801561035c57600080fd5b506102f561036b366004614045565b610ccc565b34801561037c57600080fd5b506102f561038b366004614325565b610d84565b34801561039c57600080fd5b506103a5610dc8565b60405161031991906145f6565b3480156103be57600080fd5b506103d26103cd3660046140bf565b610e55565b60405161031991906145e8565b3480156103eb57600080fd5b506102f56103fa366004614344565b610eba565b34801561040b57600080fd5b5061030c610f5a565b34801561042057600080fd5b506102f561042f366004613fe4565b610f61565b34801561044057600080fd5b506103d261044f366004613f5d565b61101a565b34801561046057600080fd5b5061030c61046f366004613f37565b611123565b34801561048057600080fd5b506102f561048f36600461419a565b61115c565b3480156104a057600080fd5b5061030c6104af36600461419a565b6111c0565b3480156104c057600080fd5b5061030c6104cf366004613faa565b611200565b3480156104e057600080fd5b506104e9611246565b6040516103199190614694565b34801561050257600080fd5b5061030c61124f565b34801561051757600080fd5b506103d2611255565b34801561052c57600080fd5b5061030c6112d7565b34801561054157600080fd5b5061055561055036600461419a565b6112dd565b60405161031991906145d7565b34801561056e57600080fd5b5061030c61057d366004613f37565b61138f565b34801561058e57600080fd5b506102f561059d36600461419a565b6113c5565b6102f56114db565b3480156105b657600080fd5b506103d2611512565b3480156105cb57600080fd5b506103a5611522565b3480156105e057600080fd5b5061030c6105ef3660046140bf565b61157d565b34801561060057600080fd5b5061030c61060f366004613f37565b6115e7565b34801561062057600080fd5b5061030c6115f9565b34801561063557600080fd5b5061030c61160c565b34801561064a57600080fd5b506102f56106593660046140bf565b611612565b34801561066a57600080fd5b506103a56116ef565b34801561067f57600080fd5b506102f561068e366004613f5d565b61174a565b34801561069f57600080fd5b506106b36106ae3660046140bf565b61179f565b6040516103199190614554565b3480156106cc57600080fd5b506103d26106db366004613f37565b6117d6565b3480156106ec57600080fd5b5061030c61180f565b34801561070157600080fd5b506106b3611814565b34801561071657600080fd5b506102f5610725366004614325565b611823565b34801561073657600080fd5b5061030c61185c565b34801561074b57600080fd5b506103d261186e565b34801561076057600080fd5b506103a56118eb565b34801561077557600080fd5b506103d2611943565b34801561078a57600080fd5b506102f56107993660046140ef565b611959565b3480156107aa57600080fd5b506102f56107b936600461419a565b6119c5565b3480156107ca57600080fd5b506102f56107d936600461419a565b611bb0565b3480156107ea57600080fd5b506102f56107f9366004614165565b611d54565b34801561080a57600080fd5b5061055561081936600461419a565b611d74565b34801561082a57600080fd5b506103d26108393660046140bf565b611e27565b34801561084a57600080fd5b506103d2610859366004613f37565b611e57565b34801561086a57600080fd5b5061030c610879366004614132565b611e6c565b34801561088a57600080fd5b5061030c610899366004613faa565b61202e565b3480156108aa57600080fd5b5061030c6108b936600461419a565b61204b565b3480156108ca57600080fd5b506108de6108d936600461419a565b612082565b60405161031996959493929190614562565b3480156108fc57600080fd5b5061030c61090b3660046140bf565b61219c565b6102f56121f7565b34801561092457600080fd5b5061030c610933366004614245565b612210565b34801561094457600080fd5b5061030c61095336600461419a565b61243c565b34801561096457600080fd5b506103a561247c565b34801561097957600080fd5b506103a561250f565b34801561098e57600080fd5b506102f561099d36600461408f565b61256f565b3480156109ae57600080fd5b506102f56125f3565b3480156109c357600080fd5b506102f56109d2366004613f37565b61267b565b3480156109e357600080fd5b5061030c6126d6565b3480156109f857600080fd5b506102f5610a073660046141b8565b6126dc565b348015610a1857600080fd5b506102f5610a2736600461419a565b612960565b348015610a3857600080fd5b5061030c610a473660046140bf565b612a92565b60065481565b610a5a613c29565b6060602983815481101515610a6b57fe5b906000526020600020906008020160246000602986815481101515610a8c57fe5b60009182526020808320600890920290910154600160a060020a03908116845283820194909452604092830190912082516101408101845285549094168452600185810180548551601f6002600019958416156101000295909501909216939093049081018590048502830185019095528482529194938693858101939190830182828015610b5c5780601f10610b3157610100808354040283529160200191610b5c565b820191906000526020600020905b815481529060010190602001808311610b3f57829003601f168201915b5050509183525050600282810180546040805160206001841615610100026000190190931694909404601f81018390048302850183019091528084529381019390830182828015610bee5780601f10610bc357610100808354040283529160200191610bee565b820191906000526020600020905b815481529060010190602001808311610bd157829003601f168201915b5050509183525050600382015460ff90811615156020808401919091526004840154604080850191909152600585015463ffffffff81166060860152640100000000810490931660808501526501000000000090920467ffffffffffffffff1660a0840152600684015460c084015260079093015460e0909201919091528354815181840281018401909252808252929450918391830182828015610cbc57602002820191906000526020600020905b8154600160a060020a03168152600190910190602001808311610c9e575b5050505050905091509150915091565b60005460a060020a900460ff1615610ce357600080fd5b81518102601b819055610cf590612afc565b601681905550610d083084601654612b49565b60005b8251811015610d7e57610d368382815181101515610d2557fe5b906020019060200201516001612c97565b610d568382815181101515610d4757fe5b90602001906020020151612d31565b610d768382815181101515610d6757fe5b90602001906020020151612f01565b600101610d0b565b50505050565b602554600160a060020a03163314610d9b57600080fd5b60005460a060020a900460ff1615610db257600080fd5b808211610dc457600582905560068190555b5050565b60018054604080516020600284861615610100026000190190941693909304601f81018490048402820184019092528181529291830182828015610e4d5780601f10610e2257610100808354040283529160200191610e4d565b820191906000526020600020905b815481529060010190602001808311610e3057829003601f168201915b505050505081565b602554600090600160a060020a03163314610e6f57600080fd5b60005460a060020a900460ff1615610e8657600080fd5b5060008054600160a060020a039081168252600c602090815260408084209286168452919052902081905560015b92915050565b60005460a060020a900460ff1615610ed157600080fd5b600160a060020a0381166000908152600d602052604090205460ff1615610ef757600080fd5b828202601b819055610f0890612afc565b601681905550610f1b8130601654612b49565b7f4656763aeb5076063b1b9201e728e03b650c4e545b46330125af5d01c01fae56816001604051610f4d9291906145bc565b60405180910390a1505050565b6004545b90565b60005460a060020a900460ff1615610f7857600080fd5b610f81826130d0565b601755610f8e828461311e565b6017805490910190819055610fa69030908590612b49565b610fb182858361344f565b601381905550610fc43085601354612b49565b610fd084836001613740565b610fdc83836002613740565b610fe8848360016137b4565b610ff4838360026137b4565b610fff836002612c97565b61100883612f01565b61101183612d31565b610d7e8461381f565b602554600090600160a060020a0316331461103457600080fd5b60005460a060020a900460ff161561104b57600080fd5b60008054600160a060020a039081168252600c602090815260408084209288168452919052902054821115806110a6575060008054600160a060020a039081168252600c602090815260408084209288168452919052902054155b15156110b157600080fd5b60008054600160a060020a039081168252600c6020908152604080842092881684529190529020541561110d5760008054600160a060020a039081168252600c6020908152604080842092881684529190529020805483900390555b611118848484612b49565b5060015b9392505050565b602554600090600160a060020a0316331461113d57600080fd5b50600160a060020a03811660009081526020805260409020545b919050565b60005460a060020a900460ff161561117357600080fd5b60055481023031101561118557600080fd5b611190333083612b49565b6005546040513391830280156108fc02916000818181858888f19350505050158015610dc4573d6000803e3d6000fd5b600081600114156111e1575033600090815260226020526040902054611157565b8160021415611157575033600090815260236020526040902054611157565b602554600090600160a060020a0316331461121a57600080fd5b50600160a060020a039182166000908152600c6020908152604080832093909416825291909152205490565b60035460ff1681565b60075481565b602554600090600160a060020a0316331461126f57600080fd5b60005460a060020a900460ff161561128657600080fd5b6000805474ff0000000000000000000000000000000000000000191660a060020a1781556040517f6985a02210a168e66602d3235cb6db0e70f92b3ba4d376a33c0f3d9434bff6259190a150600190565b60045481565b602554606090600160a060020a031633146112f757600080fd5b6029546040805182815260208084028201019091526060918015611325578160200160208202803883390190505b50905060005b60295484101561138857602980548590811061134357fe5b600091825260209091206003600890920201015460ff16151561137d5783828281518110151561136f57fe5b602090810290910101526001015b60019093019261132b565b5092915050565b602554600090600160a060020a031633146113a957600080fd5b50600160a060020a03166000908152600b602052604090205490565b6025548190600160a060020a0316331480611406575060288054829081106113e957fe5b6000918252602090912060049091020154600160a060020a031633145b151561141157600080fd5b602880548290811061141f57fe5b60009182526020909120600490910201600101547501000000000000000000000000000000000000000000900460ff161561145957600080fd5b610dc460288381548110151561146b57fe5b600091825260209091206004909102015460288054600160a060020a03909216918590811061149657fe5b600091825260209091206001600490920201015460288054600160a060020a0390921691869081106114c457fe5b90600052602060002090600402016002015461174a565b60005460a060020a900460ff16156114f257600080fd5b60006006543481151561150157fe5b04905061150f303383612b49565b50565b60005460a060020a900460ff1681565b6008805460408051602060026001851615610100026000190190941693909304601f81018490048402820184019092528181529291830182828015610e4d5780601f10610e2257610100808354040283529160200191610e4d565b602554600090600160a060020a0316331461159757600080fd5b81600114156115bf5750600160a060020a0382166000908152601e6020526040902054610eb4565b8160021415610eb45750600160a060020a0382166000908152601f6020526040902054610eb4565b600b6020526000908152604090205481565b336000908152600b602052604090205490565b60055481565b602554600160a060020a0316331461162957600080fd5b60005460a060020a900460ff161561164057600080fd5b600160a060020a0382166000908152600b60205260408082208054840190556004805484019055513091907fddf252ad1be2c89b69c2b068fc378daa952ba7f163c4a11628f55a4df523b3ef9061169890859061462c565b60405180910390a381600160a060020a031630600160a060020a03167fddf252ad1be2c89b69c2b068fc378daa952ba7f163c4a11628f55a4df523b3ef836040516116e3919061462c565b60405180910390a35050565b6009805460408051602060026001851615610100026000190190941693909304601f81018490048402820184019092528181529291830182828015610e4d5780601f10610e2257610100808354040283529160200191610e4d565b60005460a060020a900460ff161561176157600080fd5b61176a81612afc565b60168190555061177d3084601654612b49565b611788826001612c97565b61179182612d31565b61179a82612f01565b505050565b6024602052816000526040600020818154811015156117ba57fe5b600091825260209091200154600160a060020a03169150829050565b602554600090600160a060020a031633146117f057600080fd5b50600160a060020a03166000908152600d602052604090205460ff1690565b303190565b600054600160a060020a031681565b602554600160a060020a0316331461183a57600080fd5b60005460a060020a900460ff161561185157600080fd5b601991909155601a55565b33600090815260208052604090205490565b602554600090600160a060020a0316331461188857600080fd5b60005460a060020a900460ff1615156118a057600080fd5b6000805474ff0000000000000000000000000000000000000000191681556040517f7805862f689e2f13df9f062ff482ad3ad112aca9e0847911ed832e158c525b339190a150600190565b6002805460408051602060018416156101000260001901909316849004601f81018490048402820184019092528181529291830182828015610e4d5780601f10610e2257610100808354040283529160200191610e4d565b336000908152600d602052604090205460ff1690565b60005460a060020a900460ff161561197057600080fd5b600160a060020a0381166000908152600d602052604090205460ff161561199657600080fd5b600160a060020a0383166000908152600d602052604090205460ff16156119bc57600080fd5b610f0882612afc565b6025548190600160a060020a0316331480611a06575060298054829081106119e957fe5b6000918252602090912060089091020154600160a060020a031633145b1515611a1157600080fd5b6029805482908110611a1f57fe5b600091825260209091206003600890920201015460ff1615611a4057600080fd5b611b29602983815481101515611a5257fe5b60009182526020808320600560089093020191909101543380845260248352604093849020805485518186028101860190965280865263ffffffff90931694919391929091830182828015611ad057602002820191906000526020600020905b8154600160a060020a03168152600190910190602001808311611ab2575b5050505050602986815481101515611ae457fe5b906000526020600020906008020160040154602987815481101515611b0557fe5b906000526020600020906008020160050160049054906101000a900460ff166126dc565b6001602983815481101515611b3a57fe5b60009182526020808320600892909202909101600301805460ff191693151593909317909255338152602490915260408120611b7591613c9b565b7f8b83e47b1af3f949d67804a4ab493fded8198468172c75006b4c7da507345c7482604051611ba4919061462c565b60405180910390a15050565b6025548190600160a060020a0316331480611bf157506028805482908110611bd457fe5b6000918252602090912060049091020154600160a060020a031633145b1515611bfc57600080fd5b6028805482908110611c0a57fe5b60009182526020909120600490910201600101547501000000000000000000000000000000000000000000900460ff1615611c4457600080fd5b611cec602883815481101515611c5657fe5b600091825260209091206004909102015460288054600160a060020a039092169185908110611c8157fe5b600091825260209091206001600490920201015460288054600160a060020a039092169186908110611caf57fe5b906000526020600020906004020160020154602886815481101515611cd057fe5b600091825260209091206003600490920201015460ff16610f61565b6001602883815481101515611cfd57fe5b906000526020600020906004020160010160156101000a81548160ff0219169083151502179055507f801be060160611f44999389892b6b79359677ff2d431948a5c8b5a80e14a1ff882604051611ba4919061462c565b3360009081526024602090815260409091208251610dc492840190613cb9565b602554606090600160a060020a03163314611d8e57600080fd5b6029546040805182815260208084028201019091526060918015611dbc578160200160208202803883390190505b50905060005b602854841015611388576028805485908110611dda57fe5b906000526020600020906004020160010160159054906101000a900460ff161515611e1c57838282815181101515611e0e57fe5b602090810290910101526001015b600190930192611dc2565b6000805460a060020a900460ff1615611e3f57600080fd5b60443614611e4c57600080fd5b610eb4338484612b49565b600d6020526000908152604090205460ff1681565b6000611e76613d2b565b506040805160c08101825233808252600160a060020a038881166020840190815260ff808a16958501958652600060608601818152608087018b81528a841660a08901908152602880546001810182559452885160049094027fe16da923a2d88192e5070f37b4571d58682c0d66212ec634d495f33de3f77ab58101805495891673ffffffffffffffffffffffffffffffffffffffff1996871617905595517fe16da923a2d88192e5070f37b4571d58682c0d66212ec634d495f33de3f77ab6870180549b51945115157501000000000000000000000000000000000000000000027fffffffffffffffffffff00ffffffffffffffffffffffffffffffffffffffffff95881660a060020a0274ff00000000000000000000000000000000000000001993909a169c9096169b909b171696909617919091169190911790965594517fe16da923a2d88192e5070f37b4571d58682c0d66212ec634d495f33de3f77ab782015590517fe16da923a2d88192e5070f37b4571d58682c0d66212ec634d495f33de3f77ab890910180549190941660ff19909116179092559061201d908588611959565b505060285460001901949350505050565b600c60209081526000928352604080842090915290825290205481565b336000908152602160205260408120826003811061206557fe5b602081049091015460ff601f9092166101000a9004169050919050565b60008060008060008060288781548110151561209a57fe5b600091825260209091206004909102015460288054600160a060020a0390921691899081106120c557fe5b600091825260209091206001600490920201015460288054600160a060020a03909216918a9081106120f357fe5b906000526020600020906004020160010160149054906101000a900460ff1660288a81548110151561212157fe5b906000526020600020906004020160010160159054906101000a900460ff1660288b81548110151561214f57fe5b90600052602060002090600402016002015460288c81548110151561217057fe5b6000918252602090912060049091020160030154949c939b509199509750955060ff9091169350915050565b602554600090600160a060020a031633146121b657600080fd5b600160a060020a038316600090815260216020526040902082600381106121d957fe5b602081049091015460ff601f9092166101000a900416905092915050565b60005460a060020a900460ff161561220e57600080fd5b565b600061221a613c29565b50604080516101408101825233815260208082018a81529282018b9052600060608301819052608083018a905263ffffffff891660a084015260ff881660c084015267ffffffffffffffff871660e0840152610100830186905261012083018d9052602980546001810180835591909252835160089092027fcb7c14ce178f56e2e8d86ab33ebc0ae081ba8556a00cd122038841867181caac81018054600160a060020a039490941673ffffffffffffffffffffffffffffffffffffffff199094169390931783559451805194959194869461231a937fcb7c14ce178f56e2e8d86ab33ebc0ae081ba8556a00cd122038841867181caad01920190613d60565b5060408201518051612336916002840191602090910190613d60565b50606082015160038201805460ff19169115159190911790556080820151600482015560a082015160058201805460c085015160e086015163ffffffff1990921663ffffffff9485161764ff00000000191664010000000060ff90921691909102176cffffffffffffffff000000000019166501000000000067ffffffffffffffff909216919091021790556101008301516006830155610120909201516007909101556123e8915087168833610eba565b7f1c3abb4c6332f91f979052da44050a2c3e4568cdcaaf571ecd75db8ed07767d1838b8b8b8860405161241f95949392919061463a565b60405180910390a150506029546000190198975050505050505050565b6000816001141561245d5750336000908152601e6020526040902054611157565b81600214156111575750336000908152601f6020526040902054611157565b60028054604080516020601f60001961010060018716150201909416859004938401819004810282018101909252828152606093909290918301828280156125055780601f106124da57610100808354040283529160200191612505565b820191906000526020600020905b8154815290600101906020018083116124e857829003601f168201915b5050505050905090565b60018054604080516020601f600260001961010087891615020190951694909404938401819004810282018101909252828152606093909290918301828280156125055780601f106124da57610100808354040283529160200191612505565b602554600160a060020a0316331461258657600080fd5b60005460a060020a900460ff161561259d57600080fd5b600160a060020a0382166000908152600d602052604090819020805460ff1916831515179055517f48335238b4855f35377ed80f164e8c6f3c366e54ac00b96a6402d4a9814a03a590611ba490849084906145bc565b602554600160a060020a0316331461260a57600080fd5b60005460a060020a900460ff161561262157600080fd5b600554306000818152600b60205260408082205460045403909302913191909103600a81905581549251600160a060020a03909316926108fc82150292818181858888f1935050505015801561150f573d6000803e3d6000fd5b602554600160a060020a0316331461269257600080fd5b600160a060020a03811615156126a757600080fd5b6000805473ffffffffffffffffffffffffffffffffffffffff1916600160a060020a0392909216919091179055565b600a5481565b60005460a060020a900460ff16156126f357600080fd5b84835114156128415760005b83518110156127f857612711836130d0565b601755835161273790849086908490811061272857fe5b9060200190602002015161311e565b601780549091019055835161276690309086908490811061275457fe5b90602001906020020151601754612b49565b612789848281518110151561277757fe5b90602001906020020151846002613740565b6127ac848281518110151561279a57fe5b906020019060200201518460026137b4565b6127ce84828151811015156127bd57fe5b906020019060200201516002612c97565b6127df8482815181101515610d6757fe5b6127f08482815181101515610d4757fe5b6001016126ff565b5061280783518302858361344f565b60138190555061281a3085601354612b49565b61282984845184026001613740565b612838848451840260016137b4565b6128418461381f565b84835110156129595760005b83518110156128f05761285f836130d0565b601755835161287690849086908490811061272857fe5b601780549091019055835161289390309086908490811061275457fe5b6128a4848281518110151561277757fe5b6128b5848281518110151561279a57fe5b6128c684828151811015156127bd57fe5b6128d78482815181101515610d6757fe5b6128e88482815181101515610d4757fe5b60010161284d565b506128ff83518302858361344f565b601355825161290f908302612afc565b61291a838702612afc565b03601c819055506129323085601c5460135401612b49565b61294184845184026001613740565b612950848451840260016137b4565b6129598461381f565b5050505050565b6025548190600160a060020a03163314806129a15750602980548290811061298457fe5b6000918252602090912060089091020154600160a060020a031633145b15156129ac57600080fd5b60298054829081106129ba57fe5b600091825260209091206003600890920201015460ff16156129db57600080fd5b610dc46029838154811015156129ed57fe5b60009182526020808320600890920290910154338352602482526040928390208054845181850281018501909552808552600160a060020a039092169392909190830182828015612a6757602002820191906000526020600020905b8154600160a060020a03168152600190910190602001808311612a49575b5050505050602985815481101515612a7b57fe5b906000526020600020906008020160040154610ccc565b602554600090600160a060020a03163314612aac57600080fd5b8160011415612ad45750600160a060020a038216600090815260226020526040902054610eb4565b8160021415610eb45750600160a060020a038216600090815260236020526040902054610eb4565b6000805460a060020a900460ff1615612b1457600080fd5b60195482811515612b2157fe5b04601581905515612b39576015548201601655612b41565b600182016016555b505060165490565b600160a060020a0382161515612b5e57600080fd5b600160a060020a0383166000908152600b6020526040902054811115612b8357600080fd5b600160a060020a0382166000908152600b60205260409020548181011015612baa57600080fd5b600160a060020a0383166000908152600d602052604090205460ff1615612bd057600080fd5b600160a060020a0382166000908152600d602052604090205460ff1615612bf657600080fd5b600160a060020a038083166000818152600b602052604080822080549488168084528284208054888103909155938590528154870190915590519190930192907fddf252ad1be2c89b69c2b068fc378daa952ba7f163c4a11628f55a4df523b3ef90612c6390869061462c565b60405180910390a3600160a060020a038084166000908152600b6020526040808220549287168252902054018114610d7e57fe5b60005460a060020a900460ff1615612cae57600080fd5b8060011415612cee57600160a060020a0382166000908152602160205260409020805461ff001981166101009182900460ff908116600101169091021790555b8060021415610dc45750600160a060020a03166000908152602160205260409020805462ff0000198116620100009182900460ff90811660010116909102179055565b60005460a060020a900460ff1615612d4857600080fd5b600160a060020a038116600090815260216020526040902054610100900460ff16600a1415612e0957600160a060020a03811660009081526021602052604081205460ff161115612dc657600160a060020a0381166000908152602160205260409020805460ff808216600019011660ff199091161761ff00191690555b600160a060020a03811660009081526021602052604090205460ff161515612e0957600160a060020a0381166000908152602160205260409020805460ff191690555b600160a060020a038116600090815260216020526040902054600a61010090910460ff16111561150f57600160a060020a03811660009081526021602052604090208054601d8054600a60ff610100909404841604831660ff1990911617908190559154612e7a9282169116613851565b601d805461ff00191661010060ff938416810291909117808355600160a060020a0385166000908152602160205260409020805460ff198116928490048616908616038516919091178155915404909116600a029060015b60208104909101805460ff601f9093166101000a80820484169490940383168402929093021990921617905550565b60005460a060020a900460ff1615612f1857600080fd5b600160a060020a03811660009081526021602052604090205462010000900460ff1660321415612fe657600160a060020a038116600090815260216020526040902054602860ff9091161015612f9e57600160a060020a03811660009081526021602052604090208054600160ff808316919091011660ff199091161762ff0000191690555b600160a060020a03811660009081526021602052604090205460ff1660281415612fe657600160a060020a0381166000908152602160205260409020805460ff191660281790555b600160a060020a03811660009081526021602052604090205460326201000090910460ff16111561150f57600160a060020a03811660009081526021602052604090208054601d805462ff000019166032620100009384900460ff90811691909104811684029190911791829055925461306a939290910482169116602803613851565b601d805460ff928316630100000090810263ff0000001990921691909117808355600160a060020a0385166000908152602160205260409020805460ff198116908616928490048616929092018516919091178155915404909116603202906002612ed2565b6000805460a060020a900460ff16156130e857600080fd5b601a54828115156130f557fe5b0460188190551561310d576018548203601755613116565b60001982016017555b505060175490565b6000805460a060020a900460ff161561313657600080fd5b601a548381151561314357fe5b04601855600160a060020a038216600090815260216020526040902054601d805466ff000000000000191660ff9283166601000000000000908102919091179182905590041661319483600261386d565b61319d8461397b565b601d805465ff0000000000191665010000000000929093019390930160ff908116820292909217928390556064920416118015906131eb5750601d54605a6501000000000090910460ff1610155b156131fe57601854600a90600902046014555b601d54605a6501000000000090910460ff1610801561322d5750601d5460506501000000000090910460ff1610155b1561324057601854600a90600802046014555b601d5460506501000000000090910460ff1610801561326f5750601d5460466501000000000090910460ff1610155b1561328257601854600a90600702046014555b601d5460466501000000000090910460ff161080156132b15750601d54603c6501000000000090910460ff1610155b156132c457601854600a90600602046014555b601d54603c6501000000000090910460ff161080156132f35750601d5460326501000000000090910460ff1610155b1561330657601854600a90600502046014555b601d5460326501000000000090910460ff161080156133355750601d5460286501000000000090910460ff1610155b1561334857601854600a90600402046014555b601d5460286501000000000090910460ff161080156133775750601d54601e6501000000000090910460ff1610155b1561338a57601854600a90600302046014555b601d54601e6501000000000090910460ff161080156133b95750601d5460146501000000000090910460ff1610155b156133cc57601854600a90600202046014555b601d5460146501000000000090910460ff161080156133fb5750601d54600a6501000000000090910460ff1610155b1561340b57601854600a90046014555b601d54600a6501000000000090910460ff1610801561343a5750601d5460006501000000000090910460ff1610155b156134455760006014555b5060145492915050565b6000805460a060020a900460ff161561346757600080fd5b6019548481151561347457fe5b0460155561348182613a4c565b61348c84600161386d565b61349585613a9e565b61349e86613b6c565b010101601d60046101000a81548160ff021916908360ff1602179055506064601d60049054906101000a900460ff1660ff16111580156134ed5750601d54605a64010000000090910460ff1610155b1561350057601554600a90600902046013555b601d54605a64010000000090910460ff1610801561352d5750601d54605064010000000090910460ff1610155b1561354057601554600a90600802046013555b601d54605064010000000090910460ff1610801561356d5750601d54604664010000000090910460ff1610155b1561358057601554600a90600702046013555b601d54604664010000000090910460ff161080156135ad5750601d54603c64010000000090910460ff1610155b156135c057601554600a90600602046013555b601d54603c64010000000090910460ff161080156135ed5750601d54603264010000000090910460ff1610155b1561360057601554600a90600502046013555b601d54603264010000000090910460ff1610801561362d5750601d54602864010000000090910460ff1610155b1561364057601554600a90600402046013555b601d54602864010000000090910460ff1610801561366d5750601d54601e64010000000090910460ff1610155b1561368057601554600a90600302046013555b601d54601e64010000000090910460ff161080156136ad5750601d54601464010000000090910460ff1610155b156136c057601554600a90600202046013555b601d54601464010000000090910460ff161080156136ed5750601d54600a64010000000090910460ff1610155b156136fd57601554600a90046013555b601d54600a64010000000090910460ff1610801561372a5750601d54600064010000000090910460ff1610155b156137355760006013555b506013549392505050565b60005460a060020a900460ff161561375757600080fd5b6107d0821061179a57806001141561378957600160a060020a0383166000908152601e60205260409020805460010190555b806002141561179a575050600160a060020a03166000908152601f6020526040902080546001019055565b60005460a060020a900460ff16156137cb57600080fd5b80600114156137f357600160a060020a03831660009081526022602052604090208054830190555b806002141561179a57600160a060020a0383166000908152602360205260409020805483019055505050565b60005460a060020a900460ff161561383657600080fd5b600160a060020a031660009081526020805260409020429055565b60008160ff168360ff1610613866578161111c565b5090919050565b6000805460a060020a900460ff161561388557600080fd5b81600114156138ab57600160a060020a0383166000908152602260205260409020546010555b81600214156138d157600160a060020a0383166000908152602360205260409020546010555b6010546301312d00116138e657506014610eb4565b6301312d006010541080156139005750621e848060105410155b1561390d5750600f610eb4565b621e8480601054108015613926575062030d4060105410155b156139335750600a610eb4565b62030d4060105410801561394b5750614e2060105410155b1561395857506005610eb4565b614e2060105410801561396e5750600060105410155b15610eb457506000610eb4565b6000805460a060020a900460ff161561399357600080fd5b600160a060020a0382166000908152601f60205260409020546012819055612710116139c157506028611157565b6127106012541080156139d857506103e860125410155b156139e55750601e611157565b6103e86012541080156139fb5750606460125410155b15613a0857506014611157565b6064601254108015613a1d5750600a60125410155b15613a2a5750600a611157565b600a601254108015613a3f5750600060125410155b1561115757506000611157565b6000805460a060020a900460ff1615613a6457600080fd5b60ff82161515613a765750600a611157565b8160ff1660011415613a8a57506014611157565b8160ff16600214156111575750601e611157565b6000805460a060020a900460ff1615613ab657600080fd5b600160a060020a0382166000908152601e6020526040902054601181905561271011613ae457506014611157565b612710601154108015613afb57506103e860115410155b15613b085750600f611157565b6103e8601154108015613b1e5750606460115410155b15613b2b5750600a611157565b6064601154108015613b405750600a60115410155b15613b4d57506005611157565b600a601154108015613a3f575060115460001161115757506000611157565b6000805460a060020a900460ff1615613b8457600080fd5b600160a060020a0382166000908152602080526040902054600e8190554203600f8190556276a70011613bb957506000611157565b600f546276a700118015613bd2575062278d00600f5410155b15613bdf5750600a611157565b62278d00600f54108015613bf85750600f546203f48011155b15613c0557506014611157565b600f546203f480118015613c1c57506000600f5410155b156111575750601e611157565b610140604051908101604052806000600160a060020a03168152602001606081526020016060815260200160001515815260200160008152602001600063ffffffff168152602001600060ff168152602001600067ffffffffffffffff16815260200160008152602001600081525090565b508054600082559060005260206000209081019061150f9190613dd6565b828054828255906000526020600020908101928215613d1b579160200282015b82811115613d1b578251825473ffffffffffffffffffffffffffffffffffffffff1916600160a060020a03909116178255602090920191600190910190613cd9565b50613d27929150613df0565b5090565b6040805160c081018252600080825260208201819052918101829052606081018290526080810182905260a081019190915290565b828054600181600116156101000203166002900490600052602060002090601f016020900481019282601f10613da157805160ff1916838001178555613dce565b82800160010185558215613dce579182015b82811115613dce578251825591602001919060010190613db3565b50613d279291505b610f5e91905b80821115613d275760008155600101613ddc565b610f5e91905b80821115613d2757805473ffffffffffffffffffffffffffffffffffffffff19168155600101613df6565b600061111c823561471c565b6000601f82018313613e3e57600080fd5b8135613e51613e4c826146c9565b6146a2565b91508181835260208401935060208101905083856020840282011115613e7657600080fd5b60005b83811015613ea25781613e8c8882613e21565b8452506020928301929190910190600101613e79565b5050505092915050565b600061111c8235614727565b6000601f82018313613ec957600080fd5b8135613ed7613e4c826146ea565b91508082526020830160208301858383011115613ef357600080fd5b613efe838284614754565b50505092915050565b600061111c8235610f5e565b600061111c8235614738565b600061111c8235614741565b600061111c823561474e565b600060208284031215613f4957600080fd5b6000613f558484613e21565b949350505050565b600080600060608486031215613f7257600080fd5b6000613f7e8686613e21565b9350506020613f8f86828701613e21565b9250506040613fa086828701613f07565b9150509250925092565b60008060408385031215613fbd57600080fd5b6000613fc98585613e21565b9250506020613fda85828601613e21565b9150509250929050565b60008060008060808587031215613ffa57600080fd5b60006140068787613e21565b945050602061401787828801613e21565b935050604061402887828801613f07565b925050606061403987828801613f2b565b91505092959194509250565b60008060006060848603121561405a57600080fd5b60006140668686613e21565b935050602084013567ffffffffffffffff81111561408357600080fd5b613f8f86828701613e2d565b600080604083850312156140a257600080fd5b60006140ae8585613e21565b9250506020613fda85828601613eac565b600080604083850312156140d257600080fd5b60006140de8585613e21565b9250506020613fda85828601613f07565b60008060006060848603121561410457600080fd5b60006141108686613e21565b935050602061412186828701613f07565b9250506040613fa086828701613e21565b6000806000806080858703121561414857600080fd5b60006141548787613e21565b945050602061401787828801613f2b565b60006020828403121561417757600080fd5b813567ffffffffffffffff81111561418e57600080fd5b613f5584828501613e2d565b6000602082840312156141ac57600080fd5b6000613f558484613f07565b600080600080600060a086880312156141d057600080fd5b60006141dc8888613f07565b95505060206141ed88828901613e21565b945050604086013567ffffffffffffffff81111561420a57600080fd5b61421688828901613e2d565b935050606061422788828901613f07565b925050608061423888828901613f2b565b9150509295509295909350565b600080600080600080600080610100898b03121561426257600080fd5b600061426e8b8b613f07565b985050602089013567ffffffffffffffff81111561428b57600080fd5b6142978b828c01613eb8565b975050604089013567ffffffffffffffff8111156142b457600080fd5b6142c08b828c01613eb8565b96505060606142d18b828c01613f07565b95505060806142e28b828c01613f13565b94505060a06142f38b828c01613f2b565b93505060c06143048b828c01613f1f565b92505060e06143158b828c01613f07565b9150509295985092959890939650565b6000806040838503121561433857600080fd5b60006140de8585613f07565b60008060006060848603121561435957600080fd5b60006141108686613f07565b61436e8161471c565b82525050565b600061437f82614718565b80845260208401935061439183614712565b60005b828110156143c1576143a7868351614365565b6143b082614712565b602096909601959150600101614394565b5093949350505050565b60006143d682614718565b8084526020840193506143e883614712565b60005b828110156143c1576143fe868351614530565b61440782614712565b6020969096019591506001016143eb565b61436e81614727565b600061442c82614718565b808452614440816020860160208601614760565b6144498161478c565b9093016020019392505050565b805160009061014084019061446b8582614365565b50602083015184820360208601526144838282614421565b9150506040830151848203604086015261449d8282614421565b91505060608301516144b26060860182614418565b5060808301516144c56080860182614530565b5060a08301516144d860a0860182614539565b5060c08301516144eb60c086018261454b565b5060e08301516144fe60e0860182614542565b50610100830151614513610100860182614530565b50610120830151614528610120860182614530565b509392505050565b61436e81610f5e565b61436e81614738565b61436e81614741565b61436e8161474e565b60208101610eb48284614365565b60c081016145708289614365565b61457d6020830188614365565b61458a604083018761454b565b6145976060830186614418565b6145a46080830185614530565b6145b160a083018461454b565b979650505050505050565b604081016145ca8285614365565b61111c6020830184614418565b6020808252810161111c81846143cb565b60208101610eb48284614418565b6020808252810161111c8184614421565b604080825281016146188185614456565b90508181036020830152613f558184614374565b60208101610eb48284614530565b60a081016146488288614530565b6146556020830187614530565b81810360408301526146678186614421565b9050818103606083015261467b8185614421565b905061468a6080830184614542565b9695505050505050565b60208101610eb4828461454b565b60405181810167ffffffffffffffff811182821017156146c157600080fd5b604052919050565b600067ffffffffffffffff8211156146e057600080fd5b5060209081020190565b600067ffffffffffffffff82111561470157600080fd5b506020601f91909101601f19160190565b60200190565b5190565b6000610eb48261472c565b151590565b600160a060020a031690565b63ffffffff1690565b67ffffffffffffffff1690565b60ff1690565b82818337506000910152565b60005b8381101561477b578181015183820152602001614763565b83811115610d7e5750506000910152565b601f01601f19169056fea265627a7a7230582077d791252f4c8ba17058468f5cbb346b3812ddbba326ae332424934ebc87c4396c6578706572696d656e74616cf50037",
  "source": "pragma solidity ^0.5.0;\r\npragma experimental ABIEncoderV2;\r\n// import './DataControl.sol';\r\n// import './IpControl.sol';\r\nimport './transaction.sol';\r\n\r\ncontract TxControl is transaction{\r\n\r\n    struct txSave{\r\n        address buyer;\r\n        address seller;\r\n        uint8 txType;\r\n        bool txStatus;\r\n        uint256 value;\r\n        uint8 buyerGrade;\r\n    }\r\n\r\n    struct txSaveRealTime{\r\n        address buyer;\r\n        string ipOrEigenvalues;\r\n        string publicKeyCheck;\r\n        bool txStatus;\r\n        uint256 value;\r\n        uint32 accountsNumber;\r\n        uint8 buyerGrade;\r\n        uint64 duration;\r\n        uint256 buyerId;\r\n        uint256 nonce;\r\n    }\r\n\r\n    mapping(address => address[]) public collectionAddress;\r\n    address owner = msg.sender;\r\n    uint256 startTx = 0;\r\n    uint256 startRealTimeTx = 0;\r\n    txSave[] txList;\r\n    txSaveRealTime[] txRealTimeList;\r\n    event addTx(address seller, uint256[] fileNUmberList, string publicKeyCheck);\r\n    event addRealTimeTx(uint256 buyerId, uint256 nonce, string publicKeyCheck, string ipOrEigenvalues, uint64 duration);\r\n    event confirmTx(uint256 i);\r\n    event confirmRealTimeTx(uint256 i);\r\n\r\n    modifier onlyOwnerOrBuyerTx(uint256 i){\r\n        require(owner == msg.sender || msg.sender == txList[i].buyer);\r\n        require(!txList[i].txStatus);\r\n        _;\r\n    }\r\n\r\n    modifier onlyOwnerOrBuyerRealTimeTx(uint256 i){\r\n        require(owner == msg.sender || msg.sender == txRealTimeList[i].buyer);\r\n        require(!txRealTimeList[i].txStatus);\r\n        _;\r\n    }\r\n\r\n    modifier onlyOwner(){\r\n        require(owner == msg.sender);\r\n        _;\r\n    }\r\n    function ()external payable { }\r\n\r\n    function buyData(address _seller, uint8 _txType, uint256 _value, uint8 _buyerGrade) public returns(uint256){\r\n        txSave memory txData = txSave({\r\n            buyer: msg.sender,\r\n            seller: _seller,\r\n            txType: _txType,\r\n            txStatus: false,\r\n            value: _value,\r\n            buyerGrade: _buyerGrade\r\n        });\r\n        txList.push(txData);\r\n        beforeDataTransaction(msg.sender, _value, _seller);\r\n        return txList.length - 1;\r\n    }\r\n\r\n    function refundData(uint256 i) public onlyOwnerOrBuyerTx(i) {\r\n        dataTransactionRefund(txList[i].buyer,txList[i].seller, txList[i].value);\r\n    }\r\n\r\n    function makeSureTx(uint256 i) public onlyOwnerOrBuyerTx(i){\r\n        afterDataTransaction(txList[i].buyer,txList[i].seller, txList[i].value, txList[i].buyerGrade);\r\n        txList[i].txStatus = true;\r\n        emit confirmTx(i);\r\n    }\r\n\r\n    function InquireUnconfirm(uint256 i) public view onlyOwner returns(uint256[] memory){\r\n        uint256[] memory h = new uint256[](txRealTimeList.length);\r\n        uint256 j = 0;\r\n        for(i; i < txList.length; i++){\r\n            if(!txList[i].txStatus){\r\n                h[j] = i;\r\n                j++;\r\n            }\r\n        }\r\n        return h;\r\n    }\r\n\r\n    function InquireTx(uint256 i) public view returns(address, address, uint8, bool, uint256, uint8) {\r\n        return (txList[i].buyer, txList[i].seller, txList[i].txType, txList[i].txStatus, txList[i].value, txList[i].buyerGrade);\r\n    }\r\n\r\n    function buyRealTimeData(uint256 _nonce, string memory _publicKeyCheck, string memory _ipOrEigenvalues, uint256 _value, uint32 _accountsNumber, uint8 _buyerGrade, uint64 _duration, uint256 _buyerId) public returns(uint256){\r\n        txSaveRealTime memory txRealTimeData = txSaveRealTime({\r\n            buyer: msg.sender,\r\n            publicKeyCheck: _publicKeyCheck,\r\n            ipOrEigenvalues: _ipOrEigenvalues,\r\n            txStatus: false,\r\n            value: _value,\r\n            accountsNumber: _accountsNumber,\r\n            buyerGrade: _buyerGrade,\r\n            duration: _duration,\r\n            buyerId: _buyerId,\r\n            nonce: _nonce\r\n        });\r\n        txRealTimeList.push(txRealTimeData);\r\n        beforeRealTimeTransaction(_accountsNumber,_value, msg.sender);\r\n        emit addRealTimeTx(_buyerId, _nonce, _publicKeyCheck, _ipOrEigenvalues, _duration);\r\n        return txRealTimeList.length - 1;\r\n    }\r\n\r\n    function setAddress(address[] memory addressList) public {\r\n        collectionAddress[msg.sender] = addressList;\r\n    }\r\n\r\n    function makeSureRealTimeTx(uint256 i) public onlyOwnerOrBuyerRealTimeTx(i){\r\n        afterRealTimeTransaction(txRealTimeList[i].accountsNumber, msg.sender, collectionAddress[msg.sender], txRealTimeList[i].value, txRealTimeList[i].buyerGrade);\r\n        txRealTimeList[i].txStatus = true;\r\n        delete collectionAddress[msg.sender];\r\n        emit confirmRealTimeTx(i);\r\n    }\r\n\r\n    function refundRealTime(uint256 i) public onlyOwnerOrBuyerRealTimeTx(i) {\r\n        realTimeTransactionRefund(txRealTimeList[i].buyer, collectionAddress[msg.sender], txRealTimeList[i].value);\r\n    }\r\n\r\n    function InquireUnconfirmReal(uint256 i) public view onlyOwner returns(uint256[] memory){\r\n        uint256[] memory h = new uint256[](txRealTimeList.length) ;\r\n        uint256 j = 0;\r\n        for(i; i < txRealTimeList.length; i++){\r\n            if(!txRealTimeList[i].txStatus){\r\n                h[j] = i;\r\n                j++;\r\n            }\r\n        }\r\n        return h;\r\n    }\r\n\r\n    function InquireRealDataTx(uint256 i) public view returns(txSaveRealTime memory, address[] memory) {\r\n        return (txRealTimeList[i], collectionAddress[txRealTimeList[i].buyer]);\r\n    }\r\n}",
  "sourcePath": "G:/my_wallet/contracts/TxControl.sol",
  "compiler": {
    "name": "solc",
    "version": "0.5.0+commit.1d4f565a.Emscripten.clang"
  },
  "schemaVersion": "3.0.5",
  "updatedAt": "2019-05-26T11:54:30.892Z",
  "devdoc": {
    "methods": {}
  },
  "userdoc": {
    "methods": {}
  }
}